:100000000C9434000C9451000C9451000C94510049
:100010000C9451000C9451000C9451000C9451001C
:100020000C9451000C9451000C9451000C9451000C
:100030000C9451000C9451000C9451000C945100FC
:100040000C9451000C9451000C9451000C945100EC
:100050000C9451000C9451000C9451000C945100DC
:100060000C9451000C94510011241FBECFEFD8E026
:10007000DEBFCDBF11E0A0E0B1E0E2EFFEE202C0E2
:1000800005900D92AC3FB107D9F724E0ACEFB1E099
:1000900001C01D92A933B207E1F70E94C8150C9464
:1000A00077170C94000060EE73E88AE59BE40895EE
:1000B000CF93DF93DB01FC019A012230310580F4FC
:1000C0009A012E7F820F931F620F731F42175307EF
:1000D00021F0FB012081FC012083DF91CF91089565
:1000E000CD91DD91C193D19322503109E6CF009794
:1000F000C9F0DC01ED91FC911197309799F02081C6
:10010000222381F02681378112968D919C912817A8
:10011000390741F481810E94B81380FD06C090E048
:1001200080E0089589E090E0089583E090E00895EC
:100130000F93CF93DF93EC019A01AB01BC016E5C8E
:100140007F4F01E089810E946314892B19F5FE011C
:10015000E05DFD4F8081918185359A4A01F5E85C2B
:10016000F14080819181A281B381BB278634914483
:10017000A445B10569F0CC57DF4F488159816A81A8
:100180007B81772781E0463451446445710519F439
:1001900080E001C083E0DF91CF910F91089582E06C
:1001A000FACF2F923F924F925F926F927F928F92EF
:1001B0009F92AF92BF92CF92DF92EF92FF920F93F6
:1001C0001F93CF93DF93CDB7DEB72E970FB6F8947A
:1001D000DEBF0FBECDBFDB01142FFC01608171813A
:1001E000FB012081022E000C330B205331092A30F1
:1001F000310580F441814A3369F46E5F7F4FFC0121
:100200007183608311961C921E92232B31F08BE038
:1002100090E021C011961C921E922091FE01309117
:10022000FF013E872D878CE090E02115310599F084
:100230002D933C93D9018C91882331F111968C91A7
:100240000E94B81380FD20C0112309F4DDC182FF94
:10025000DBC18AE090E02E960FB6F894DEBF0FBEA9
:10026000CDBFDF91CF911F910F91FF90EF90DF9065
:10027000CF90BF90AF909F908F907F906F905F9046
:100280004F903F902F900895ED85FE85108211824A
:1002900080E00E94BF1380FDE6C1112311F082FDB2
:1002A000D8CF40E050E0BA018D859E850E9498002D
:1002B000412C512C32018130C1F4ED85FE85EC508A
:1002C000FE4F8081811103C08DE090E0C4CFED85A9
:1002D000FE85E850FE4F4080518062807380B301FC
:1002E000A2018D859E850E949800833009F4BEC1CD
:1002F0008111EACFAD85BE85DD968D919C918115EA
:10030000924011F7ED85FE85E85BFF4F808091807C
:10031000B12CA12C81149104A104B10441F4ED8508
:10032000FE85EA5AFF4F80809180A280B380ED85E0
:10033000FE85828E938EA48EB58EEE5BFF4FA081DC
:10034000ED85FE85A3838FEF8A0F823008F0BCCF46
:1003500017AD1283112309F4B7CF212F30E0C90163
:10036000019781239323892B09F0AECFED5BFF4FDB
:1003700020803180ED85FE8531862086C1018F7019
:100380009927892B09F0A0CFEB5BFF4FC080D1806C
:10039000F12CE12CC114D104E104F10441F4ED8508
:1003A000FE85EE5AFF4FC080D180E280F380ED855C
:1003B000FE85E05CFF4F0190F081E02D309709F45D
:1003C00083CFB0E0A50194010E943C1669877A872B
:1003D0008B879C879F0150E040E02D833E834F83B5
:1003E0005887C10164E0969587956A95E1F7BA014F
:1003F000AF01480F591F611D711D89859A85AB8515
:10040000BC85840F951FA61FB71F89839A83AB8372
:10041000BC83C816D906EA06FB0608F455CFC70107
:10042000B60129813A814B815C81621B730B840B7D
:10043000950B212F30E050E040E00E941A16211564
:1004400031054105510509F43FCF12E0263F8FE009
:1004500038074105510508F411E0263F9FEF3907A1
:100460004105510508F013E069017A01A2E0CA0EC6
:10047000D11CE11CF11CED85FE85C68AD78AE08E71
:10048000F18E468E578E60A271A28D819E81AF81C2
:10049000B885840D951DA61DB71D82A393A3A4A3A3
:1004A000B5A349815A816B817C81440D551D661D20
:1004B000771D42A753A764A775A7133009F0A7C0FB
:1004C000232809F001CFE25AFF4F80819181A28158
:1004D000B381ED85FE8586A397A3A0A7B1A742E0CF
:1004E000CC0CDD1CEE1CFF1C4A95D1F72FEFC20E81
:1004F00021E0D21EE11CF11C89E0F694E794D79428
:10050000C7948A95D1F78C149D04AE04BF0408F4F7
:10051000DBCE8FEF9FEFDC01ED85FE858687978729
:10052000A08BB18BDF0112861386148615861330DB
:1005300009F054C01582EE59FF4F80819181A301CB
:100540009201280F391F411D511DFD01228B338B54
:10055000448B558B01E0BD016E5C7F4F81810E9411
:100560006314892BD9F5ED85FE85E05DFD4F808113
:10057000918185359A4A91F5ED85FE8582A993A9E9
:10058000A4A9B5A982359245A146B14439F5ED85B6
:10059000FE85EA5EFD4F80819181A281B381823721
:1005A0009247A144B146D1F4ED85FE85E25EFD4F50
:1005B00080819181A281B381ED85FE8582879387B9
:1005C000A487B587E65EFD4F80819181A281B381CA
:1005D000ED85FE8586879787A08BB18BAD85BE851F
:1005E0001C938091FC019091FD0101969093FD0177
:1005F0008093FC0117969C938E931697FD0116A687
:1006000017A610AA11AA148290E080E024CE232815
:1006100009F45ACE29853A854B855C85820F931F54
:10062000A41FB51FED85FE8586A397A3A0A7B1A73C
:10063000123029F4CC0CDD1CEE1CFF1C57CFA3E0BC
:10064000B0E0A70196010E943C1696958795779594
:100650006795F1E0CF22DD24EE24FF24C60ED71EDD
:10066000E81EF91E43CF83E090E0F5CD81E090E0F5
:10067000F2CD8F929F92AF92BF92CF92DF92EF9284
:10068000FF920F93CF93DF93EC018C81882309F4C1
:1006900041C0CEA4DFA4E8A8F9A84E0182E3880EE9
:1006A000911C01E0A7019601B40189810E94B51453
:1006B000892BF1F51C828AA19BA1ACA1BDA1C81612
:1006C000D906EA06FB0630F14A8D5B8D6C8D7D8D77
:1006D000840F951FA61FB71FC816D906EA06FB068A
:1006E000C8F4AB80B12C82E0A816B10498F08A8DD2
:1006F0009B8DAC8DBD8DC80ED91EEA1EFB1E01E080
:10070000A7019601B40189810E94B51481E0A81A5D
:10071000B108E9CF90E080E0DF91CF910F91FF9099
:10072000EF90DF90CF90BF90AF909F908F90089503
:1007300081E090E0F1CFCF92DF92EF92FF920F93A2
:10074000CF93DF93EC016A017B018EA59FA5A8A939
:10075000B9A98C159D05AE05BF05F1F0CE010E942B
:100760003903892B51F081E090E0DF91CF910F9117
:10077000FF90EF90DF90CF90089501E0A7019601E0
:10078000BE016E5C7F4F89810E946314892B59F7EB
:10079000CEA6DFA6E8AAF9AA90E080E0E6CF0F9304
:1007A000CF93DF93EC010E943903009709F058C002
:1007B0008881833009F047C08D81882309F443C0C4
:1007C0001EA61FA618AA19AABE016E5C7F4FFB01C8
:1007D000CE018E5C9D4FE817F90711F01192FBCF07
:1007E00085E59AEAFE01E05DFD4F9183808382E515
:1007F00092E5A1E6B1E48AAB9BABACABBDAB82E7C3
:1008000092E7A1E4B1E67A9780839183A283B383D0
:100810008E859F85A889B989349680839183A28328
:10082000B3838A859B85AC85BD853496808391830F
:10083000A283B3832A893B894C895D8901E0898140
:100840000E94B5141D8250E040E060E089810E9462
:100850001B1531E020E0892B09F430E0832F922F23
:10086000DF91CF910F9108950F931F93FC019A018F
:10087000AB01225031094109510986899789A08D20
:10088000B18D0297A109B109281739074A075B07FB
:1008900078F4A281B0E00E943C1602A513A524A51D
:1008A00035A5600F711F821F931F1F910F9108952F
:1008B00060E070E0CB01F9CFBF92CF92DF92EF9270
:1008C000FF920F931F93CF93DF93EC016A017B019B
:1008D00082E0C816D104E104F10408F4ABC08E89AB
:1008E0009F89A88DB98DC816D906EA06FB0608F0BF
:1008F000A1C08881823009F452C0833009F470C0ED
:100900008130B1F48A0116950795040F151FC801AF
:10091000892F992786954AA15BA16CA17DA1480FDB
:10092000591F611D711DCE010E949B03892B21F06F
:100930006FEF7FEFCB0127C0F801F170EC0FFD1FC7
:10094000B2A80F5F1F4FC801892F992786954AA12A
:100950005BA16CA17DA1480F591F611D711DCE01C6
:100960000E949B03892B21F71170C00FD11F6AA928
:10097000762F6B2DC0FE11C054E0769567955A9581
:10098000E1F790E080E0DF91CF911F910F91FF9010
:10099000EF90DF90CF90BF9008957F70F2CF7727D0
:1009A0006F2D5E2D4D2D8AA19BA1ACA1BDA1480F3D
:1009B000591F6A1F7B1FCE010E949B03892B09F0E0
:1009C000B7CFCC0CDD1CEE1CFF1CE894C0F881E016
:1009D000D822EE24FF24CC0DDD1D6AA97BA9D1CF3E
:1009E0008AA19BA1ACA1BDA127E0769567955795FB
:1009F00047952A95D1F7480F591F6A1F7B1FCE01D3
:100A00000E949B03892B09F093CF82E0CC0CDD1C64
:100A1000EE1CFF1C8A95D1F78CEFC82281E0D8220A
:100A2000EE24FF24CC0DDD1D6AA97BA98CA99DA90C
:100A30009F70A9CF61E070E080E090E0A4CF0F93B9
:100A40001F93CF93DF93EC011D821C824E815F8147
:100A500068857985413051056105710539F482E079
:100A600090E0DF91CF911F910F910895E881F98176
:100A700086899789A08DB18D481759076A077B072A
:100A800070F7411551056105710521F580818330AD
:100A900049F446A157A160A571A54115510561050D
:100AA0007105C1F41A861B861C861D86808591857A
:100AB000892BA9F286A197A1A0A5B1A58E879F87B2
:100AC000A88BB98B88819981C2969B8B8A8B90E089
:100AD00080E0C7CF028180E1089F800111248881D6
:100AE000998101151105E1F40E945C04AB01BC0180
:100AF0004F3F8FEF580768077807E9F042305105FC
:100B00006105710508F4ABCFE881F9818689978981
:100B1000A08DB18D481759076A077B0700F39FCF57
:100B20004A875B876C877D870E9434046E877F8746
:100B3000888B998BC7CF81E090E093CF4F925F92E3
:100B40006F927F928F929F92AF92BF92CF92DF92DD
:100B5000EF92FF920F931F93CF93DF93EC016A0103
:100B60007B014801590122E0C216D104E104F104DD
:100B700008F4DCC08E899F89A88DB98DC816D90666
:100B8000EA06FB0608F0D2C08881823009F471C001
:100B9000833009F48FC0813009F0C5C08A011695F1
:100BA0000795040F151FC801892F992786954AA11B
:100BB0005BA16CA17DA1480F591F611D711DCE0164
:100BC0000E949B030097D9F5882DF801F170EC0F76
:100BD000FD1F2601370131E0432255246624772486
:100BE000C0FE07C082A98F7090E1899E90011124F8
:100BF000822B82AB0F5F1F4F81E08C83C801892F4E
:100C0000992786954AA15BA16CA17DA1480F591F28
:100C1000611D711DCE010E949B03009781F411702C
:100C2000FE01E00FF11F452846284728D9F064E06F
:100C3000B694A794979487946A95D1F782AA21E0F5
:100C40002C83DF91CF911F910F91FF90EF90DF9058
:100C5000CF90BF90AF909F908F907F906F905F905C
:100C60004F90089522A9207F392D3F70832E822A2C
:100C7000E5CF77276F2D5E2D4D2D8AA19BA1ACA1CD
:100C8000BDA1480F591F6A1F7B1FCE010E949B0305
:100C90000097A9F6CC0CDD1CEE1CFF1CE894C0F8F4
:100CA000E1E0DE22EE24FF24CC0EDD1EF60113ABC4
:100CB00002ABC5CF8AA19BA1ACA1BDA137E07695BF
:100CC0006795579547953A95D1F7480F591F6A1F71
:100CD0007B1FCE010E949B03009709F0B0CF22E05A
:100CE000CC0CDD1CEE1CFF1C2A95D1F7FCEFCF22AB
:100CF000F1E0DF22EE24FF2422E3C20ED11CFE012C
:100D0000EC0DFD1D4081518162817381442755277F
:100D10006627707F842A952AA62AB72A8082918224
:100D2000A282B3828CCF82E090E089CF82E090E013
:100D300088CF4F925F926F927F928F929F92AF92E5
:100D4000BF92CF92DF92EF92FF920F931F93CF93B8
:100D5000DF93EC012A013B01411451046104710449
:100D600071F58A849B84AC84BD8481149104A104B0
:100D7000B10409F44DC08E899F89A88DB98D88165C
:100D80009906AA06BB0608F043C0750164018FEFFF
:100D9000C81AD80AE80AF80A8E899F89A88DB98DE1
:100DA000C816D906EA06FB06E8F122E0821691048D
:100DB000A104B10490F5C12CD12C760116C00E947B
:100DC0005C046B017C0122E0C216D104E104F10451
:100DD00008F47EC08E899F89A88DB98D5301420188
:100DE000C816D906EA06FB0680F6C701B601DF91F0
:100DF000CF911F910F91FF90EF90DF90CF90BF9018
:100E0000AF909F908F907F906F905F904F900895DC
:100E1000812C912C54018394B8CF22E0C22ED12C86
:100E2000E12CF12CB701A601CE010E945C046115F2
:100E3000710581059105B9F06F3F2FEF72078207A9
:100E4000920729F4CC24CA94DC2C7601CECF6130F1
:100E5000710581059105E1F1C814D904EA04FB0488
:100E600009F095CFA8CF0FEF1FEF2FEF3FE0B701AD
:100E7000A601CE010E949E05009739F54114510448
:100E800061047104C9F4CA86DB86EC86FD868E8512
:100E90009F85A889B9898F3F2FEF9207A207B207D4
:100EA00009F4A3CF0197A109B1098E879F87A88B69
:100EB000B98B81E08D8399CF97018601B301A2019F
:100EC000CE010E949E050097F1F2019709F4BACF76
:100ED000C12CD12C7601C39488CF8F929F92AF9270
:100EE000BF92CF92DF92EF92FF920F931F93CF9317
:100EF000DF93EC016B010C811D810F5F1F4F79F4B3
:100F000084E090E0DF91CF911F910F91FF90EF90DF
:100F1000DF90CF90BF90AF909F908F9008954E85B7
:100F20005F8568897989411551056105710541F32E
:100F300078018FE0E822FF24E114F104C9F48881EC
:100F400099814F5F5F4F6F4F7F4F4E875F87688BF1
:100F5000798B4A855B856C857D85FC014115510542
:100F600061057105B1F4808591850817190740F670
:100F70001D830C8388819981C29625E0EE0CFF1CAD
:100F80002A95E1F7E80EF91EFB8AEA8A90E080E0F4
:100F9000B9CF22812150330BF801A4E0F695E795F3
:100FA000AA95E1F72E233F23232B11F70E945C041F
:100FB0004B015C01F2E08F169104A104B10418F416
:100FC00082E090E09FCF8FEF88169806A806B806BB
:100FD00019F481E090E096CF88819981FC014689DF
:100FE0005789608D718D84169506A606B70608F49C
:100FF00067C0CD2809F484CF4A855B856C857D85E3
:101000000E9499064B015C0187E090E081149104F5
:10101000A104B10409F476CFF1E08F169104A10484
:10102000B10471F28FEF88169806A806B80689F207
:10103000888199810E943903892B59F68881998189
:10104000FC01F2968E5C9D4FE817F90711F01192A2
:10105000FBCFC880D980B501A401C6010E94340429
:10106000F60166A777A780AB91ABD12CCC24C394B3
:10107000E881F9818281D816B8F4C4828881998187
:101080000E943903892B09F0A4CFE881F98186A554
:1010900097A5A0A9B1A90196A11DB11D86A797A7E3
:1010A000A0ABB1ABD394E4CF86A597A5A0A9B1A975
:1010B0008D199109A109B10986A797A7A0ABB1AB7A
:1010C0008A869B86AC86BD86B501A40188819981FC
:1010D0000E9434046E877F87888B998B49CFCF938A
:1010E000DF93EC0184E090E04E855F856889798923
:1010F000411551056105710521F1888199810E9491
:101100009B030097C9F4EA89FB8980818823E1F079
:10111000853E59F08E3249F083858F73883029F4EB
:1011200090E080E0DF91CF91089570E060E0CE0123
:101130000E946D070097C1F21E861F86188A198AC1
:10114000F1CF009769F3F8CF84E090E0F5CFCF932B
:10115000DF93EC014E855F85688979898881998163
:101160000E949B03009771F4EA89FB892081253E48
:1011700049F0222339F061E070E0CE010E946D0752
:10118000009741F3DF91CF910895811113C0E09151
:10119000FE01F091FF01309709F010826115710591
:1011A00011F0FB0110827093FF016093FE0190E04B
:1011B00080E008958BE090E008952F923F924F9247
:1011C0005F926F927F928F929F92AF92BF92CF92D7
:1011D000DF92EF92FF920F931F93CF93DF93CDB7E0
:1011E000DEB7AF970FB6F894DEBF0FBECDBF3C01A0
:1011F0007CA36BA3142F49E0242E312C009709F413
:10120000B2C1DC011D921C92412F4E71BE016F5F75
:101210007F4FCE0183960E94D1001C01892B09F0DB
:10122000A2C1CE0147969E8B8D8BEBA0FCA0F7014F
:1012300080818F3211F08C3519F4FFEFEF1AFF0A1D
:101240001F82188619861A86D7018C918F31E1F09A
:10125000D8F080E2882E95E0992EFEA2EDA2CDA0D6
:10126000DEA0D6018D918F3209F18C35F9F0AD8970
:10127000BE89CD019D01255F3F4F82179307C9F0BD
:10128000FC018192CF01F9CFCE0101960E941F058A
:101290001C8A1B8A4B885C88009709F0B1C04114F6
:1012A000510409F0ADC086E090E0AAC0BEA3ADA392
:1012B000D6CF90E080E0F12CE12C28E030E000E097
:1012C000FFEFEF1AFF0AEDA1FEA14191FEA3EDA3EE
:1012D000542F4132D0F14F32C1F14C35B1F14E3281
:1012E00019F08217930770F02830310509F0DCC03F
:1012F0004E3209F0D9C0000F000F88E090E02BE0DB
:1013000030E0DECF47FF06C0036050E049575F4F33
:10131000FA015081A52EB12C6DED71E0FB014191D8
:10132000BF01442309F429C2442E440F5508A414D4
:10133000B504A1F74B885C88B6CF0260BD01680F89
:10134000791FFB0150830196BBCFEC0CFD1C413291
:1013500008F045C044E0892B09F4A6C08C91853E75
:1013600009F49C922830310511F4000F000F802FF2
:101370008370813009F440610C70043009F44860D6
:101380001B964C93CE0101960E941F05009759F5BC
:101390004F85588969897A8989819A810E949B033E
:1013A000009709F5AB89BC892C912223D1F01B96BB
:1013B0002C911B9723FD0CC0ED89FE89AF01455F81
:1013C0005F4FE417F50779F03D9121913217C9F38A
:1013D00070E060E0CE0101960E946D07D7CF40E03B
:1013E000BACF84E090E0ED89FE8923854B885C8844
:1013F0000097B1F18430910509F04CCF22FF5AC01B
:10140000B12FBF71BFA3212F2C7109F436C10097F2
:1014100009F4C3C08430910509F0ADC1CE01019635
:101420000E941F05009709F0A6C1CE0101960E94F7
:10143000A708009709F09FC14F85588969897A8963
:1014400089819A810E949B03009709F094C1EB89DE
:10145000FC89CF0180968E179F0779F11192FBCFFF
:1014600022FD18CFD2011B968C911B9784FF1FC0C1
:101470005A964D915C915B9770E060E0E981FA814A
:101480008081833061F454968D919C91B0E0A0E00E
:10149000DC0199278827482B592B6A2B7B2B4F83FC
:1014A000588769877A87D9CE86E090E0F3CE85E0C9
:1014B00090E0F0CE85E090E0A3CF6D897E894BE08F
:1014C00050E08B899C890E945800E981FA8181E073
:1014D0008483EFA1E860EFA34B885C88BFA1B3FFD2
:1014E000D8C00E945300F20166877787808B918B6A
:1014F0001386D201148E158E168E178EE981FA810D
:10150000FEA3EDA35A96CD90DC905B97F12CE12CD5
:101510008081833061F454968D919C91B0E0A0E07D
:10152000DC0199278827C82AD92AEA2AFB2AD2016E
:101530005B961C921E925A9755961C921E92549737
:1015400081E0EDA1FEA18483C114D104E104F10482
:1015500009F49FC0F1E0CF16D104E104F10449F58C
:10156000F2E02F2E312CC101AF960FB6F894DEBFFA
:101570000FBECDBFDF91CF911F910F91FF90EF90E4
:10158000DF90CF90BF90AF909F908F907F906F90A3
:101590005F904F903F902F900895D2011B968C91B1
:1015A000817109F0CEC012FF99CF38E0232E312C83
:1015B000DACFEDA1FEA186899789A08DB18DC816DD
:1015C000D906EA06FB0660F686A597A5A0A9B1A9EB
:1015D0008CA79DA7AEA7BFA746015701EDA1FEA10D
:1015E00086899789A08DB18D88169906AA06BB06B3
:1015F00008F0ABC0B501A401CF010E945C0468A74C
:1016000079A78AA79BA7611571058105910509F442
:101610009CC0613071058105910509F4A1CF6F3F30
:101620007F4F8F4F9F4F09F484C000E010E0980176
:10163000B501A4018DA19EA10E949E05009709F00D
:101640009AC0EDA1FEA186859785A089B1898F3FBB
:10165000FFEF9F07AF07BF0759F00196A11DB11D0E
:10166000EDA1FEA186879787A08BB18B21E0258312
:1016700088A499A4AAA4BBA4B1CF009709F07BC009
:10168000D2011B968C9184FD58C011FF02C080FDD1
:1016900058C0BFA1B3FF02C0B062BFA309811A81C5
:1016A000F80146A557A560A971A9D3015A964D9393
:1016B0005D936D937C935D975F965C924E925E977F
:1016C000EFA11496EC93D2015A968D919C91B0E0C3
:1016D000A0E0F8012081233061F4F20144895589AA
:1016E00070E060E0BA0155274427842B952BA62B88
:1016F000B72BF30186879787A08BB18BF201848D7E
:10170000958DA68DB78DF30182879387A487B587C2
:101710001682178210861186168A178A108E118EED
:1017200011830083D80116968D919C9193838283B7
:101730001ACF22242394312C16CF94E0292E312C59
:1017400012CF87E0282E312C0ECF89819A81B701E4
:10175000A6014150510961097109FC014287538773
:10176000648775874CA55DA56EA57FA50E949B0328
:10177000009709F48ECF1C01F6CE4FEB450F4A318E
:1017800008F4DBCD4FE9450F4A3108F0D7CD0160B1
:101790005052D4CD2F923F924F925F926F927F9290
:1017A0008F929F92AF92BF92CF92DF92EF92FF9271
:1017B0000F931F93CF93DF93EC015B016A01190133
:1017C000F901118210820E947700009709F062C02F
:1017D0008C8187FD4AC080FF11C18A859B85AC85BD
:1017E000BD854E815F8168857985841B950BA60B2D
:1017F000B70BA60170E060E084179507A607B7074E
:1018000008F46C01C114D10409F4FBC04E815F815E
:1018100068857985DB01CA019170AA27BB27892BCE
:101820008A2B8B2B09F0C2C088819981FC0122810F
:1018300021502A013B01E9E076946794579447943C
:10184000EA95D1F7122F1421E1F5452B462B472BB2
:1018500079F46E857F858889998962307105810563
:10186000910568F48C8180688C8382E090E012C0DE
:101870004A895B896C897D890E945C04EECF6F3F49
:10188000FFEF7F078F079F07C1F48C8180688C83EF
:1018900081E090E0DF91CF911F910F91FF90EF9049
:1018A000DF90CF90BF90AF909F908F907F906F9080
:1018B0005F904F903F902F9008956A8B7B8B8C8B1D
:1018C0009D8B888099804A895B896C897D89C40158
:1018D0000E943404611571058105910519F22B01EF
:1018E0003C01410E511C611C711C7601EF2CFF2440
:1018F000E694E114F10409F455C0F4018281212F2A
:1019000030E0A9014E0D5F1D90E08417950718F493
:101910007C01E21AF30A0E2DA3019201B501F40134
:1019200081810E946314892B09F0AFCFE881F9818E
:1019300084818823E1F086A597A5A0A9B1A984197F
:101940009509A609B709A70170E060E0841795071B
:10195000A607B70760F4BF016E5C7F4F982F8827FA
:10196000990F40E052E08A0D9B1D0E945800FE2C0A
:10197000EE24FF0CAE0CBF1C8E819F81A885B9851B
:101980008E0D9F1DA11DB11D8E839F83A887B987D2
:10199000F101808191818E0D9F1D91838083CE18EE
:1019A000DF0830CF4E8A5F8A688E798E8E819F8164
:1019B000917020E032E0281B390B76012C153D0593
:1019C00008F479014E895F89688D798D88819981C4
:1019D0000E949B03892B09F058CF8E819F81A88597
:1019E000B9859170AA27BB27C29668817981680F53
:1019F000791FA701C5010E945800BCCF87E090E085
:101A000049CF90E080E046CF2F923F924F925F9275
:101A10006F927F928F929F92AF92BF92CF92DF92FE
:101A2000EF92FF920F931F93CF93DF93EC015B0133
:101A30006A011901F901118210820E947700009752
:101A400009F073C08C8187FD5AC081FF6BC18A8504
:101A50009B85AC85BD85AC01BD014C0D5D1D611D37
:101A6000711D481759076A077B0708F444C14E8166
:101A70005F8168857985C114D10409F43CC1DB011B
:101A8000CA019170AA27BB27892B8A2B8B2B09F0BF
:101A900006C1E881F981228121502A013B01A9E098
:101AA0007694679457944794AA95D1F7122F1421EE
:101AB00009F052C0452B462B472B21F56E857F85BB
:101AC00088899989611571058105910581F440E046
:101AD00050E0BA01CF010E9499066E877F87888BFC
:101AE000998B611571058105910509F404C1613077
:101AF00071058105910571F48C8180688C8382E089
:101B000090E013C04A895B896C897D89CF010E946E
:101B10009906E7CF6F3FFFEF7F078F079F07C1F45D
:101B20008C8180688C8381E090E0DF91CF911F9160
:101B30000F91FF90EF90DF90CF90BF90AF909F906C
:101B40008F907F906F905F904F903F902F9008956F
:101B50006A8B7B8B8C8B9D8B88819981FC0146A441
:101B600057A460A871A84E895F89688D798D441645
:101B700055066606770621F40E943903892B81F603
:101B8000888099804A895B896C897D89C4010E941B
:101B90003404611571058105910509F4ADCF2B0160
:101BA0003C01410E511C611C711C7601EF2CFF247D
:101BB000E694E114F10409F455C0F4018281212F67
:101BC00030E0A9014E0D5F1D90E08417950718F4D1
:101BD0007C01E21AF30A0E2DA3019201B501F40172
:101BE00081810E94B514892B09F09ACF888199814F
:101BF000FC0146A557A560A971A9441955096609B4
:101C000077092701712C612C441555056605770568
:101C100070F4542F4427550FB501640F751F40E031
:101C200052E0C2960E945800E881F9811482FE2C8D
:101C3000EE24FF0CAE0CBF1C8E819F81A885B98558
:101C40008E0D9F1DA11DB11D8E839F83A887B9870F
:101C5000F101808191818E0D9F1D91838083CE182B
:101C6000DF0805CF4E815F81688579858A859B85F0
:101C7000AC85BD85481759076A077B0760F0C4012A
:101C80000E943903892B09F04BCFE881F98146A6E0
:101C900057A660AA71AA4E8A5F8A688E798E8E8155
:101CA0009F81917020E032E0281B390B76012C15C2
:101CB0003D0508F479014E895F89688D798D8881A9
:101CC00099810E949B03892B09F02ACF8E819F81E5
:101CD000A885B9859170AA27BB27C296288139812A
:101CE000A701B501820F931F0E945800E881F98176
:101CF00031E034839FCF8E819F81A885B9854A8545
:101D00005B856C857D85481759076A077B0720F43A
:101D10008A879B87AC87BD878C8180628C8390E0AB
:101D200080E003CF87E090E000CF0F931F93CF9325
:101D3000DF93EC010E9477000097D9F52C8125FFF5
:101D400038C04A8D5B8D6C8D7D8D888199810E9414
:101D50009B03009771F50E8D1F8DF80183858062BE
:101D600083878A859B85AC85BD85848F958FA68F5B
:101D7000B78F8E859F85A889B989938F828FB58B00
:101D8000A48B0E945300F801668B778B808F918F14
:101D9000138A128A8C818F7D8C83E881F98181E09E
:101DA000848388819981DF91CF911F910F910C9449
:101DB000CF03DF91CF911F910F910895CF93DF93C0
:101DC000EC010E94950E009711F419821882DF91A0
:101DD000CF9108952F923F924F925F926F927F9290
:101DE0008F929F92AF92BF92CF92DF92EF92FF922B
:101DF0000F931F93CF93DF9300D000D000D0CDB7C7
:101E0000DEB79E838D836A017B010E9477008C017F
:101E1000892B09F02BC1AD81BE8114962C911497AA
:101E200027FD11C11A968D919D910D90BC91A02D09
:101E30008C159D05AE05BF0520F421FD02C06C0187
:101E40007D01ED81FE814680578060847184168219
:101E5000178210861186C114D104E104F104B9F58A
:101E600080E090E0DC011FC0C12CD12C7601ED8117
:101E7000FE8186819781A085B185AC01BD0151703D
:101E800066277727452B462B472B69F046895789CC
:101E9000608D718D4C155D056E057F0521F0C68A3C
:101EA000D78AE08EF18EED81FE814285538564856F
:101EB0007585481759076A077B0708F0D7C08287DE
:101EC0009387A487B587848180628483CFC0ED81A6
:101ED000FE8120803180D10112968C90912CB12C02
:101EE000A12C39E0880C991CAA1CBB1C3A95D1F78F
:101EF000411451046104710409F485C0B1E04B1A26
:101F0000510861087108C701B60161507109810962
:101F10009109A50194010E941A1629833A834B83E3
:101F20005C83C301B201A50194010E941A16898144
:101F30009A81AB81BC8182179307A407B50708F487
:101F400062C088279927DC0188199909AA09BB0969
:101F500084219521A621B721ED81FE818683978377
:101F6000A087B187C81AD90AEA0AFB0A42895389AD
:101F700064897589411551056105710509F474CFAE
:101F80008C149D04AE04BF0498F4ED81FE81808121
:101F90009181248121FF93C00E949906AB01BC016D
:101FA000411551056105710509F08DC07501640188
:101FB000ED81FE8186819781A085B1858C0D9D1D67
:101FC000AE1DBF1D86839783A087B187D701C60149
:101FD0009170AA27BB27892B8A2B8B2B09F444CF1E
:101FE000808191810E9434046115710581059105FC
:101FF00009F09DC0AD81BE8114968C9114978068C4
:1020000014968C9320C0AD81BE811E964D915D913A
:102010006D917C915197411551056105710509F04C
:1020200045C040E050E0BA01C1010E949906AB01F1
:10203000BC01413051056105710541F4ED81FE811E
:1020400084818068848302E010E010C04F3FFFEF7E
:102050005F076F077F0721F5AD81BE8114968C91D4
:102060001497806814968C9301E010E0C8012696BE
:102070000FB6F894DEBF0FBECDBFDF91CF911F9199
:102080000F91FF90EF90DF90CF90BF90AF909F9017
:102090008F907F906F905F904F903F902F9008951A
:1020A000ED81FE8146875787608B718BAD81BE8144
:1020B00052964D935D936D937C9355975BCF0E94A1
:1020C0005C04AB01BC014F3FFFEF5F076F077F0769
:1020D00019F2423051056105710508F4AFCFAD81A9
:1020E000BE81ED91FC9186899789A08DB18D4817AD
:1020F00059076A077B0708F0A1CFAD81BE815296D0
:102100004D935D936D937C935597FD0186819781E7
:10211000A085B185880D991DAA1DBB1D8683978357
:10212000A087B187C818D908EA08FB0829CF29E099
:10213000F694E794D794C7942A95D1F7C60ED71E84
:10214000E81EF91E94CECF92DF92EF92FF920F938A
:102150001F93CF93DF93CDB7DEB768970FB6F89490
:10216000DEBF0FBECDBF988F8F8B7B016A0140E031
:10217000BE016F5F7F4FCE0147960E94D1008C0158
:10218000892B09F046C0E114F10411F11F82188671
:1021900019861A86CE0101960E941F05009709F044
:1021A00051C0CE0101960E946F08009709F041C00E
:1021B0006B897C894BE050E0C7010E945800F70111
:1021C0003B961082EE16FF0619F082918032C9F319
:1021D000C114D104F1F089819A81FC01468D578D9B
:1021E00060A171A10E949B038C01892B91F4E9816C
:1021F000FA818081833019F187E290E0E80FF91FBE
:1022000082A993A9A4A9B5A9F60180839183A28389
:10221000B383C80168960FB6F894DEBF0FBECDBF7A
:10222000DF91CF911F910F91FF90EF90DF90CF90B2
:1022300008958430910531F4F7011082C9CF83E409
:1022400090E0DCCF8C01E5CFCF92DF92EF92FF924E
:102250000F931F93CF93DF93CDB7DEB7A3970FB63E
:10226000F894DEBF0FBECDBF9BA38AA341E0BE01A1
:102270006F5F7F4FCE0182960E94D100009709F0D8
:1022800075C01F8A8AA19BA16C019C01B901681BC2
:10229000790BD9014D919D014111F8CFFB01E80F58
:1022A000F91FBF01681B790BE817F90799F1229113
:1022B0002032B9F3FE0177968F0130E020E02F5FE6
:1022C0003F4FD6018D916D0190E0AC01415651090F
:1022D0004A31510590F480974CEEE42E41E0F42E03
:1022E000D7014D917D01442309F48CC0042E000CCC
:1022F000550B84179507A1F70AC08038910528F07F
:1023000089579F4FDC018C9190E0009729F786E078
:1023100090E02CC01F82188619861A86CE0101967D
:102320000E941F05009711F5CE0101960E946F08CB
:10233000009779F58B899C892F89222331F14BE015
:1023400050E0BE01695E7F4F0E9458000E9453001A
:10235000EB89FC89668B778B808F918F89819A813D
:1023600021E0DC0114962C930E94CF03A3960FB6B4
:10237000F894DEBF0FBECDBFDF91CF911F910F91BB
:10238000FF90EF90DF90CF90089525EEFC01208321
:10239000E5CF8430910551F78F89882381F1CE01F3
:1023A00001960E941F05009709F7CE0101960E9431
:1023B000A7080097D9F6EB89FC89CF018096E8172A
:1023C000F90711F01192FBCF4BE050E0BE01695EBE
:1023D0007F4F8B899C890E945800EB89FC8988E09B
:1023E00083870E945300EB89FC89668B778B808FF3
:1023F000918F89819A8121E0FC012483B5CF90E0FF
:1024000080E0B4CF2C30310509F481CFD8018D9311
:102410008D012617370708F452CFDF01A20FB31F33
:1024200080E29D012E1B3F0B2B30310508F072CF4F
:102430008D93F7CF23B123B123B123B10197D1F706
:102440000895FC01680F791F919197FF2AC02B9A7C
:102450002D9A2D9896FF27C02B9A2D9A2D9895FF8F
:1024600024C02B9A2D9A2D9894FF21C02B9A2D9A37
:102470002D9893FF1EC02B9A2D9A2D9892FF1BC06A
:102480002B9A2D9A2D9891FF18C02B9A2D9A2D9842
:1024900090FF15C02B9A2D9A2D986E177F07A1F6E5
:1024A00008952B98D5CF2B98D8CF2B98DBCF2B988E
:1024B000DECF2B98E1CF2B98E4CF2B98E7CF2B984A
:1024C000EACF2B9AFC01680F791F93B12D9A2D98B2
:1024D00092959170990F1C999F5F2D9A2D98990F45
:1024E0001C999F5F2D9A2D98990F1C999F5F2D9A8B
:1024F0002D98990F1C999F5F2D9A2D98990F1C99D3
:102500009F5F2D9A2D98990F1C999F5F2D9A2D985A
:10251000990F1C999F5F2D9A2D989193E617F707B5
:10252000A1F608950F931F93CF93DF931F92CDB71A
:10253000DEB708E813E161E070E0CE0101960E9489
:10254000611289818F3F79F084E690E00E941A122F
:102550000150110981F790E080E00F90DF91CF9159
:102560001F910F91089581E090E0F7CFCF93DF9313
:102570001F92CDB7DEB72A9A61E070E0CE010196D6
:102580000E9461120F90DF91CF9108950F931F93D6
:10259000CF93DF931F92CDB7DEB72A9861E070E04A
:1025A000CE0101960E9461120E9492128C01892B29
:1025B00049F40E94B612C8010F90DF91CF911F918C
:1025C0000F91089501E010E0F6CFCF92DF92EF92E5
:1025D000FF920F931F93CF93DF9300D0CDB7DEB759
:1025E0007C016B0108EE13E061E070E0CE01019622
:1025F0000E94611289818F3F39F484E690E00E9445
:102600001A120150110981F789818E3FB9F4B60180
:10261000C7010E94611262E070E0CE0101960E9443
:10262000611281E090E00F900F90DF91CF911F91A8
:102630000F91FF90EF90DF90CF90089590E080E0B1
:10264000F2CFDF92EF92FF920F931F93CF93DF931E
:1026500000D000D000D01F92CDB7DEB7182F042FC6
:10266000F52EE62ED72E87FF09C040E050E0BA01D4
:1026700087E30E942113823080F51F770E94B612F3
:102680000E94C612892BB9F1812F80648983DA8276
:10269000EB82FC820D8385E9112321F087E8183055
:1026A00009F081E08E8366E070E0CE0101960E9421
:1026B00021121C3031F461E070E0CE0107960E94D7
:1026C00061121AE061E070E0CE0107960E9461128B
:1026D0008F8187FF02C01150A9F727960FB6F89493
:1026E000DEBF0FBECDBFDF91CF911F910F91FF9045
:1026F000EF90DF9008958FEFF0CFEF92FF921F934E
:10270000CF93DF9300D0CDB7DEB77C01162F0E94A8
:102710009212009729F1198361E070E0CE010196D1
:102720000E94211281E090E01D3FD1F060E072E054
:10273000C7010E94211262E070E0CE0101960E9462
:10274000611261E070E0CE0101960E946112898100
:102750008F7131E020E0853009F030E0832F922F37
:102760000F900F90DF91CF911F91FF90EF90089500
:10277000811103C080910001089581E00895EF92D6
:10278000FF920F931F93CF93DF9300D000D0CDB76C
:10279000DEB703E0811125C080E197E20E941A12A2
:1027A000229A2A9A259A2D98239A1AE061E070E0DD
:1027B000CE0101960E9461121150C1F740E050E035
:1027C000BA0180E00E942113182F8130B1F010E08F
:1027D0001093000201E0111100E0009300010E943B
:1027E000B612802F0F900F900F900F90DF91CF9126
:1027F0001F910F91FF90EF9008954AEA51E060E039
:1028000070E088E00E9421138130F9F464E070E008
:10281000CE0101960E9461128B818130C1F68C81BC
:102820008A3AA9F608EE13E040E050E060E070E478
:1028300089EA0E942113882341F188EE93E00E94E7
:102840001A120150110981F7C2CF40E050E0BA01DD
:1028500089EA0E94211301E0823010F409EA12E0B3
:1028600088EEE82E83E0F82E40E050E0BA01802F99
:102870000E9421138823E9F088EE93E00E941A1247
:1028800081E0E81AF10881F7A2CF40E050E0BA01F8
:102890008AE30E94211381119ACF64E070E0CE0197
:1028A00001960E94611289811CE086FD91CF14E09F
:1028B0008FCF40E052E060E070E080E10E942113A1
:1028C000811185CF85CF0F93CF93DF93EB01BA01B1
:1028D000A90181111BC08091000180FD44C080913D
:1028E000000283FD07C089E0440F551F661F771F54
:1028F0008A95D1F70130B9F481E10E942113882330
:1029000039F00E94B61281E090E029C081E0E5CF65
:1029100060E072E0CE010E94E512892B91F30E94E3
:10292000B61280E0F1CF82E10E942113811110C024
:1029300060E072E0CE010E94E512892B19F0DE5FA3
:102940000150B1F740E050E0BA018CE00E94211341
:102950000E94B61281E090E0011101C080E0DF9199
:10296000CF910F91089583E0CFCFCF92DF92EF9276
:10297000FF920F93CF93DF93EB0169017A018111ED
:1029800023C08091000180FD54C08091000283FD2E
:1029900007C099E0CC0CDD1CEE1CFF1C9A95D1F70A
:1029A0000130A1F4B701A60188E10E942113811131
:1029B0002DC06EEFCE010E947D13892B39F10E944C
:1029C000B61280E090E02DC081E0DDCF867039F056
:1029D000402F50E070E060E087E90E942113B701CA
:1029E000A60189E10E942113811114C06CEFCE0170
:1029F0000E947D13892B19F0DE5F0150B9F76DEF4E
:102A000090E080E00E947D13892B21F40E94B61291
:102A100081E0D8CF0E94B61281E090E0011101C0A0
:102A200080E0DF91CF910F91FF90EF90DF90CF90FA
:102A3000089583E0C7CF0F931F93CF93DF93CDB754
:102A4000DEB760970FB6F894DEBF0FBECDBF8A0128
:102A500081110CC08091000180FD97C06130E9F0C8
:102A600038F0633009F48CC004E020C081E0F4CF7A
:102A70000E94C61201E010E0892B09F000E00E94DC
:102A8000B612C80160960FB6F894DEBF0FBECDBF78
:102A9000DF91CF911F910F91089540E050E0BA016E
:102AA00089E00E942113882319F001E010E0E7CFAC
:102AB00060E170E0CE0101960E94E512892BA9F336
:102AC0002A8549858885698170E0E6E07595679576
:102AD000EA95E1F750E030E06130710519F590E0DA
:102AE000B0E0A0E0DC019927882788279927AF73F9
:102AF000BB270196A11DB11D542F4427240F351F5C
:102B0000820F931FA11DB11D7AE0880F991FAA1F84
:102B1000BB1F7A95D1F7F80180839183A283B38399
:102B200000E0C4CFF4E08F9FC0011124019666E05D
:102B3000559547956A95E1F7840F951F4F8150E0B1
:102B4000542F4427550F550F44275C70840F951F51
:102B5000B0E0A0E04E814F705B85551F5527551F93
:102B6000450F4E5F220F331F2670240F2950330B61
:102B700004C0880F991FAA1FBB1F2A95D2F7CBCF7D
:102B800080E890E0A0E0B0E0C6CF03E010E079CFAD
:102B9000CF93DF9300D0CDB7DEB7209A289A2FEFDE
:102BA00083ED90E3215080409040E1F700C00000A9
:102BB000289863E072E080E00E94C50880E290E01F
:102BC0000E945616909302028093010242E167E848
:102BD00071E00E94DD08892B01F58091010290913E
:102BE0000202FC0142855385648575850E94EA0EC8
:102BF000892B69F49E012F5F3F4F4CE450E060E960
:102C000071E080910102909102020E94040D809176
:102C10000102909102020E94DE0E63E072E080E009
:102C20000E94C508289A90E080E00F900F90DF91F5
:102C3000CF910895A1E21A2EAA1BBB1BFD010DC066
:102C4000AA1FBB1FEE1FFF1FA217B307E407F5075C
:102C500020F0A21BB30BE40BF50B661F771F881F38
:102C6000991F1A9469F760957095809590959B01CE
:102C7000AC01BD01CF0108950E944716A59F900D9C
:102C8000B49F900DA49F800D911D11240895A29FC3
:102C9000B001B39FC001A39F700D811D1124911D30
:102CA000B29F700D811D1124911D08950F931F93E4
:102CB000CF93DF938230910510F482E090E0E091B1
:102CC0003704F091380420E030E0A0E0B0E0309725
:102CD00019F1408151810281138148175907C8F0C9
:102CE0008417950769F4109731F012960C93129798
:102CF00013961C9327C0009337041093380422C006
:102D00002115310519F04217530718F49A01BD0136
:102D1000EF01DF01F801DBCF21153105F9F0281BA8
:102D2000390B2430310580F48A819B81611571054E
:102D300021F0FB019383828304C090933804809335
:102D40003704FE01329644C0FE01E20FF31F819367
:102D5000919322503109398328833AC02091350458
:102D600030913604232B41F420910301309104016A
:102D700030933604209335042091010130910201F3
:102D80002115310541F42DB73EB740910501509111
:102D90000601241B350BE0913504F0913604E2174F
:102DA000F307A0F42E1B3F0B2817390778F0AC016E
:102DB0004E5F5F4F2417350748F04E0F5F1F50934B
:102DC0003604409335048193919302C0E0E0F0E033
:102DD000CF01DF91CF911F910F910895CF93DF9392
:102DE000009709F481C0FC01329713821282A091EE
:102DF0003704B0913804109781F420813181820F1B
:102E0000931F20913504309136042817390751F566
:102E1000F0933604E093350467C0ED0120E030E024
:102E2000CE17DF0740F44A815B819E0141155105B1
:102E3000F1F0EA01F5CFD383C28340815181840F41
:102E4000951FC817D90759F488819981840F951F58
:102E50000296918380838A819B819383828321154B
:102E6000310529F4F0933804E09337043DC0E901BB
:102E7000FB83EA8349915991C40FD51FEC17FD07D5
:102E800061F480819181840F951F0296E9019983F5
:102E90008883828193819B838A83E0E0F0E01296AD
:102EA0008D919C911397009719F0FD01DC01F7CFEC
:102EB0008D919C9111979D012E5F3F4F820F931F23
:102EC00020913504309136042817390769F430977A
:102ED00029F4109238041092370402C0138212822F
:102EE000B0933604A0933504DF91CF910895F89400
:022EF000FFCF12
:102EF20001000039042000809A90418E418F804564
:102F020045454949498E8F9092924F994F5555594F
:102F1200999A9B9C9D9E9F41494F55A5A5A6A7A8FE
:102F2200A9AAABAC21AEAFB0B1B2B3B4B5B6B7B823
:102F3200B9BABBBCBDBEBFC0C1C2C3C4C5C6C7C887
:102F4200C9CACBCCCDCECFD0D1D2D3D4D5D6D7D877
:102F5200D9DADBDCDDDEDFE0E1E2E3E4E5E6E7E867
:102F6200E9EAEBECEDEEEFF0F1F2F3F4F5F6F7F857
:102F7200F9FAFBFCFDFEFF66696C652E747874003D
:102F82004573736120656820756D61206E6F76618F
:102F9200206C696E6861206D61726F746120646576
:102FA20020746578746F2C20616372657363656E3B
:102FB2007461646120656D20756D2061727175693F
:102FC200766F206D61726F746F210D0A00222A2BB9
:102FD2002C3A3B3C3D3E3F5B5D7C7F00222A2B2C02
:0C2FE2002E3A3B3C3D3E3F5B5D7C7F0097
:00000001FF
