:100000000C9434000C9449000C9449000C94490061
:100010000C9449000C9449000C9449000C9449003C
:100020000C9449000C9449000C9449000C9449002C
:100030000C9449000C9449000C9449000C9449001C
:100040000C9449000C9449000C9449000C9449000C
:100050000C9449000C9449000C9449000C944900FC
:100060000C9449000C94490011241FBECFEFD8E036
:10007000DEBFCDBF11E0A0E0B1E0E2E4F2E002C0FB
:1000800005900D92AE33B107D9F70E94CB000C94C6
:100090001F010C940000442369F022E02093C0006B
:1000A0009B01AC0193E0220F331F441F551F9A950B
:1000B000D1F709C09B01AC0184E0220F331F441F1C
:1000C000551F8A95D1F760E072E18AE790E00E94BF
:1000D000FD00215031093093C5002093C400809168
:1000E000C2008F738093C2008091C2008F7C809386
:1000F000C2008091C200877F8093C2008091C200BD
:100100008B7F8093C2008091C20086608093C20082
:1001100088E18093C10008958091C00087FFFCCFE3
:100120008091C6000895CF92DF92EF92FF921F93C5
:10013000CF93DF931F92CDB7DEB7182F6C018C2DB4
:10014000811B861760F4760169830E948C00F6019A
:1001500081936F0169818D3091F7F70110820F90C3
:10016000DF91CF911F91FF90EF90DF90CF90089596
:100170009091C00095FFFCCF8093C6000895CF9367
:10018000DF93EC018991882319F00E94B800FACF1F
:10019000DF91CF91089541E060E076E980E090E062
:1001A0000E944B00789480E091E00E94BF002FEF06
:1001B00089E698E1215080409040E1F700C00000BE
:1001C00080E191E00E94BF002FEF89E698E1215085
:1001D00080409040E1F700C000008FE191E00E9474
:1001E000BF002FEF89E698E1215080409040E1F771
:1001F00000C0000088E391E0F2CFA1E21A2EAA1B12
:10020000BB1BFD010DC0AA1FBB1FEE1FFF1FA217C6
:10021000B307E407F50720F0A21BB30BE40BF50BC3
:10022000661F771F881F991F1A9469F7609570954C
:10023000809590959B01AC01BD01CF010895F89484
:02024000FFCFEE
:1002420041542B4E414D453D47454953410D0A000E
:1002520041542B505357443D313233340D0A00413F
:10026200542B626C7565746F6F74683D333834302B
:0E027200302C312C300D0A00426565702100E1
:00000001FF
