:100000000C9434000C94D9000C94FF000C94510013
:100010000C9451000C9451000C94AC0A0C945100B7
:100020000C9451000C9451000C9451000C9451000C
:100030000C9451000C9451000C9451000C945100FC
:100040000C9451000C9451000C9451000C945100EC
:100050000C9451000C9451000C9451000C945100DC
:100060000C94E3060C94510011241FBECFEFD8E08E
:10007000DEBFCDBF12E0A0E0B1E0E2EAFDE402C0E5
:1000800005900D92AE35B107D9F725E0AEE5B2E0A7
:1000900001C01D92A235B207E1F70E94CE200C9458
:1000A000CF260C94000085E090E0289A2FEF33ECE7
:1000B00049E0215030404040E1F700C0000028985E
:1000C0002FEF33EC49E0215030404040E1F700C0D1
:1000D0000000019751F70895EF92FF920F931F933D
:1000E000CF93DF9300D000D000D0CDB7DEB77894A7
:1000F000CE0101967C018E010E5F1F4F9E012D5F88
:100100003F4FAE014C5F5F4FBE016B5F7F4F059667
:100110000E941B03F8946A8170E090E080E025E182
:10012000660F771F881F991F2A95D1F72B81822B85
:100130000E8110E030E020E04BE0000F111F221F85
:10014000331F4A95D1F7602B712B822B932B0D8196
:1001500010E030E020E055E0000F111F221F331F98
:100160005A95D1F7602B712B822B932B2C812695DE
:10017000622B098110E00C5B1740012E000C220B52
:10018000330BE9E1000F111F221F331FEA95D1F74E
:10019000602B712B822B932B26960FB6F894DEBF23
:1001A0000FBECDBFDF91CF911F910F91FF90EF90C8
:1001B00008951F920F920FB60F9211242F933F9321
:1001C0004F935F936F937F938F939F93AF93BF935F
:1001D000EF93FF930E9453000E945300FF91EF9111
:1001E000BF91AF919F918F917F916F915F914F914F
:1001F0003F912F910F900FBE0F901F9018951F9257
:100200000F920FB60F9211242F933F934F935F934A
:100210006F937F938F939F93AF93BF93EF93FF93CE
:10022000F8942FEF85EA9EE0215080409040E1F75E
:1002300000C000004B9B16C00E94530081E08093D9
:100240005E02FF91EF91BF91AF919F918F917F914E
:100250006F915F914F913F912F910F900FBE0F9033
:100260001F90189510925E02ECCF6F927F928F9242
:100270009F92AF92BF92CF92DF92EF92FF920F9335
:100280001F93CF93DF93CDB7DEB7CB57D1090FB60E
:10029000F894DEBF0FBECDBF6C014A015B01722E28
:1002A000602E84E0C816D10408F00DC17894DE01F8
:1002B000AA58BF4F7D018E0109581F4F9E01285833
:1002C0003F4FAE0147585F4FBE0166587F4FCE018A
:1002D00085589F4F0E941B03F89468ED72E080E000
:1002E0000E94CB13892B09F0F1C080E290E00E94BC
:1002F000D5229093D7028093D602DF92CF928FEFD0
:1003000091E09F938F93025111091F930F930E94C5
:10031000FF2342E1B8018091D6029091D7020E945A
:10032000E3130F900F900F900F900F900F90892B69
:1003300009F0C1C08091D6029091D702FC0142859C
:10034000538564857585452B462B472BF9F42BE2A5
:10035000E7E0F1E0BE016F5F7F4FDB0101900D929E
:100360002A95E1F7FE01BC9627E0DF011D922A9550
:10037000E9F7FB0101900020E9F73197AF01461B37
:10038000570B9E012C583F4F0E940A188091D602AD
:100390009091D702FC0142855385648575850E9442
:1003A000F019892B09F079C020E030E04AE754E4E5
:1003B000C501B4010E9440220E94E1211F926F9268
:1003C0001F927F92CB0168EE73E00E947D219F9384
:1003D0008F93C501B4010E94E1217F936F93EB9647
:1003E0008FADEB971F928F93EC968FADEC971F928A
:1003F0008F93E7968FADE7971F928F93E8968FAD17
:10040000E8971F928F93E9968FADE9971F928F938C
:100410008BE092E09F938F938E010F5F1F4F1F938E
:100420000F930E94FF23F80101900020E9F7319714
:10043000AF01401B510B9E012C583F4FB8018091DA
:10044000D6029091D7020E940A188091D60290910C
:10045000D7020E94E41968ED72E080E00E94CB139D
:100460000FB6F894DEBF0FBECDBF81E090E0C55857
:10047000DF4F0FB6F894DEBF0FBECDBFDF91CF9137
:100480001F910F91FF90EF90DF90CF90BF90AF90B2
:100490009F908F907F906F9008958091D602909159
:1004A000D7020E94E41968ED72E080E00E94CB134D
:1004B0008DEF9FEFDCCF68ED72E080E00E94CB1300
:1004C0008EEF9FEFD4CF8FEF9FEFD1CF90E080E002
:1004D000CECFEF92FF920F931F93CF93DF93CDB7C1
:1004E000DEB761970FB6F894DEBF0FBECDBF7C01BB
:1004F00089EC90E00E94D5228C0184E0E816F1049A
:1005000008F061C068ED72E080E00E94CB13892B97
:1005100009F05CC080E290E00E94D5229093D7025F
:100520008093D602FF92EF9282E392E09F938F93A3
:10053000FE0131967F01FF93EF930E94FF2341E07C
:10054000B7018091D6029091D7020E94E3130F90D9
:100550000F900F900F900F900F90892B61F59E01D7
:10056000205F3F4F48EC50E0B8018091D602909157
:10057000D7020E94D016888999890097A1F468ED66
:1005800072E080E00E94CB1381E090E061960FB6AC
:10059000F894DEBF0FBECDBFDF91CF911F910F91B9
:1005A000FF90EF900895800F911FFC011082C80109
:1005B0000E94520BD4CF68ED72E080E00E94CB1312
:1005C0008EEF9FEFE3CF8FEF9FEFE0CF90E080E0E3
:1005D000DDCF6AE00E9471218295807F890F0895A6
:1005E000982F92959F708F702AE0929F800D112412
:1005F0000895CF93C82F88E60E9499058C2F0E94FA
:10060000B3050E94A30561E088E60E948C05CF91A6
:100610000C940606CF93DF93C82FD62F88E60E944E
:1006200099058D2F0E94B3058C2F0E94B305DF9191
:10063000CF910C94A3052F923F924F925F926F92AD
:100640007F928F929F92AF92BF92CF92DF92EF9262
:10065000FF920F931F93CF93DF93CDB7DEB7299708
:100660000FB6F894DEBF0FBECDBF5C014B013A015F
:10067000290188E60E94990580E00E94B3050E9446
:10068000A30567E088E60E948C05CE0101966C0107
:100690001E0198E0290E311C0E940606F601819386
:1006A0006F01E215F305C1F70E94A30561147104FF
:1006B00029F089810E94F002F30180838114910462
:1006C00029F08A810E94F002F4018083A114B10410
:1006D00029F08B810E94F002F501808341145104BE
:1006E00029F08D810E94F002F2018083011511052D
:1006F00029F08E810E94F002F8018083E114F10458
:1007000029F08F810E94F002F701808329960FB6AD
:10071000F894DEBF0FBECDBFDF91CF911F910F9137
:10072000FF90EF90DF90CF90BF90AF909F908F9011
:100730007F906F905F904F903F902F900895EF9231
:10074000FF920F931F93CF93DF93D82F162FF42E82
:10075000C22F88E60E94990580E00E94B3058F2D84
:100760000E94E9020E94B305812F0E94E9020E94C3
:10077000B3058D2F0E94E9020E94B30580E00E941C
:10078000B3058C2F0E94E9020E94B305802F0E94BE
:10079000E9020E94B3058E2D0E94E9020E94B30572
:1007A000DF91CF911F910F91FF90EF900C94A305D3
:1007B000FF920F931F93CF93DF938C01EB01FC010A
:1007C0001082188288E60E94990581E10E94B30593
:1007D0000E94A30562E088E60E948C050E94000644
:1007E000882381F00E940606F82E0E940606F80172
:1007F000F082829586958695837099E1899F802DF8
:1008000011248883DF91CF911F910F91FF9008955C
:10081000CF93DF93C82F88E60E9499058EE00E944F
:10082000B3050E94A30561E088E60E948C050E9442
:100830000606D82F88E60E9499058EE00E94B3052F
:100840008D2F80620E94B3050E94A305CC2381F006
:1008500088E60E9499058EE00E94B3050E94A305D8
:1008600061E088E60E948C050E94060685FDF0CFB7
:10087000DF91CF910895CF93C82F88E60E94990504
:100880008EE00E94B3050E94A30561E088E60E9405
:100890008C050E940606CC2379F0C82FCB7FC0645C
:1008A00088E60E9499058EE00E94B3058C2F0E9475
:1008B000B305CF910C94A305C82FCF7BF1CFCF9375
:1008C000C82F88E60E9499058EE00E94B3050E9419
:1008D000A30561E088E60E948C050E940606877EDB
:1008E000C295C07FC82B88E60E9499058EE00E94C1
:1008F000B3058C2F0E94B305CF910C94A305CF9321
:10090000C82F88E60E9499058FE00E94B3050E94D7
:10091000A30561E088E60E948C050E940606CC23B0
:1009200071F0C82FC86088E60E9499058FE00E9488
:10093000B3058C2F0E94B305CF910C94A305C82F4B
:10094000C77FF1CF67E080E00E940A0368E080E0A3
:100950000E940A0369E080E00E940A036AE080E0E6
:100960000C940A03CF93C82F8EE00E94F9026EE028
:10097000CC2321F08560CF910C940A038A7FFBCFB2
:100980000F931F93CF93DF93162F042F683108F036
:1009900042C04C3308F03FC02C33E8F5C82FD0E0FC
:1009A000822F0E94E9029E013695322F2227379529
:1009B000279567E0822B0E940A03802F0E94E9029C
:1009C0009E01359527953695322F22273795279505
:1009D00068E0822B0E940A03812F0E94E902D595CC
:1009E000C795D595C795D695DC2FCC27D795C795B4
:1009F00069E08C2B0E940A036AE080E80E940A03E7
:100A00008FE00E94F9026FE08E7FDF91CF911F91FE
:100A10000F910C940A03DF91CF911F910F910895CC
:100A2000EF92FF920F931F93CF93DF93EC018B0113
:100A30007A0187E00E94F9028F770E94F002F701A5
:100A4000808388E00E94F9028F770E94F002F8010B
:100A5000808389E00E94F9028F770E94F0028883E8
:100A6000DF91CF911F910F91FF90EF900895CF9359
:100A70008FE00E94F902C82FC17080FF04C06FE0B0
:100A80008E7F0E940A038C2FCF910895AC01E091D4
:100A90004C05F0914D053097E1F090916402809102
:100AA00063029817B0F090E0292F30E0261737073F
:100AB00054F4DA01A20FB31F8C91D901A45FBA4F8D
:100AC0008C939F5FF1CF1092640260936302CB011D
:100AD00009940895E0910A05F0910B05309729F0EB
:100AE00010926102109260020994089510926402BB
:100AF0001092630210926102109260020C9421061F
:100B00000E9434068AE695E00E94C60686E495E0D7
:100B10000E94C1060C947605462F613208F040E22F
:100B20006CE075E00E9438061092640280936302C4
:100B3000089591E090935F028093620210926102A7
:100B400010926002089521E0409160026CE275E02D
:100B5000809162020E946906109261021092600206
:100B600010925F020895CF93DF931F92CDB7DEB747
:100B7000898380915F02882391F0809160028032A6
:100B800098F480916102E82FF0E0E45DFA4F9981DA
:100B900090838F5F809361028093600205C061E063
:100BA000CE0101960E94A8060F90DF91CF91089583
:100BB0000F931F93CF93DF9320915F02222359F06D
:100BC000162F082FEC018C2F801B811750F4899170
:100BD0000E94B305F8CFDF91CF911F910F910C9434
:100BE000A806DF91CF911F910F910895FC0101900C
:100BF0000020E9F73197BF01681B790B0C94D805E9
:100C00008091630290916402891B0895909164021F
:100C100080916302981748F4E92FF0E0E45FFA4FFF
:100C200080819F5F90936402089580E0089590937F
:100C30004D0580934C05089590930B0580930A050C
:100C400008951092D002449A459AE9EBF0E0808131
:100C50008E7F808380818D7F808388E48093B8003D
:100C600085E48093BC000895880F8093BA000895AE
:100C7000413268F59091D0029111FCCF91E09093B0
:100C8000D0029FEF909365021092AA02940F909366
:100C9000A902880F81608093CF0285EE8093BC000B
:100CA0008091D0028130E1F38091AA02841710F480
:100CB0004091AA022BEA32E0FB01D9018A2F821B64
:100CC000841718F48D918193F9CF842F089580E0D3
:100CD00008954132B0F59091D0029111FCCF32E0ED
:100CE0003093D0023FEF309365021092AA024093F6
:100CF000A902FB016BEA72E0DB013A2F361B3417C5
:100D000018F431913D93F9CF482F50E0440F551F0F
:100D10004093CF0285EE8093BC00222321F0809186
:100D2000D0028230D1F3809165028F3F79F08091BB
:100D30006502803241F080916502803331F094E0A9
:100D400005C091E003C092E001C093E0892F0895AF
:100D5000613298F42091D002243089F460938702A4
:100D6000FC0129E832E0D9018A2F821B861718F48A
:100D700081918D93F9CF80E0089581E0089582E01C
:100D800008959093CC028093CB0208959093CE0265
:100D90008093CD020895882311F085EC01C085E889
:100DA0008093BC00089585ED8093BC008091BC00C9
:100DB00084FDFCCF1092D002089585EC8093BC0096
:100DC0001092D00208951F920F920FB60F92112425
:100DD0002F933F934F935F936F937F938F939F9343
:100DE000AF93BF93EF93FF938091B900887F8036D4
:100DF00009F495C068F5883209F45BC090F480313D
:100E000009F454C038F4882309F4EEC0883009F49A
:100E10004DC0EEC0883109F44CC0803209F45EC088
:100E2000E7C0803409F469C048F4803309F456C03F
:100E3000883309F0DDC080936502A1C0803509F4D4
:100E400050C0883509F45EC0883409F0D1C0CEC0E6
:100E5000883909F4BFC0A8F4883709F460C038F4B1
:100E6000883609F45CC0803709F459C0C1C088389D
:100E700009F4B0C0803909F458C0803809F0B8C00E
:100E800054C0803B09F47EC038F4803A09F45FC056
:100E9000883A09F477C0ACC0803C09F49FC0883C14
:100EA00009F49CC0883B09F482C0A2C08091CF02A3
:100EB00011C09091AA028091A902981708F096C0DB
:100EC000E091AA0281E08E0F8093AA02F0E0E5553E
:100ED000FD4F80818093BB0085EC7DC080936502CF
:100EE00085C0E091AA0281E08E0F8093AA028091D2
:100EF000BB00F0E0E555FD4F80839091AA02809100
:100F0000A90265C0E091AA0281E08E0F8093AA0237
:100F10008091BB00F0E0E555FD4F808367C083E022
:100F20008093D00210926602D7CF80916602803201
:100F300008F050C0E091660281E08E0F8093660257
:100F40008091BB00F0E0E959FD4F8083C5CF8091CF
:100F50006602803230F4E0916602F0E0E959FD4F1C
:100F600010820E94D3066091660270E0E091CB028D
:100F7000F091CC0287E692E00995109266020E94F9
:100F8000DD0636C084E08093D00210928802109271
:100F90008702E091CD02F091CE02099580918702FF
:100FA000811105C081E08093870210928902E0914F
:100FB000880281E08E0F80938802F0E0E757FD4FB2
:100FC00080818093BB00909188028091870298175E
:100FD00008F482CF85E88093BC000AC085EC80933A
:100FE000BC001092D00204C0109265020E94D30689
:100FF000FF91EF91BF91AF919F918F917F916F91F1
:101000005F914F913F912F910F900FBE0F901F90C6
:101010001895AF92BF92CF92DF92EF92FF920F930B
:101020001F93F9014115510511F52091B10021FFE0
:1010300002C034E001C030E02091B10020FD3260F8
:101040002091B1002091B1002B7F2093B10020911D
:10105000B1002D7F2093B1002091B1002E7F20930D
:10106000B1002091640020642093640001C030E04E
:101070006115710551F420917A002F7720937A0041
:1010800020916400216020936400309729F420911E
:1010900064002860209364000115110529F4209153
:1010A0006400206220936400E114F10429F420918B
:1010B0006400246020936400C114D10429F42091B9
:1010C0006400226020936400A114B10429F42091EB
:1010D00064002068209364008A309105A9F083FDA4
:1010E00002C028E001C028E28770822B98E10FB689
:1010F000F894A895909360000FBE80936000809153
:10110000600080648093600083B7817F83BFF89420
:1011100083B7816083BF7894889583B78E7F83BFC0
:101120007894672B51F4809164008E7F80936400E3
:1011300080917A00806880937A00452B61F431FFBA
:1011400005C08091B10084608093B10080916400FB
:101150008F7B80936400EF2B29F480916400877F5C
:1011600080936400012B29F4809164008F7D80932B
:101170006400EF2829F4809164008B7F80936400E1
:10118000CD2829F4809164008D7F80936400AB2882
:1011900029F4809164008F77809364001F910F91F0
:1011A000FF90EF90DF90CF90BF90AF9008954115E2
:1011B0005105C1F42091B10021FF02C024E001C01B
:1011C00020E03091B10030FD2260E1EBF0E03081B1
:1011D00030813B7F308330813D7F308330813E7F63
:1011E000308301C020E06115710529F4EAE7F0E0E1
:1011F00030813F7730838A309105A9F083FD02C0AA
:1012000038E001C038E28770832B98E10FB6F8947C
:10121000A895909360000FBE80936000E0E6F0E038
:1012200080818064808383B7817F826083BFF894EC
:1012300083B7816083BF7894889583B78E7F83BF9F
:101240007894672B29F4EAE7F0E080818068808356
:10125000452B39F421FF05C0E1EBF0E0808184608B
:10126000808308956115710529F4EAE7F0E0208193
:101270002F7720838A309105A9F083FD02C028E0F2
:1012800001C028E28770822B98E10FB6F894A895E8
:10129000909360000FBE80936000E0E6F0E08081F4
:1012A00080648083452BA1F483B7817F846083BFF2
:1012B000F89483B7816083BF85B7806685BF8F7DD3
:1012C00085BF7894889583B78E7F83BF78940EC04E
:1012D00083B7817F846083BFF89483B7816083BFC5
:1012E0007894889583B78E7F83BF7894672B29F491
:1012F000EAE7F0E08081806880830895DA012115B3
:101300003105C1F44091B10041FF02C054E001C079
:1013100050E04091B10040FD5260E1EBF0E04081CF
:1013200040814B7F408340814D7F408340814E7F91
:10133000408301C050E06115710529F4EAE7F0E04F
:1013400040814F7740838A309105A9F083FD02C028
:1013500048E001C048E28770842B98E10FB6F8940A
:10136000A895909360000FBE80936000E0E6F0E0E7
:10137000808180648083AB2BA1F483B7817F8660FA
:1013800083BFF89483B7816083BF85B7806685BFCC
:101390008F7D85BF7894889583B78E7F83BF78943F
:1013A0000EC083B7817F866083BFF89483B7816066
:1013B00083BF7894889583B78E7F83BF7894672B9B
:1013C00029F4EAE7F0E0808180688083232B39F4F8
:1013D00051FF05C0E1EBF0E08081846080830895D7
:1013E0006115710529F4EAE7F0E020812F77208369
:1013F0008A309105A9F083FD02C028E001C028E2EF
:101400008770822B98E10FB6F894A89590936000AE
:101410000FBE80936000E0E6F0E08081806480830E
:10142000452BA1F483B7817F8C6083BFF89483B789
:10143000816083BF85B7806685BF8F7D85BF7894C7
:10144000889583B78E7F83BF78940EC083B7817FE2
:101450008C6083BFF89483B7816083BF789488954C
:1014600083B78E7F83BF7894672B29F4EAE7F0E097
:101470008081806880830895DA0121153105C1F4E7
:101480004091B10041FF02C054E001C050E04091E2
:10149000B10040FD5260E1EBF0E0408140814B7FC4
:1014A000408340814D7F408340814E7F408301C017
:1014B00050E06115710529F4EAE7F0E040814F77CB
:1014C00040838A309105A9F083FD02C048E001C045
:1014D00048E28770842B98E10FB6F894A895909312
:1014E00060000FBE80936000E0E6F0E080818064E1
:1014F0008083AB2B99F483B78E6083BFF89483B756
:10150000816083BF85B7806685BF8F7D85BF7894F6
:10151000889583B78E7F83BF78940DC083B78E6024
:1015200083BFF89483B7816083BF7894889583B72D
:101530008E7F83BF7894672B29F4EAE7F0E08081FF
:1015400080688083232B39F451FF05C0E1EBF0E084
:1015500080818460808308951F920F920FB60F924E
:1015600011248F930FB6F894A8958091600088613C
:1015700080936000109260000FBE8F910F900FBE9D
:101580000F901F9018954423A9F122E02093C000EA
:101590009B01AC0193E0220F331F441F551F9A9506
:1015A000D1F760E074E284EF90E00E949121215035
:1015B00031093093C5002093C4008091C2008F731D
:1015C0008093C2008091C2008F7C8093C200809182
:1015D000C200877F8093C2008091C2008B7F80937E
:1015E000C2008091C20086608093C20088E180932F
:1015F000C10008959B01AC0184E0220F331F441FFA
:10160000551F8A95D1F7CDCF8091C00087FFFCCFC1
:101610008091C6000895FC0191E001C0990F6A9580
:10162000EAF720812923411108C039F02091C00038
:1016300027FFF7CF8091C600089588E10895CF92E3
:10164000DF92EF92FF920F931F93CF93DF936A0184
:10165000122FEC017C01E60EF11CCE15DF0561F0C6
:10166000402F612FC6010E940B0B883191F0FE01C3
:1016700089938D3059F4108280E0DF91CF911F91D2
:101680000F91FF90EF90DF90CF9008958A3029F767
:10169000F2CF81E0F2CF9091C00095FFFCCF809314
:1016A000C6000895CF93DF93EC018991811103C0A7
:1016B000DF91CF9108950E944B0BF7CFCF93DF932B
:1016C000DB01FC019A012230310580F49A012E7F62
:1016D000820F931F620F731F4217530721F0FB0104
:1016E0002081FC012083DF91CF910895CD91DD9180
:1016F000C193D19322503109E6CF0097C9F0DC01A4
:10170000ED91FC911197309799F02081222381F07F
:101710002681378112968D919C912817390741F4C3
:1017200081810E94BE1E80FD06C090E080E0089589
:1017300089E090E0089583E090E008950F93CF93BF
:10174000DF93EC019A01AB01BC016E5C7F4F01E0BD
:1017500089810E94691F892B19F5FE01E05DFD4F0B
:101760008081918185359A4A01F5E85CF14080815C
:101770009181A281B381BB2786349144A445B105F0
:1017800069F0CC57DF4F488159816A817B81772787
:1017900081E0463451446445710519F480E001C08C
:1017A00083E0DF91CF910F91089582E0FACF2F92DD
:1017B0003F924F925F926F927F928F929F92AF92E1
:1017C000BF92CF92DF92EF92FF920F931F93CF932E
:1017D000DF93CDB7DEB72E970FB6F894DEBF0FBEFE
:1017E000CDBFDB01142FFC0160817181FB012081E1
:1017F000022E000C330B205331092A30310580F4BE
:1018000041814A3369F46E5F7F4FFC0171836083CD
:1018100011961C921E92232B31F08BE090E021C098
:1018200011961C921E922091D3023091D4023E87D1
:101830002D878CE090E02115310599F02D933C9394
:10184000D9018C91882331F111968C910E94BE1E92
:1018500080FD20C0112309F4DDC182FFDBC18AE0D5
:1018600090E02E960FB6F894DEBF0FBECDBFDF918D
:10187000CF911F910F91FF90EF90DF90CF90BF908D
:10188000AF909F908F907F906F905F904F903F9020
:101890002F900895ED85FE851082118280E00E94D0
:1018A000C51E80FDE6C1112311F082FDD8CF40E0B6
:1018B00050E0BA018D859E850E949E0B412C512CD3
:1018C00032018130C1F4ED85FE85EC50FE4F808100
:1018D000811103C08DE090E0C4CFED85FE85E85016
:1018E000FE4F4080518062807380B301A2018D85DC
:1018F0009E850E949E0B833009F4BEC18111EACF00
:10190000AD85BE85DD968D919C918115924011F734
:10191000ED85FE85E85BFF4F80809180B12CA12C86
:1019200081149104A104B10441F4ED85FE85EA5AC5
:10193000FF4F80809180A280B380ED85FE85828EEE
:10194000938EA48EB58EEE5BFF4FA081ED85FE8554
:10195000A3838FEF8A0F823008F0BCCF17AD1283BC
:10196000112309F4B7CF212F30E0C901019781235A
:101970009323892B09F0AECFED5BFF4F20803180A0
:10198000ED85FE8531862086C1018F709927892BD0
:1019900009F0A0CFEB5BFF4FC080D180F12CE12C90
:1019A000C114D104E104F10441F4ED85FE85EE5A41
:1019B000FF4FC080D180E280F380ED85FE85E05C42
:1019C000FF4F0190F081E02D309709F483CFB0E014
:1019D000A50194010E94B32169877A878B879C8730
:1019E0009F0150E040E02D833E834F835887C10123
:1019F00064E0969587956A95E1F7BA01AF01480FC3
:101A0000591F611D711D89859A85AB85BC85840F21
:101A1000951FA61FB71F89839A83AB83BC83C81603
:101A2000D906EA06FB0608F455CFC701B60129819D
:101A30003A814B815C81621B730B840B950B212FC8
:101A400030E050E040E00E94912121153105410530
:101A5000510509F43FCF12E0263F8FE038074105DA
:101A6000510508F411E0263F9FEF39074105510564
:101A700008F013E069017A01A2E0CA0ED11CE11C52
:101A8000F11CED85FE85C68AD78AE08EF18E468EE2
:101A9000578E60A271A28D819E81AF81B885840D21
:101AA000951DA61DB71D82A393A3A4A3B5A3498129
:101AB0005A816B817C81440D551D661D771D42A79F
:101AC00053A764A775A7133009F0A7C0232809F00E
:101AD00001CFE25AFF4F80819181A281B381ED85D0
:101AE000FE8586A397A3A0A7B1A742E0CC0CDD1C7E
:101AF000EE1CFF1C4A95D1F72FEFC20E21E0D21E3B
:101B0000E11CF11C89E0F694E794D794C7948A9578
:101B1000D1F78C149D04AE04BF0408F4DBCE8FEF24
:101B20009FEFDC01ED85FE8586879787A08BB18BC3
:101B3000DF011286138614861586133009F054C00F
:101B40001582EE59FF4F80819181A3019201280FE8
:101B5000391F411D511DFD01228B338B448B558B49
:101B600001E0BD016E5C7F4F81810E94691F892B5E
:101B7000D9F5ED85FE85E05DFD4F8081918185354C
:101B80009A4A91F5ED85FE8582A993A9A4A9B5A9E4
:101B900082359245A146B14439F5ED85FE85EA5E70
:101BA000FD4F80819181A281B38182379247A14408
:101BB000B146D1F4ED85FE85E25EFD4F80819181D5
:101BC000A281B381ED85FE8582879387A487B5873F
:101BD000E65EFD4F80819181A281B381ED85FE8516
:101BE00086879787A08BB18BAD85BE851C9380912E
:101BF000D1029091D20201969093D2028093D102A9
:101C000017969C938E931697FD0116A617A610AAF9
:101C100011AA148290E080E024CE232809F45ACE41
:101C200029853A854B855C85820F931FA41FB51FBC
:101C3000ED85FE8586A397A3A0A7B1A7123029F44E
:101C4000CC0CDD1CEE1CFF1C57CFA3E0B0E0A701BD
:101C500096010E94B3219695879577956795F1E057
:101C6000CF22DD24EE24FF24C60ED71EE81EF91E67
:101C700043CF83E090E0F5CD81E090E0F2CD8F920C
:101C80009F92AF92BF92CF92DF92EF92FF920F930B
:101C9000CF93DF93EC018C81882309F441C0CEA45B
:101CA000DFA4E8A8F9A84E0182E3880E911C01E0A8
:101CB000A7019601B40189810E94BB1F892BF1F510
:101CC0001C828AA19BA1ACA1BDA1C816D906EA06B7
:101CD000FB0630F14A8D5B8D6C8D7D8D840F951FD9
:101CE000A61FB71FC816D906EA06FB06C8F4AB80C4
:101CF000B12C82E0A816B10498F08A8D9B8DAC8D32
:101D0000BD8DC80ED91EEA1EFB1E01E0A70196017B
:101D1000B40189810E94BB1F81E0A81AB108E9CFF4
:101D200090E080E0DF91CF910F91FF90EF90DF90F6
:101D3000CF90BF90AF909F908F90089581E090E0FA
:101D4000F1CFCF92DF92EF92FF920F93CF93DF9379
:101D5000EC016A017B018EA59FA5A8A9B9A98C15E4
:101D60009D05AE05BF05F1F0CE010E943F0E892B07
:101D700051F081E090E0DF91CF910F91FF90EF90D3
:101D8000DF90CF90089501E0A7019601BE016E5C3F
:101D90007F4F89810E94691F892B59F7CEA6DFA644
:101DA000E8AAF9AA90E080E0E6CF0F93CF93DF9303
:101DB000EC010E943F0E009709F058C088818330E3
:101DC00009F047C08D81882309F443C01EA61FA6D1
:101DD00018AA19AABE016E5C7F4FFB01CE018E5C72
:101DE0009D4FE817F90711F01192FBCF85E59AEAAC
:101DF000FE01E05DFD4F9183808382E592E5A1E6DF
:101E0000B1E48AAB9BABACABBDAB82E792E7A1E49C
:101E1000B1E67A9780839183A283B3838E859F8571
:101E2000A889B989349680839183A283B3838A85F4
:101E30009B85AC85BD85349680839183A283B383D3
:101E40002A893B894C895D8901E089810E94BB1FF9
:101E50001D8250E040E060E089810E94212031E055
:101E600020E0892B09F430E0832F922FDF91CF916E
:101E70000F9108950F931F93FC019A01AB0122501B
:101E800031094109510986899789A08DB18D029741
:101E9000A109B109281739074A075B0778F4A2811D
:101EA000B0E00E94B32102A513A524A535A5600FBB
:101EB000711F821F931F1F910F91089560E070E0C2
:101EC000CB01F9CFBF92CF92DF92EF92FF920F93A7
:101ED0001F93CF93DF93EC016A017B0182E0C81668
:101EE000D104E104F10408F4ABC08E899F89A88D68
:101EF000B98DC816D906EA06FB0608F0A1C088818C
:101F0000823009F452C0833009F470C08130B1F4DA
:101F10008A0116950795040F151FC801892F992767
:101F200086954AA15BA16CA17DA1480F591F611D37
:101F3000711DCE010E94A10E892B21F06FEF7FEF62
:101F4000CB0127C0F801F170EC0FFD1FB2A80F5FA5
:101F50001F4FC801892F992786954AA15BA16CA1C3
:101F60007DA1480F591F611D711DCE010E94A10E58
:101F7000892B21F71170C00FD11F6AA9762F6B2D05
:101F8000C0FE11C054E0769567955A95E1F790E050
:101F900080E0DF91CF911F910F91FF90EF90DF9044
:101FA000CF90BF9008957F70F2CF77276F2D5E2D71
:101FB0004D2D8AA19BA1ACA1BDA1480F591F6A1F3D
:101FC0007B1FCE010E94A10E892B09F0B7CFCC0C4C
:101FD000DD1CEE1CFF1CE894C0F881E0D822EE2442
:101FE000FF24CC0DDD1D6AA97BA9D1CF8AA19BA1BD
:101FF000ACA1BDA127E076956795579547952A95A1
:10200000D1F7480F591F6A1F7B1FCE010E94A10EF6
:10201000892B09F093CF82E0CC0CDD1CEE1CFF1C59
:102020008A95D1F78CEFC82281E0D822EE24FF24D4
:10203000CC0DDD1D6AA97BA98CA99DA99F70A9CF94
:1020400061E070E080E090E0A4CF0F931F93CF9306
:10205000DF93EC011D821C824E815F81688579854A
:10206000413051056105710539F482E090E0DF915E
:10207000CF911F910F910895E881F9818689978901
:10208000A08DB18D481759076A077B0770F7411576
:1020900051056105710521F58081833049F446A120
:1020A00057A160A571A54115510561057105C1F4E0
:1020B0001A861B861C861D8680859185892BA9F230
:1020C00086A197A1A0A5B1A58E879F87A88BB98B64
:1020D00088819981C2969B8B8A8B90E080E0C7CFE4
:1020E000028180E1089F8001112488819981011576
:1020F0001105E1F40E94620FAB01BC014F3F8FEF6D
:10210000580768077807E9F0423051056105710505
:1021100008F4ABCFE881F98186899789A08DB18DCC
:10212000481759076A077B0700F39FCF4A875B87E9
:102130006C877D870E943A0F6E877F87888B998B8B
:10214000C7CF81E090E093CF4F925F926F927F92E2
:102150008F929F92AF92BF92CF92DF92EF92FF92B7
:102160000F931F93CF93DF93EC016A017B0148012A
:10217000590122E0C216D104E104F10408F4DCC0E4
:102180008E899F89A88DB98DC816D906EA06FB06E7
:1021900008F0D2C08881823009F471C0833009F41C
:1021A0008FC0813009F0C5C08A0116950795040FCC
:1021B000151FC801892F992786954AA15BA16CA19B
:1021C0007DA1480F591F611D711DCE010E94A10EF6
:1021D0000097D9F5882DF801F170EC0FFD1F26014D
:1021E000370131E04322552466247724C0FE07C01E
:1021F00082A98F7090E1899E90011124822B82AB7D
:102200000F5F1F4F81E08C83C801892F9927869526
:102210004AA15BA16CA17DA1480F591F611D711DD1
:10222000CE010E94A10E009781F41170FE01E00F13
:10223000F11F452846284728D9F064E0B694A794B2
:10224000979487946A95D1F782AA21E02C83DF9135
:10225000CF911F910F91FF90EF90DF90CF90BF90A3
:10226000AF909F908F907F906F905F904F90089568
:1022700022A9207F392D3F70832E822AE5CF772730
:102280006F2D5E2D4D2D8AA19BA1ACA1BDA1480F44
:10229000591F6A1F7B1FCE010E94A10E0097A9F64D
:1022A000CC0CDD1CEE1CFF1CE894C0F8E1E0DE2243
:1022B000EE24FF24CC0EDD1EF60113AB02ABC5CF1E
:1022C0008AA19BA1ACA1BDA137E0769567955795F2
:1022D00047953A95D1F7480F591F6A1F7B1FCE01CA
:1022E0000E94A10E009709F0B0CF22E0CC0CDD1CBB
:1022F000EE1CFF1C2A95D1F7FCEFCF22F1E0DF2284
:10230000EE24FF2422E3C20ED11CFE01EC0DFD1DC4
:102310004081518162817381442755276627707FF0
:10232000842A952AA62AB72A80829182A282B38221
:102330008CCF82E090E089CF82E090E088CF4F920E
:102340005F926F927F928F929F92AF92BF92CF9245
:10235000DF92EF92FF920F931F93CF93DF93EC01E5
:102360002A013B01411451046104710471F58A840E
:102370009B84AC84BD8481149104A104B10409F44C
:102380004DC08E899F89A88DB98D88169906AA0699
:10239000BB0608F043C0750164018FEFC81AD80A64
:1023A000E80AF80A8E899F89A88DB98DC816D906C2
:1023B000EA06FB06E8F122E082169104A104B104CA
:1023C00090F5C12CD12C760116C00E94620F6B01D2
:1023D0007C0122E0C216D104E104F10408F47EC0BD
:1023E0008E899F89A88DB98D53014201C816D906DF
:1023F000EA06FB0680F6C701B601DF91CF911F9177
:102400000F91FF90EF90DF90CF90BF90AF909F9093
:102410008F907F906F905F904F900895812C912CBA
:1024200054018394B8CF22E0C22ED12CE12CF12CA0
:10243000B701A601CE010E94620F611571058105E9
:102440009105B9F06F3F2FEF72078207920729F4C9
:10245000CC24CA94DC2C7601CECF61307105810585
:102460009105E1F1C814D904EA04FB0409F095CF01
:10247000A8CF0FEF1FEF2FEF3FE0B701A601CE016E
:102480000E94A410009739F54114510461047104AD
:10249000C9F4CA86DB86EC86FD868E859F85A88971
:1024A000B9898F3F2FEF9207A207B20709F4A3CF94
:1024B0000197A109B1098E879F87A88BB98B81E00D
:1024C0008D8399CF97018601B301A201CE010E94AD
:1024D000A4100097F1F2019709F4BACFC12CD12CC6
:1024E0007601C39488CF8F929F92AF92BF92CF9282
:1024F000DF92EF92FF920F931F93CF93DF93EC0144
:102500006B010C811D810F5F1F4F79F484E090E017
:10251000DF91CF911F910F91FF90EF90DF90CF90BF
:10252000BF90AF909F908F9008954E855F8568898A
:102530007989411551056105710541F378018FE0F5
:10254000E822FF24E114F104C9F4888199814F5FE6
:102550005F4F6F4F7F4F4E875F87688B798B4A85C0
:102560005B856C857D85FC01411551056105710513
:10257000B1F4808591850817190740F61D830C83F7
:1025800088819981C29625E0EE0CFF1C2A95E1F71F
:10259000E80EF91EFB8AEA8A90E080E0B9CF22813A
:1025A0002150330BF801A4E0F695E795AA95E1F7E1
:1025B0002E233F23232B11F70E94620F4B015C0156
:1025C000F2E08F169104A104B10418F482E090E0C7
:1025D0009FCF8FEF88169806A806B80619F481E0F9
:1025E00090E096CF88819981FC0146895789608D5A
:1025F000718D84169506A606B70608F467C0CD2827
:1026000009F484CF4A855B856C857D850E949F1186
:102610004B015C0187E090E081149104A104B104B6
:1026200009F476CFF1E08F169104A104B10471F2A0
:102630008FEF88169806A806B80689F288819981D6
:102640000E943F0E892B59F688819981FC01F296F0
:102650008E5C9D4FE817F90711F01192FBCFC880EF
:10266000D980B501A401C6010E943A0FF60166A700
:1026700077A780AB91ABD12CCC24C394E881F981AE
:102680008281D816B8F4C482888199810E943F0E55
:10269000892B09F0A4CFE881F98186A597A5A0A987
:1026A000B1A90196A11DB11D86A797A7A0ABB1AB9B
:1026B000D394E4CF86A597A5A0A9B1A98D199109B6
:1026C000A109B10986A797A7A0ABB1AB8A869B8663
:1026D000AC86BD86B501A401888199810E943A0F1C
:1026E0006E877F87888B998B49CFCF93DF93EC01DF
:1026F00084E090E04E855F856889798941155105B0
:102700006105710521F1888199810E94A10E0097D0
:10271000C9F4EA89FB8980818823E1F0853E59F07C
:102720008E3249F083858F73883029F490E080E001
:10273000DF91CF91089570E060E0CE010E947312A6
:102740000097C1F21E861F86188A198AF1CF00975A
:1027500069F3F8CF84E090E0F5CFCF93DF93EC01FD
:102760004E855F8568897989888199810E94A10E4B
:10277000009771F4EA89FB892081253E49F02223E4
:1027800039F061E070E0CE010E947312009741F3CE
:10279000DF91CF910895811113C0E091D302F091A0
:1027A000D402309709F010826115710511F0FB0118
:1027B00010827093D4026093D30290E080E0089579
:1027C0008BE090E008952F923F924F925F926F922C
:1027D0007F928F929F92AF92BF92CF92DF92EF92B1
:1027E000FF920F931F93CF93DF93CDB7DEB7AF97D1
:1027F0000FB6F894DEBF0FBECDBF3C017CA36BA328
:10280000142F49E0242E312C009709F4B2C1DC01C9
:102810001D921C92412F4E71BE016F5F7F4FCE0102
:1028200083960E94D70B1C01892B09F0A2C1CE010F
:1028300047969E8B8D8BEBA0FCA0F70180818F3299
:1028400011F08C3519F4FFEFEF1AFF0A1F8218867A
:1028500019861A86D7018C918F31E1F0D8F080E289
:10286000882E95E0992EFEA2EDA2CDA0DEA0D60185
:102870008D918F3209F18C35F9F0AD89BE89CD018A
:102880009D01255F3F4F82179307C9F0FC0181929C
:10289000CF01F9CFCE0101960E9425101C8A1B8A18
:1028A0004B885C88009709F0B1C04114510409F0CD
:1028B000ADC086E090E0AAC0BEA3ADA3D6CF90E0A5
:1028C00080E0F12CE12C28E030E000E0FFEFEF1A8F
:1028D000FF0AEDA1FEA14191FEA3EDA3542F4132C9
:1028E000D0F14F32C1F14C35B1F14E3219F08217AF
:1028F000930770F02830310509F0DCC04E3209F042
:10290000D9C0000F000F88E090E02BE030E0DECF70
:1029100047FF06C0036050E047545F4FFA01508103
:10292000A52EB12C6EE372E0FB014191BF0144235F
:1029300009F429C2442E440F5508A414B504A1F784
:102940004B885C88B6CF0260BD01680F791FFB0120
:1029500050830196BBCFEC0CFD1C413208F045C002
:1029600044E0892B09F4A6C08C91853E09F49C9221
:102970002830310511F4000F000F802F8370813053
:1029800009F440610C70043009F448601B964C93C4
:10299000CE0101960E942510009759F54F85588960
:1029A00069897A8989819A810E94A10E009709F527
:1029B000AB89BC892C912223D1F01B962C911B97BB
:1029C00023FD0CC0ED89FE89AF01455F5F4FE41721
:1029D000F50779F03D9121913217C9F370E060E07D
:1029E000CE0101960E947312D7CF40E0BACF84E0A7
:1029F00090E0ED89FE8923854B885C880097B1F1D2
:102A00008430910509F04CCF22FF5AC0B12FBF711D
:102A1000BFA3212F2C7109F436C1009709F4C3C05C
:102A20008430910509F0ADC1CE0101960E942510B8
:102A3000009709F0A6C1CE0101960E94AD13009740
:102A400009F09FC14F85588969897A8989819A815E
:102A50000E94A10E009709F094C1EB89FC89CF0177
:102A600080968E179F0779F11192FBCF22FD18CF28
:102A7000D2011B968C911B9784FF1FC05A964D91D3
:102A80005C915B9770E060E0E981FA81808183303E
:102A900061F454968D919C91B0E0A0E0DC019927FF
:102AA0008827482B592B6A2B7B2B4F8358876987A4
:102AB0007A87D9CE86E090E0F3CE85E090E0F0CE44
:102AC00085E090E0A3CF6D897E894BE050E08B8953
:102AD0009C890E945E0BE981FA8181E08483EFA1E9
:102AE000E860EFA34B885C88BFA1B3FFD8C00E9409
:102AF0006C00F20166877787808B918B1386D201F9
:102B0000148E158E168E178EE981FA81FEA3EDA321
:102B10005A96CD90DC905B97F12CE12C808183302C
:102B200061F454968D919C91B0E0A0E0DC0199276E
:102B30008827C82AD92AEA2AFB2AD2015B961C9246
:102B40001E925A9755961C921E92549781E0EDA1C1
:102B5000FEA18483C114D104E104F10409F49FC0EF
:102B6000F1E0CF16D104E104F10449F5F2E02F2E93
:102B7000312CC101AF960FB6F894DEBF0FBECDBFAA
:102B8000DF91CF911F910F91FF90EF90DF90CF9049
:102B9000BF90AF909F908F907F906F905F904F907D
:102BA0003F902F900895D2011B968C91817109F06E
:102BB000CEC012FF99CF38E0232E312CDACFEDA111
:102BC000FEA186899789A08DB18DC816D906EA061F
:102BD000FB0660F686A597A5A0A9B1A98CA79DA71D
:102BE000AEA7BFA746015701EDA1FEA1868997892F
:102BF000A08DB18D88169906AA06BB0608F0ABC059
:102C0000B501A401CF010E94620F68A779A78AA726
:102C10009BA7611571058105910509F49CC0613080
:102C200071058105910509F4A1CF6F3F7F4F8F4F4B
:102C30009F4F09F484C000E010E09801B501A401A1
:102C40008DA19EA10E94A410009709F09AC0EDA149
:102C5000FEA186859785A089B1898F3FFFEF9F07E9
:102C6000AF07BF0759F00196A11DB11DEDA1FEA14F
:102C700086879787A08BB18B21E0258388A499A4B0
:102C8000AAA4BBA4B1CF009709F07BC0D2011B96C8
:102C90008C9184FD58C011FF02C080FD58C0BFA1B7
:102CA000B3FF02C0B062BFA309811A81F80146A533
:102CB00057A560A971A9D3015A964D935D936D9361
:102CC0007C935D975F965C924E925E97EFA114960F
:102CD000EC93D2015A968D919C91B0E0A0E0F8015E
:102CE0002081233061F4F2014489558970E060E06D
:102CF000BA0155274427842B952BA62BB72BF3011C
:102D000086879787A08BB18BF201848D958DA68DD8
:102D1000B78DF30182879387A487B58716821782C0
:102D200010861186168A178A108E118E11830083E1
:102D3000D80116968D919C91938382831ACF222479
:102D40002394312C16CF94E0292E312C12CF87E01A
:102D5000282E312C0ECF89819A81B701A6014150CE
:102D6000510961097109FC0142875387648775879E
:102D70004CA55DA56EA57FA50E94A10E009709F444
:102D80008ECF1C01F6CE4FEB450F4A3108F4DBCD58
:102D90004FE9450F4A3108F0D7CD01605052D4CDEC
:102DA0002F923F924F925F926F927F928F929F925B
:102DB000AF92BF92CF92DF92EF92FF920F931F9349
:102DC000CF93DF93EC015B016A011901F9011182D4
:102DD00010820E947D0B009709F062C08C8187FDF4
:102DE0004AC080FF11C18A859B85AC85BD854E8117
:102DF0005F8168857985841B950BA60BB70BA601AF
:102E000070E060E084179507A607B70708F46C0127
:102E1000C114D10409F4FBC04E815F8168857985B6
:102E2000DB01CA019170AA27BB27892B8A2B8B2B28
:102E300009F0C2C088819981FC01228121502A01B8
:102E40003B01E9E07694679457944794EA95D1F76B
:102E5000122F1421E1F5452B462B472B79F46E8573
:102E60007F8588899989623071058105910568F4AB
:102E70008C8180688C8382E090E012C04A895B89F3
:102E80006C897D890E94620FEECF6F3FFFEF7F0755
:102E90008F079F07C1F48C8180688C8381E090E06C
:102EA000DF91CF911F910F91FF90EF90DF90CF9026
:102EB000BF90AF909F908F907F906F905F904F905A
:102EC0003F902F9008956A8B7B8B8C8B9D8B888095
:102ED00099804A895B896C897D89C4010E943A0F77
:102EE000611571058105910519F22B013C01410E17
:102EF000511C611C711C7601EF2CFF24E694E11437
:102F0000F10409F455C0F4018281212F30E0A901B8
:102F10004E0D5F1D90E08417950718F47C01E21AAE
:102F2000F30A0E2DA3019201B501F40181810E94E3
:102F3000691F892B09F0AFCFE881F981848188234B
:102F4000E1F086A597A5A0A9B1A984199509A609BC
:102F5000B709A70170E060E084179507A607B707D7
:102F600060F4BF016E5C7F4F982F8827990F40E077
:102F700052E08A0D9B1D0E945E0BFE2CEE24FF0C7E
:102F8000AE0CBF1C8E819F81A885B9858E0D9F1DBB
:102F9000A11DB11D8E839F83A887B987F101808110
:102FA00091818E0D9F1D91838083CE18DF0830CFD5
:102FB0004E8A5F8A688E798E8E819F81917020E023
:102FC00032E0281B390B76012C153D0508F47901F8
:102FD0004E895F89688D798D888199810E94A10EC3
:102FE000892B09F058CF8E819F81A885B985917072
:102FF000AA27BB27C29668817981680F791FA7012C
:10300000C5010E945E0BBCCF87E090E049CF90E005
:1030100080E046CF2F923F924F925F926F927F92C5
:103020008F929F92AF92BF92CF92DF92EF92FF92D8
:103030000F931F93CF93DF93EC015B016A0119019A
:10304000F901118210820E947D0B009709F073C074
:103050008C8187FD5AC081FF6BC18A859B85AC85B9
:10306000BD85AC01BD014C0D5D1D611D711D481775
:1030700059076A077B0708F444C14E815F81688560
:103080007985C114D10409F43CC1DB01CA019170F6
:10309000AA27BB27892B8A2B8B2B09F006C1E88135
:1030A000F981228121502A013B01A9E0769467949D
:1030B00057944794AA95D1F7122F142109F052C0C2
:1030C000452B462B472B21F56E857F85888999896D
:1030D000611571058105910581F440E050E0BA0168
:1030E000CF010E949F116E877F87888B998B611516
:1030F00071058105910509F404C1613071058105EF
:10310000910571F48C8180688C8382E090E013C01B
:103110004A895B896C897D89CF010E949F11E7CF25
:103120006F3FFFEF7F078F079F07C1F48C81806897
:103130008C8381E090E0DF91CF911F910F91FF9000
:10314000EF90DF90CF90BF90AF909F908F907F9047
:103150006F905F904F903F902F9008956A8B7B8B7C
:103160008C8B9D8B88819981FC0146A457A460A813
:1031700071A84E895F89688D798D4416550666065B
:10318000770621F40E943F0E892B81F68880998072
:103190004A895B896C897D89C4010E943A0F611557
:1031A00071058105910509F4ADCF2B013C01410E5C
:1031B000511C611C711C7601EF2CFF24E694E11474
:1031C000F10409F455C0F4018281212F30E0A901F6
:1031D0004E0D5F1D90E08417950718F47C01E21AEC
:1031E000F30A0E2DA3019201B501F40181810E9421
:1031F000BB1F892B09F09ACF88819981FC0146A5D4
:1032000057A560A971A944195509660977092701CD
:10321000712C612C441555056605770570F4542F03
:103220004427550FB501640F751F40E052E0C29668
:103230000E945E0BE881F9811482FE2CEE24FF0CC3
:10324000AE0CBF1C8E819F81A885B9858E0D9F1DF8
:10325000A11DB11D8E839F83A887B987F10180814D
:1032600091818E0D9F1D91838083CE18DF0805CF3D
:103270004E815F81688579858A859B85AC85BD8512
:10328000481759076A077B0760F0C4010E943F0E88
:10329000892B09F04BCFE881F98146A657A660AA91
:1032A00071AA4E8A5F8A688E798E8E819F81917015
:1032B00020E032E0281B390B76012C153D0508F47F
:1032C00079014E895F89688D798D888199810E9405
:1032D000A10E892B09F02ACF8E819F81A885B985FF
:1032E0009170AA27BB27C29628813981A701B50111
:1032F000820F931F0E945E0BE881F98131E03483D5
:103300009FCF8E819F81A885B9854A855B856C8515
:103310007D85481759076A077B0720F48A879B87B2
:10332000AC87BD878C8180628C8390E080E003CF86
:1033300087E090E000CF0F931F93CF93DF93EC01D2
:103340000E947D0B0097D9F52C8125FF38C04A8D4E
:103350005B8D6C8D7D8D888199810E94A10E009777
:1033600071F50E8D1F8DF8018385806283878A85B4
:103370009B85AC85BD85848F958FA68FB78F8E85F5
:103380009F85A889B989938F828FB58BA48B0E9462
:103390006C00F801668B778B808F918F138A128A6D
:1033A0008C818F7D8C83E881F98181E084838881A1
:1033B0009981DF91CF911F910F910C94D50EDF91E0
:1033C000CF911F910F910895CF93DF93EC010E944D
:1033D0009B19009711F419821882DF91CF910895FB
:1033E0002F923F924F925F926F927F928F929F9215
:1033F000AF92BF92CF92DF92EF92FF920F931F9303
:10340000CF93DF9300D000D000D0CDB7DEB79E833E
:103410008D836A017B010E947D0B8C01892B09F051
:103420002BC1AD81BE8114962C91149727FD11C13B
:103430001A968D919D910D90BC91A02D8C159D0596
:10344000AE05BF0520F421FD02C06C017D01ED81B8
:10345000FE814680578060847184168217821086B0
:103460001186C114D104E104F104B9F580E090E0C3
:10347000DC011FC0C12CD12C7601ED81FE8186813B
:103480009781A085B185AC01BD0151706627772772
:10349000452B462B472B69F046895789608D718DE6
:1034A0004C155D056E057F0521F0C68AD78AE08E32
:1034B000F18EED81FE8142855385648575854817BF
:1034C00059076A077B0708F0D7C082879387A487CC
:1034D000B587848180628483CFC0ED81FE812080A6
:1034E0003180D10112968C90912CB12CA12C39E015
:1034F000880C991CAA1CBB1C3A95D1F741145104A5
:103500006104710409F485C0B1E04B1A51086108E7
:103510007108C701B6016150710981099109A501BE
:1035200094010E94912129833A834B835C83C301D8
:10353000B201A50194010E94912189819A81AB81F8
:10354000BC8182179307A407B50708F462C08827D7
:103550009927DC0188199909AA09BB0984219521B9
:10356000A621B721ED81FE8186839783A087B1874D
:10357000C81AD90AEA0AFB0A4289538964897589FB
:10358000411551056105710509F474CF8C149D0432
:10359000AE04BF0498F4ED81FE8180819181248185
:1035A00021FF93C00E949F11AB01BC014115510541
:1035B0006105710509F08DC075016401ED81FE8121
:1035C00086819781A085B1858C0D9D1DAE1DBF1D87
:1035D00086839783A087B187D701C6019170AA27F8
:1035E000BB27892B8A2B8B2B09F444CF80819181B7
:1035F0000E943A0F611571058105910509F09DC082
:10360000AD81BE8114968C911497806814968C932A
:1036100020C0AD81BE811E964D915D916D917C91D2
:103620005197411551056105710509F045C040E00C
:1036300050E0BA01C1010E949F11AB01BC014130B1
:1036400051056105710541F4ED81FE818481806839
:10365000848302E010E010C04F3FFFEF5F076F0769
:103660007F0721F5AD81BE8114968C9114978068F7
:1036700014968C9301E010E0C80126960FB6F894DA
:10368000DEBF0FBECDBFDF91CF911F910F91FF9095
:10369000EF90DF90CF90BF90AF909F908F907F90F2
:1036A0006F905F904F903F902F900895ED81FE8135
:1036B00046875787608B718BAD81BE8152964D9343
:1036C0005D936D937C9355975BCF0E94620FAB0126
:1036D000BC014F3FFFEF5F076F077F0719F24230D2
:1036E00051056105710508F4AFCFAD81BE81ED9143
:1036F000FC9186899789A08DB18D481759076A0773
:103700007B0708F0A1CFAD81BE8152964D935D93AA
:103710006D937C935597FD0186819781A085B18536
:10372000880D991DAA1DBB1D86839783A087B1872D
:10373000C818D908EA08FB0829CF29E0F694E794CD
:10374000D794C7942A95D1F7C60ED71EE81EF91E46
:1037500094CECF92DF92EF92FF920F931F93CF936D
:10376000DF93CDB7DEB768970FB6F894DEBF0FBE14
:10377000CDBF988F8F8B7B016A0140E0BE016F5FE8
:103780007F4FCE0147960E94D70B8C01892B09F001
:1037900046C0E114F10411F11F82188619861A86B9
:1037A000CE0101960E942510009709F051C0CE016C
:1037B00001960E947513009709F041C06B897C89BE
:1037C0004BE050E0C7010E945E0BF7013B96108270
:1037D000EE16FF0619F082918032C9F3C114D104AC
:1037E000F1F089819A81FC01468D578D60A171A10C
:1037F0000E94A10E8C01892B91F4E981FA818081CC
:10380000833019F187E290E0E80FF91F82A993A9AC
:10381000A4A9B5A9F60180839183A283B383C801CB
:1038200068960FB6F894DEBF0FBECDBFDF91CF9183
:103830001F910F91FF90EF90DF90CF90089584300B
:10384000910531F4F7011082C9CF83E490E0DCCF19
:103850008C01E5CFCF92DF92EF92FF920F931F93EF
:10386000CF93DF93CDB7DEB7A3970FB6F894DEBF43
:103870000FBECDBF9BA38AA341E0BE016F5F7F4F08
:10388000CE0182960E94D70B009709F075C01F8A5F
:103890008AA19BA16C019C01B901681B790BD9011C
:1038A0004D919D014111F8CFFB01E80FF91FBF01B8
:1038B000681B790BE817F90799F122912032B9F3C7
:1038C000FE0177968F0130E020E02F5F3F4FD60159
:1038D0008D916D0190E0AC01415651094A3151057D
:1038E00090F480974DE4E42E42E0F42ED7014D9100
:1038F0007D01442309F48CC0042E000C550B841761
:103900009507A1F70AC08038910528F087549F4F8A
:10391000DC018C9190E0009729F786E090E02CC0C4
:103920001F82188619861A86CE0101960E942510DC
:10393000009711F5CE0101960E947513009779F555
:103940008B899C892F89222331F14BE050E0BE0105
:10395000695E7F4F0E945E0B0E946C00EB89FC89C0
:10396000668B778B808F918F89819A8121E0DC0132
:1039700014962C930E94D50EA3960FB6F894DEBF32
:103980000FBECDBFDF91CF911F910F91FF90EF90B0
:10399000DF90CF90089525EEFC012083E5CF8430A1
:1039A000910551F78F89882381F1CE0101960E94FC
:1039B0002510009709F7CE0101960E94AD130097DC
:1039C000D9F6EB89FC89CF018096E817F90711F049
:1039D0001192FBCF4BE050E0BE01695E7F4F8B89B7
:1039E0009C890E945E0BEB89FC8988E083870E949A
:1039F0006C00EB89FC89668B778B808F918F898136
:103A00009A8121E0FC012483B5CF90E080E0B4CF1F
:103A10002C30310509F481CFD8018D938D01261703
:103A2000370708F452CFDF01A20FB31F80E29D01D8
:103A30002E1B3F0B2B30310508F072CF8D93F7CF43
:103A400023B123B123B123B10197D1F70895FC012C
:103A5000680F791F919197FF2AC02B9A2D9A2D9864
:103A600096FF27C02B9A2D9A2D9895FF24C02B9A4C
:103A70002D9A2D9894FF21C02B9A2D9A2D9893FF63
:103A80001EC02B9A2D9A2D9892FF1BC02B9A2D9A0F
:103A90002D9891FF18C02B9A2D9A2D9890FF15C044
:103AA0002B9A2D9A2D986E177F07A1F608952B98C3
:103AB000D5CF2B98D8CF2B98DBCF2B98DECF2B9858
:103AC000E1CF2B98E4CF2B98E7CF2B98EACF2B9A16
:103AD000FC01680F791F93B12D9A2D9892959170E2
:103AE000990F1C999F5F2D9A2D98990F1C999F5F94
:103AF0002D9A2D98990F1C999F5F2D9A2D98990FAB
:103B00001C999F5F2D9A2D98990F1C999F5F2D9A54
:103B10002D98990F1C999F5F2D9A2D98990F1C999C
:103B20009F5F2D9A2D989193E617F707A1F60895B8
:103B30000F931F93CF93DF931F92CDB7DEB708E8A3
:103B400013E161E070E0CE0101960E94671D89815A
:103B50008F3F79F084E690E00E94201D015011090A
:103B600081F790E080E00F90DF91CF911F910F914E
:103B7000089581E090E0F7CFCF93DF931F92CDB708
:103B8000DEB72A9A61E070E0CE0101960E94671DBF
:103B90000F90DF91CF9108950F931F93CF93DF93F1
:103BA0001F92CDB7DEB72A9861E070E0CE01019692
:103BB0000E94671D0E94981D8C01892B49F40E9468
:103BC000BC1DC8010F90DF91CF911F910F910895F7
:103BD00001E010E0F6CFCF92DF92EF92FF920F93C9
:103BE0001F93CF93DF9300D0CDB7DEB77C016B017D
:103BF00008EE13E061E070E0CE0101960E94671DBF
:103C000089818F3F39F484E690E00E94201D0150A5
:103C1000110981F789818E3FB9F4B601C7010E946D
:103C2000671D62E070E0CE0101960E94671D81E091
:103C300090E00F900F90DF91CF911F910F91FF9027
:103C4000EF90DF90CF90089590E080E0F2CFDF9288
:103C5000EF92FF920F931F93CF93DF9300D000D08A
:103C600000D01F92CDB7DEB7182F042FF52EE62E09
:103C7000D72E87FF09C040E050E0BA0187E30E94D9
:103C8000271E823080F51F770E94BC1D0E94CC1D2C
:103C9000892BB9F1812F80648983DA82EB82FC82DF
:103CA0000D8385E9112321F087E8183009F081E0C0
:103CB0008E8366E070E0CE0101960E94271D1C30C5
:103CC00031F461E070E0CE0107960E94671D1AE0B2
:103CD00061E070E0CE0107960E94671D8F8187FF2B
:103CE00002C01150A9F727960FB6F894DEBF0FBE99
:103CF000CDBFDF91CF911F910F91FF90EF90DF909B
:103D000008958FEFF0CFEF92FF921F93CF93DF9341
:103D100000D0CDB7DEB77C01162F0E94981D00970A
:103D200029F1198361E070E0CE0101960E94271D00
:103D300081E090E01D3FD1F060E072E0C7010E9499
:103D4000271D62E070E0CE0101960E94671D61E0D0
:103D500070E0CE0101960E94671D89818F7131E06C
:103D600020E0853009F030E0832F922F0F900F90E4
:103D7000DF91CF911F91FF90EF900895811103C0C3
:103D800080910001089581E00895EF92FF920F93D2
:103D90001F93CF93DF9300D000D0CDB7DEB703E001
:103DA000811125C080E197E20E94201D229A2A9A63
:103DB000259A2D98239A1AE061E070E0CE010196D1
:103DC0000E94671D1150C1F740E050E0BA0180E049
:103DD0000E94271E182F8130B1F010E01093D502F9
:103DE00001E0111100E0009300010E94BC1D802F32
:103DF0000F900F900F900F90DF91CF911F910F9127
:103E0000FF90EF9008954AEA51E060E070E088E0AA
:103E10000E94271E8130F9F464E070E0CE01019623
:103E20000E94671D8B818130C1F68C818A3AA9F688
:103E300008EE13E040E050E060E070E489EA0E94A0
:103E4000271E882341F188EE93E00E94201D015037
:103E5000110981F7C2CF40E050E0BA0189EA0E941F
:103E6000271E01E0823010F409EA12E088EEE82E05
:103E700083E0F82E40E050E0BA01802F0E94271E18
:103E80008823E9F088EE93E00E94201D81E0E81A83
:103E9000F10881F7A2CF40E050E0BA018AE30E9426
:103EA000271E81119ACF64E070E0CE0101960E9436
:103EB000671D89811CE086FD91CF14E08FCF40E023
:103EC00052E060E070E080E10E94271E811185CF02
:103ED00085CF0F93CF93DF93EB01BA01A901811135
:103EE0001BC08091000180FD44C08091D50283FDFC
:103EF00007C089E0440F551F661F771F8A95D1F7C9
:103F00000130B9F481E10E94271E882339F00E9414
:103F1000BC1D81E090E029C081E0E5CF60E072E067
:103F2000CE010E94EB1D892B91F30E94BC1D80E005
:103F3000F1CF82E10E94271E811110C060E072E083
:103F4000CE010E94EB1D892B19F0DE5F0150B1F705
:103F500040E050E0BA018CE00E94271E0E94BC1D88
:103F600081E090E0011101C080E0DF91CF910F91DD
:103F7000089583E0CFCFCF92DF92EF92FF920F931D
:103F8000CF93DF93EB0169017A01811123C0809106
:103F9000000180FD54C08091D50283FD07C099E0E7
:103FA000CC0CDD1CEE1CFF1C9A95D1F70130A1F45E
:103FB000B701A60188E10E94271E81112DC06EEF76
:103FC000CE010E94831E892B39F10E94BC1D80E026
:103FD00090E02DC081E0DDCF867039F0402F50E0B9
:103FE00070E060E087E90E94271EB701A60189E121
:103FF0000E94271E811114C06CEFCE010E94831E07
:10400000892B19F0DE5F0150B9F76DEF90E080E089
:104010000E94831E892B21F40E94BC1D81E0D8CF11
:104020000E94BC1D81E090E0011101C080E0DF91A1
:10403000CF910F91FF90EF90DF90CF90089583E0A4
:10404000C7CF0F931F93CF93DF93CDB7DEB76097A2
:104050000FB6F894DEBF0FBECDBF8A0181110CC030
:104060008091000180FD97C06130E9F038F0633045
:1040700009F48CC004E020C081E0F4CF0E94CC1D84
:1040800001E010E0892B09F000E00E94BC1DC8018E
:1040900060960FB6F894DEBF0FBECDBFDF91CF9113
:1040A0001F910F91089540E050E0BA0189E00E940D
:1040B000271E882319F001E010E0E7CF60E170E0EF
:1040C000CE0101960E94EB1D892BA9F32A85498513
:1040D0008885698170E0E6E075956795EA95E1F776
:1040E00050E030E06130710519F590E0B0E0A0E0FB
:1040F000DC019927882788279927AF73BB2701966A
:10410000A11DB11D542F4427240F351F820F931F6B
:10411000A11DB11D7AE0880F991FAA1FBB1F7A95B8
:10412000D1F7F80180839183A283B38300E0C4CFE9
:10413000F4E08F9FC0011124019666E055954795E4
:104140006A95E1F7840F951F4F8150E0542F442763
:10415000550F550F44275C70840F951FB0E0A0E009
:104160004E814F705B85551F5527551F450F4E5F7C
:10417000220F331F2670240F2950330B04C0880FE1
:10418000991FAA1FBB1F2A95D2F7CBCF80E890E0DA
:10419000A0E0B0E0C6CF03E010E079CFCF93DF938B
:1041A000CDB7DEB7E2970FB6F894DEBF0FBECDBF36
:1041B000529853985A9A5B9A209A809169008E7F00
:1041C000809369008091690082608093690080918A
:1041D00069008460809369008091690088608093A1
:1041E0006900E89AE99A439878940E94760581E1FB
:1041F000E82E0BE028E047E063E180E00E949F03A7
:1042000080E00E943B0481E00E94B20425E043E18B
:1042100067E18EE00E94C00478940E94370550E068
:1042200040E070E060E08AE090E00E943209F8949B
:1042300080915E02882361F0289A40E060E076E990
:1042400080E090E00E94C30A89EB91E00E94520B4B
:1042500080915E028823B9F02FEF81EE94E0215027
:1042600080409040E1F700C0000000E023E049E218
:1042700050E062E3CE0101960E941F0B882351F0AB
:104280002898E09AE19A80915E02882329F21092A0
:104290005E02C2CF62EC71E0CE0101960E94F6236D
:1042A000892B29F48CEC91E00E94520BD1CF64ED64
:1042B00071E0CE0101960E94F623892B29F481EE4C
:1042C00091E00E94520BC4CF89EE91E00E94520B04
:1042D000CE0101960E94520B8FEE91E00E94520B8C
:1042E000B7CF991B79E004C0991F961708F0961B69
:1042F000881F7A95C9F78095089597FB072E16F4C5
:10430000009407D077FD09D00E94BE2107FC05D09C
:104310003EF4909581959F4F0895709561957F4FDC
:104320000895A1E21A2EAA1BBB1BFD010DC0AA1FF6
:10433000BB1FEE1FFF1FA217B307E407F50720F00E
:10434000A21BB30BE40BF50B661F771F881F991F89
:104350001A9469F760957095809590959B01AC01D2
:10436000BD01CF0108950E94D221A59F900DB49F59
:10437000900DA49F800D911D11240895AA1BBB1BB5
:1043800051E107C0AA1FBB1FA617B70710F0A61B55
:10439000B70B881F991F5A95A9F780959095BC0176
:1043A000CD010895A29FB001B39FC001A39F700DDE
:1043B000811D1124911DB29F700D811D1124911D2D
:1043C00008950E94E8216894B1110C943A2208954E
:1043D0000E941F2288F09F5798F0B92F9927B75154
:1043E000B0F0E1F0660F771F881F991F1AF0BA9599
:1043F000C9F714C0B13091F00E943922B1E008959C
:104400000C943922672F782F8827B85F39F0B93F8D
:10441000CCF3869577956795B395D9F73EF490954B
:104420008095709561957F4F8F4F9F4F089557FDF1
:104430009058440F551F59F05F3F71F04795880F12
:1044400097FB991F61F09F3F79F0879508951216A9
:1044500013061406551FF2CF4695F1DF08C0161655
:1044600017061806991FF1CF869571056105089406
:104470000895E894BB2766277727CB0197F908951D
:104480000E9453220C94C4220E94B62238F00E944B
:10449000BD2220F0952311F00C94AD220C94B32290
:1044A00011240C943A220E94172270F3959FC1F3B5
:1044B000950F50E0551F629FF001729FBB27F00DD2
:1044C000B11D639FAA27F00DB11DAA1F649F662727
:1044D000B00DA11D661F829F2227B00DA11D621F76
:1044E000739FB00DA11D621F839FA00D611D221F30
:1044F000749F3327A00D611D231F849F600D211D14
:10450000822F762F6A2F11249F5750409AF0F1F096
:1045100088234AF0EE0FFF1FBB1F661F771F881FFF
:1045200091505040A9F79E3F510580F00C94AD2268
:104530000C943A225F3FE4F3983ED4F38695779546
:104540006795B795F795E7959F5FC1F7FE2B880FA5
:10455000911D9695879597F9089597F99F6780E83B
:1045600070E060E008959FEF80EC089500240A94C5
:104570001616170618060906089500240A9412163E
:104580001306140605060895092E0394000C11F471
:10459000882352F0BB0F40F4BF2B11F460FF04C01E
:1045A0006F5F7F4F8F4F9F4F08950F931F93CF9350
:1045B000DF938230910510F482E090E0E0915005A5
:1045C000F091510520E030E0A0E0B0E0309719F123
:1045D000408151810281138148175907C8F084171F
:1045E000950769F4109731F012960C931297139671
:1045F0001C9327C0009350051093510522C021152C
:10460000310519F04217530718F49A01BD01EF0163
:10461000DF01F801DBCF21153105F9F0281B390B3B
:104620002430310580F48A819B816115710521F068
:10463000FB019383828304C09093510580935005BE
:10464000FE01329644C0FE01E20FF31F8193919365
:1046500022503109398328833AC020914E05309188
:104660004F05232B41F42091030130910401309335
:104670004F0520934E052091010130910201211533
:10468000310541F42DB73EB7409105015091060127
:10469000241B350BE0914E05F0914F05E217F3070F
:1046A000A0F42E1B3F0B2817390778F0AC014E5FA2
:1046B0005F4F2417350748F04E0F5F1F50934F058B
:1046C00040934E058193919302C0E0E0F0E0CF016A
:1046D000DF91CF911F910F910895CF93DF930097B2
:1046E00009F481C0FC01329713821282A091500517
:1046F000B0915105109781F420813181820F931F71
:1047000020914E0530914F052817390751F5F09348
:104710004F05E0934E0567C0ED0120E030E0CE1775
:10472000DF0740F44A815B819E0141155105F1F09C
:10473000EA01F5CFD383C28340815181840F951F55
:10474000C817D90759F488819981840F951F02965B
:10475000918380838A819B81938382832115310594
:1047600029F4F0935105E09350053DC0E901FB8326
:10477000EA8349915991C40FD51FEC17FD0761F4E5
:1047800080819181840F951F0296E9019983888326
:10479000828193819B838A83E0E0F0E012968D9181
:1047A0009C911397009719F0FD01DC01F7CF8D91D3
:1047B0009C9111979D012E5F3F4F820F931F209177
:1047C0004E0530914F052817390769F4309729F4C1
:1047D000109251051092500502C013821282B093BC
:1047E0004F05A0934E05DF91CF910895FB01DC01A9
:1047F0008D91019080190110D9F3990B0895AEE0C5
:10480000B0E0E5E0F4E20C94A6260D891E8986E06E
:104810008C831A8309838FEF9FE79E838D83AE017C
:10482000475E5F4F6F89788DCE0101960E942124EB
:10483000EF81F885E00FF11F10822E96E4E00C94D2
:10484000C226ACE0B0E0E7E2F4E20C9498266C01FA
:104850007B018A01FC0117821682838181FFBEC120
:10486000CE0101964C01F6019381F70193FD8591EC
:1048700093FF81917F01882309F4ACC1853239F41B
:1048800093FD859193FF81917F01853229F4B601D3
:1048900090E00E940A26E7CF512C312C20E02032F4
:1048A000A0F48B3269F030F4803259F0833269F42D
:1048B00020612CC08D3239F0803339F4216026C05C
:1048C0002260246023C0286021C027FD27C030ED6E
:1048D000380F3A3078F426FF06C0FAE05F9E300DBC
:1048E0001124532E13C08AE0389E300D1124332E2C
:1048F00020620CC08E3221F426FD6CC1206406C0FB
:104900008C3611F4206802C0883641F4F70193FD1B
:10491000859193FF81917F018111C1CF982F9F7D58
:104920009554933028F40C5F1F4F9FE399830DC07B
:10493000833631F0833771F0833509F05BC022C0D4
:10494000F801808189830E5F1F4F44244394512CCA
:10495000540115C03801F2E06F0E711CF801A080FF
:10496000B18026FF03C0652D70E002C06FEF7FEFBE
:10497000C5012C870E94FF252C0183012C852F77F0
:10498000222E17C03801F2E06F0E711CF801A080D2
:10499000B18026FF03C0652D70E002C06FEF7FEF8E
:1049A000C5012C870E94F4252C012C852068222E1D
:1049B000830123FC1BC0832D90E048165906B0F4F8
:1049C000B60180E290E00E940A263A94F4CFF50105
:1049D00027FC859127FE81915F01B60190E00E943E
:1049E0000A2631103A94F1E04F1A5108411451044B
:1049F00071F7E6C0843611F0893639F5F80127FFE2
:104A000007C060817181828193810C5F1F4F08C054
:104A100060817181072E000C880B990B0E5F1F4F70
:104A20002F76722E97FF09C09095809570956195AD
:104A30007F4F8F4F9F4F2068722E2AE030E0A401F5
:104A40000E943A26A82EA81844C0853729F42F7E44
:104A5000B22E2AE030E025C0F22FF97FBF2E8F362C
:104A6000C1F018F4883579F0B5C0803719F088376F
:104A700021F0B0C02F2F2061B22EB4FE0DC08B2DBF
:104A80008460B82E09C024FF0AC09F2F9660B92EFB
:104A900006C028E030E005C020E130E002C020E19F
:104AA00032E0F801B7FE07C0608171818281938195
:104AB0000C5F1F4F06C06081718180E090E00E5F47
:104AC0001F4FA4010E943A26A82EA818FB2DFF779D
:104AD0007F2E76FE0BC0372D3E7FA51450F474FE5A
:104AE0000AC072FC08C0372D3E7E05C0BA2C372D97
:104AF00003C0BA2C01C0B52C34FF0DC0FE01EA0D75
:104B0000F11D8081803311F4397E09C032FF06C067
:104B1000B394B39404C0832F867809F0B39433FD23
:104B200013C030FF06C0B31498F43A0C532C5B1832
:104B300010C0B31470F4B60180E290E03C870E948C
:104B40000A26B3943C85F5CFB31418F43B1802C081
:104B50005A2C312C34FF12C0B60180E390E03C8720
:104B60000E940A263C8532FF17C031FD03C088E74A
:104B700090E002C088E590E0B6010CC0832F8678F3
:104B800059F031FF02C08BE201C080E237FD8DE2B7
:104B9000B60190E00E940A26A51438F4B60180E31D
:104BA00090E00E940A265A94F7CFAA94F401EA0DE5
:104BB000F11D8081B60190E00E940A26A110F5CF78
:104BC000332009F450CEB60180E290E00E940A261C
:104BD0003A94F6CFF6018681978102C08FEF9FEF5E
:104BE0002C96E2E10C94B426FC01059061507040D3
:104BF0000110D8F7809590958E0F9F1F0895FC01A6
:104C00006150704001900110D8F7809590958E0FFB
:104C10009F1F08950F931F93CF93DF93182F092F92
:104C2000EB018B8181FD03C08FEF9FEF1EC082FFE0
:104C30000FC02E813F818C819D812817390774F424
:104C4000E881F981CF01019699838883108306C09A
:104C5000E885F985812F0995892B31F78E819F8110
:104C600001969F838E83812F902FDF91CF911F918B
:104C70000F910895FA01AA27283051F1203181F1CE
:104C8000E8946F936E7F6E5F7F4F8F4F9F4FAF4F54
:104C9000B1E03ED0B4E03CD0670F781F891F9A1F67
:104CA000A11D680F791F8A1F911DA11D6A0F711D1B
:104CB000811D911DA11D20D009F468943F912AE027
:104CC000269F11243019305D3193DEF6CF0108950F
:104CD000462F4770405D4193B3E00FD0C9F7F6CF40
:104CE000462F4F70405D4A3318F0495D31FD405208
:104CF000419302D0A9F7EACFB4E0A695979587959E
:104D000077956795BA95C9F700976105710508957C
:104D10009B01AC010A2E0694579547953795279528
:104D2000BA95C9F7620F731F841F951FA01D0895C0
:104D30002F923F924F925F926F927F928F929F92AB
:104D4000AF92BF92CF92DF92EF92FF920F931F9399
:104D5000CF93DF93CDB7DEB7CA1BDB0B0FB6F8944A
:104D6000DEBF0FBECDBF09942A88398848885F848A
:104D70006E847D848C849B84AA84B984C884DF80FB
:104D8000EE80FD800C811B81AA81B981CE0FD11DDF
:104D90000FB6F894DEBF0FBECDBFED010895F894B5
:024DA000FFCF43
:104DA20001000052052000446174612C20486F729A
:104DB200612C2054656D70657261747572612C206E
:104DC200556D69646164652C204D6574616E6F0D6B
:104DD2000A0000000000000000809A90418E418F7E
:104DE200804545454949498E8F9092924F994F553A
:104DF2005559999A9B9C9D9E9F41494F55A5A5A6A1
:104E0200A7A8A9AAABAC21AEAFB0B1B2B3B4B5B644
:104E1200B7B8B9BABBBCBDBEBFC0C1C2C3C4C5C6A8
:104E2200C7C8C9CACBCCCDCECFD0D1D2D3D4D5D698
:104E3200D7D8D9DADBDCDDDEDFE0E1E2E3E4E5E688
:104E4200E7E8E9EAEBECEDEEEFF0F1F2F3F4F5F678
:104E5200F7F8F9FAFBFCFDFEFF0D0A696E69740DA5
:104E62000A006D616E64617475646F006D616E64D9
:104E72006F0D0A006C656974757261617475616C9D
:104E82000061676F72610D0A006572726F3A006E9F
:104E9200616F2065682076616C69646F0D0A006C31
:104EA2006569726125642E63737600253032642F42
:104EB200253032642F253032642C253032643A2575
:104EC2003032642C25642E25642C25752C25750D15
:104ED2000A004C4549524125642E43535600222A6A
:104EE2002B2C3A3B3C3D3E3F5B5D7C7F00222A2BD4
:0E4EF2002C2E3A3B3C3D3E3F5B5D7C7F00003A
:00000001FF
