:100000000C94B1000C94C6000C94C6000C94C6006D
:100010000C94C6000C94C6000C94C6000C94C60048
:100020000C94C6000C94C6000C94C6000C94C60038
:100030000C94C6000C94C6000C94C6000C94C60028
:100040000C94C6000C94C6000C94C6000C94C60018
:100050000C94C6000C94C6000C94C6000C94C60008
:100060000C94C6000C94C60000407A10F35A00A00D
:10007000724E18090010A5D4E80000E87648170071
:1000800000E40B54020000CA9A3B000000E1F505B1
:10009000000080969800000040420F000000A086FB
:1000A00001000000102700000000E803000000002D
:1000B0006400000000000A000000000001000000D1
:1000C00000002C76D888DC674F0823DFC1DFAE59EB
:1000D000E1B1B796E5E3E453C63AE651997696E87E
:1000E000E6C28426EB898C9B62ED407C6FFCEFBC02
:1000F0009C9F40F2BAA56FA5F490055A2AF75C932D
:100100006B6CF9676DC11BFCE0E40D47FEF520E662
:10011000B500D0ED902E0300943577050080841E45
:10012000080000204E0A000000C80C333333330FA0
:10013000986E12831141EF8D2114893BE65516CF3D
:10014000FEE6DB18D1844B381BF77C1D901DA4BB49
:10015000E424203284725E228100C9F124ECA1E5FE
:100160003D2711241FBECFEFD8E0DEBFCDBF11E089
:10017000A0E0B1E0E6EAFCE002C005900D92A433F5
:10018000B107D9F70E9451020C9451060C9400005B
:100190004098389A8FEB93E00197F1F700C0000088
:1001A000389890EA9A95F1F786B1E7E4F3E0319751
:1001B000F1F700C00000817008954098389A92E0ED
:1001C0009A95F1F700C08111389880EA8A95F1F785
:1001D000389808954098389A82E08A95F1F700C0DF
:1001E000389895E29A95F1F7000086B198E79A95CC
:1001F000F1F781700895CF93DF93D82FC9E0C150F4
:1002000031F08D2F81700E94DD00D695F8CFDF91FF
:10021000CF910895CF93DF93D9E0C0E0D15049F05A
:100220000E94EA0020E8829FC0011124C695C82BD5
:10023000F5CF8C2FDF91CF910895CF93F8940E9442
:10024000C8008CEC0E94FB0084E40E94FB000E942A
:10025000EA008823E1F30E94C8008CEC0E94FB00B6
:100260008EEB0E94FB000E940A01C82F0E940A0127
:100270007894682F70E0762F66276C0F711D072E1B
:10028000000C880B990B0E94D20220E030E040E87D
:100290005DE30E940D03CF91089514B85F985D98B7
:1002A0005E9A5F9A1F99FECF5F985E988FEF84B930
:1002B00008955F985D9A5F9A85B95F980C944D0197
:1002C0005F985F9A85B95F980C944D015F985F9A2B
:1002D00095B1282F207F9F70922B95B95F985F98DA
:1002E0005F9A25B130E1839FC0011124922F9F7046
:1002F000892B85B95F980C944D010C9466015F9829
:100300005D9A5F9A95B1282F207F9F70922B95B9A7
:100310009BB19F759BB95D9A5F9A25B130E1839F30
:10032000C0011124922F9F70892B85B98BB18F75D5
:100330008BB90C944D0190E4699F800D1124806865
:100340000C946601CF93DF93EC018991882319F017
:100350000E945901FACFDF91CF910895CF93DF9397
:10036000EC018991882319F00E947F01FACFDF9177
:10037000CF9108950C94AE01CF93DF93EC01862FBB
:10038000642F0E949B01CE01DF91CF910C94AE01AE
:100390008FEF8AB984B988E20E94600188E20C94E8
:1003A0006601442369F022E02093C0009B01AC0168
:1003B00093E0220F331F441F551F9A95D1F709C0B0
:1003C0009B01AC0184E0220F331F441F551F8A9507
:1003D000D1F760E072E18AE790E00E94AE0221501E
:1003E00031093093C5002093C4008091C2008F73FF
:1003F0008093C2008091C2008F7C8093C200809164
:10040000C200877F8093C2008091C2008B7F80935F
:10041000C2008091C20086608093C20088E1809310
:10042000C10008958091C00087FFFCCF8091C60075
:100430000895CF92DF92EF92FF921F93CF93DF93B5
:100440001F92CDB7DEB7182F6C018C2D811B86173C
:1004500060F4760169830E941202F60181936F01B4
:1004600069818D3091F7F70110820F90DF91CF9164
:100470001F91FF90EF90DF90CF9008959091C00072
:1004800095FFFCCF8093C6000895CF93DF93EC01D6
:100490008991882319F00E943E02FACFDF91CF9113
:1004A0000895CF93DF93CDB7DEB765970FB6F89475
:1004B000DEBF0FBECDBF0E94C8018FE00E947D014C
:1004C00081E00E947D0182E00E947D0141E060E0C8
:1004D00076E980E090E00E94D101789480E091E09C
:1004E0000E9445022FEF89E698E12150804090401C
:1004F000E1F700C0000080E191E00E9445022FEF8B
:1005000089E698E1215080409040E1F700C000006A
:100510008FE191E00E9445022FEF89E698E121509A
:1005200080409040E1F700C000008DE0E82E9AE0A6
:10053000F92E0E941D018E010F5F1F4F23E046E040
:100540000E94CB0340E060E0C8010E94BC01EF8242
:10055000F8861986C8010E944502EBCFA1E21A2E47
:10056000AA1BBB1BFD010DC0AA1FBB1FEE1FFF1F57
:10057000A217B307E407F50720F0A21BB30BE40BA7
:10058000F50B661F771F881F991F1A9469F76095EE
:100590007095809590959B01AC01BD01CF010895A8
:1005A000E89409C097FB3EF490958095709561950D
:1005B0007F4F8F4F9F4F9923A9F0F92F96E9BB27C3
:1005C0009395F695879577956795B795F111F8CF3F
:1005D000FAF4BB0F11F460FF1BC06F5F7F4F8F4FAA
:1005E0009F4F16C0882311F096E911C0772321F0A0
:1005F0009EE8872F762F05C0662371F096E8862F38
:1006000070E060E02AF09A95660F771F881FDAF78E
:10061000880F9695879597F908950E9420030C946A
:1006200091030E94830338F00E948A0320F09523EF
:1006300011F00C947A030C94800311240C94C503DC
:100640000E94A20370F3959FC1F3950F50E0551FD0
:10065000629FF001729FBB27F00DB11D639FAA2717
:10066000F00DB11DAA1F649F6627B00DA11D661F66
:10067000829F2227B00DA11D621F739FB00DA11D87
:10068000621F839FA00D611D221F749F3327A00D41
:10069000611D231F849F600D211D822F762F6A2FDD
:1006A00011249F5750409AF0F1F088234AF0EE0F42
:1006B000FF1FBB1F661F771F881F91505040A9F76F
:1006C0009E3F510580F00C947A030C94C5035F3F64
:1006D000E4F3983ED4F3869577956795B795F795AB
:1006E000E7959F5FC1F7FE2B880F911D9695879523
:1006F00097F9089597F99F6780E870E060E00895A2
:100700009FEF80EC089500240A9416161706180629
:100710000906089500240A94121613061406050605
:100720000895092E0394000C11F4882352F0BB0F96
:1007300040F4BF2B11F460FF04C06F5F7F4F8F4FF9
:100740009F4F089557FD9058440F551F59F05F3F34
:1007500071F04795880F97FB991F61F09F3F79F0E3
:1007600087950895121613061406551FF2CF469565
:10077000F1DF08C0161617061806991FF1CF8695E7
:100780007105610508940895E894BB2766277727CB
:10079000CB0197F90895EF920F931F93CF93DF93B7
:1007A000E80147FD02C034E001C034E1E42F440F0A
:1007B000FF0BF7FF03C0F195E195F109E32E022F3E
:1007C0002E2FAE010E94EB03CE01DF91CF911F913E
:1007D0000F91EF9008954F925F926F927F929F9248
:1007E000AF92BF92CF92DF92EF92FF920F931F933F
:1007F000CF93DF93CDB7DEB729970FB6F894DEBF5E
:100800000FBECDBF6A01122FB02E2BE3201720F0B0
:10081000FF24F394F00E02C0BCE3FB2E0F2D27E063
:10082000AE014F5F5F4F0E947905AC018981982F1F
:100830009970913031F0E1FC06C0E0FE06C090E214
:1008400005C09DE203C09BE201C090E0EE2DE07187
:1008500083FF3CC0911102C083E001C084E0811796
:1008600018F4212F281B01C020E0E1110BC0F60174
:10087000822F30E2882319F031938150FBCFC20ED2
:10088000D11C20E0992329F0D6019C93F6013196E2
:100890006F01C6010396E2FE0AC03EE4D6013C9316
:1008A00041E411964C93119712963C9306C03EE694
:1008B000F601308341E641833283FC01322F40E26E
:1008C000332309F442C041933150FACF82FF44C030
:1008D000911102C083E001C084E0811718F4212F38
:1008E000281B01C020E0E1110BC0F601822F30E28D
:1008F000882319F031938150FBCFC20ED11C20E028
:10090000992329F0D6019C93F60131966F01C60117
:100910000396E2FE0BC039E4D6013C933EE4119607
:100920003C93119736E412963C9307C039E6F601E2
:1009300030833EE6318336E63283FC01322F40E2DB
:10094000332319F041933150FBCFFC01E20FF11D2D
:1009500010828EEF9FEFB7C0F1E0911101C0F0E07F
:100960006F2F70E01416150624F49A012F5F3F4F85
:1009700002C021E030E0260F371FBB2029F06B2D8D
:1009800070E06F5F7F4F02C060E070E0260F371F9E
:10099000612F70E0261737071CF4121B212F01C0AE
:1009A00020E03E2D387159F4D601322F60E2332316
:1009B00019F06D933150FBCFC20ED11C20E0FF2304
:1009C00031F0D6019C93B6016F5F7F4F6B01E1114F
:1009D0000BC0F601922F30E3992319F03193915017
:1009E000FBCFC20ED11C20E09F2D940F3A81782FAF
:1009F0007071A72E84FF03C0313309F4915019168A
:100A000024F4993018F098E001C091E0E42F852F8C
:100A100057FF02C0E0E080E06E2F782FE0E0F0E0CA
:100A2000AEE29A2E3A01691A71082A01461A570A4B
:100A30000B2D10E01195019511096F3F8FEF78078D
:100A400029F4D6019C92C60101966C0146175707FE
:100A500084F0661677066CF47F01E40CF51CA1E0C7
:100A6000B0E0AC0FBD1FEA0EFB1ED7011196BC9083
:100A700002C090E3B92E615071093196C60101960A
:100A80007C016017710724F0D601BC926C01D5CFB0
:100A90006417750741F4363320F4353321F4A1107F
:100AA00002C081E3B82EF601B082F701822F90E2F6
:100AB000882319F091938150FBCFF701E20FF11DCC
:100AC000108280E090E029960FB6F894DEBF0FBE4A
:100AD000CDBFDF91CF911F910F91FF90EF90DF90ED
:100AE000CF90BF90AF909F907F906F905F904F900E
:100AF0000895283008F027E03327DA01990F311DD7
:100B000087FD916000966105710539F432602E5FB2
:100B10003D9330E32A95E1F708959F3F30F0803808
:100B20007105610509F03C5F3C5F3D93913008F031
:100B30008068911DDF93CF931F930F93FF92EF92E5
:100B4000192F987F9695E92F96959695E90FFF278F
:100B5000EE53FF4F99273327EE24FF24A701E70127
:100B600005900894079428F4360FE71EF81E491FD5
:100B7000511D660F771F881F991F0694A1F70590D6
:100B8000079428F4E70EF81E491F561FC11D770F62
:100B9000881F991F661F0694A1F70590079428F4F3
:100BA000F80E491F561FC71FD11D880F991F661FBA
:100BB000771F0694A1F70590079420F4490F561F5C
:100BC000C71FD81F990F661F771F881F0694A9F7A4
:100BD00084911095177041F0D695C7955795479514
:100BE000F794E7941A95C1F7E8E6F0E06894159059
:100BF000159135916591959105907FE27395E11876
:100C0000F10A430B560BC90BD009C0F7E10CF11EDA
:100C1000431F561FC91FD01D7EF4703311F48A95EF
:100C2000E6CFE894015030F0080F0AF400270217CD
:100C300008F4202F2395022F7A3328F079E37D934F
:100C40002A95E9F710C07D932A9589F60694979521
:100C50006795379517951794E118F10A430B560BD2
:100C6000C90BD00998F023957E9173957A3308F0DB
:100C700070E37C932013B8F77E9170617D9330F020
:100C8000839571E37D9370E32A95E1F71124EF904A
:100C9000FF900F911F91CF91DF91992787FD90953C
:060CA0000895F894FFCF57
:100CA60041542B4E414D453D424C5545530D0A008E
:100CB60041542B505357443D303030300D0A0041DB
:100CC600542B554152543D33383430302C312C306E
:040CD6000D0A000003
:00000001FF
