:100000000C9434000C946C000C9492000C945100ED
:100010000C9451000C9451000C9463080C94510002
:100020000C9451000C9451000C9451000C9451000C
:100030000C9451000C9451000C9451000C945100FC
:100040000C9451000C9451000C9451000C945100EC
:100050000C9451000C9451000C9451000C945100DC
:100060000C949A040C94510011241FBECFEFD8E0D9
:10007000DEBFCDBF11E0A0E0B1E0EAE2F3E102C0F3
:1000800005900D92A830B107D9F721E0A8E0B1E0C2
:1000900001C01D92AF3BB207E1F70E94FA080C9431
:1000A00093090C94000085E090E0289A2FEF31EE40
:1000B00044E0215030404040E1F700C00000289863
:1000C0002FEF31EE44E0215030404040E1F700C0D6
:1000D0000000019751F708951F920F920FB60F92EB
:1000E00011242F933F934F935F936F937F938F933D
:1000F0009F93AF93BF93EF93FF930E9453000E948F
:100100005300FF91EF91BF91AF919F918F917F919C
:100110006F915F914F913F912F910F900FBE0F9074
:100120001F9018951F920F920FB60F9211242F93C4
:100130003F934F935F936F937F938F939F93AF936F
:10014000BF93EF93FF93F8942FEF82E597E0215050
:1001500080409040E1F700C000004B9B06C00E9429
:10016000530081E08093080102C010920801FF91C2
:10017000EF91BF91AF919F918F917F916F915F911F
:100180004F913F912F910F900FBE0F901F90189598
:100190006AE00E94650920E1829F900D1124892F59
:1001A0000895982F92959F708F702AE0929F800DEE
:1001B00011240895CF93C82F88E60E9450038C2FF6
:1001C0000E946A030E945A0361E088E60E9443038A
:1001D000CF910C94BD031F93CF93DF931F92CDB7A4
:1001E000DEB7182F88E669830E9450036981862F45
:1001F0000E946A03812F0E946A030F90DF91CF91C2
:100200001F910C945A039F92AF92BF92CF92DF92AC
:10021000EF92FF920F931F93CF93DF93CDB7DEB78B
:1002200029970FB6F894DEBF0FBECDBF7C016B01DE
:100230005A0188E60E94500380E00E946A030E94EF
:100240005A0367E088E60E9443038E010F5F1F4F49
:1002500087E0982E900E0E94BD03F80181938F01D4
:100260009E12F9CF0E945A03A114B10429F089818A
:100270000E94D100F5018083C114D10429F08A8144
:100280000E94D100F6018083E114F10429F08B81F2
:100290000E94D100F701808329960FB6F894DEBF43
:1002A0000FBECDBFDF91CF911F910F91FF90EF90C7
:1002B000DF90CF90BF90AF909F9008951F93CF9302
:1002C000DF9300D0CDB7DEB7182F88E649836A8365
:1002D0000E94500380E00E946A034981842F0E949B
:1002E000C8000E946A036A81862F0E94C8000E948B
:1002F0006A03812F0E94C8000E946A030F900F902A
:10030000DF91CF911F910C945A03FF920F931F938B
:10031000CF93DF938C01EB01FC011082188288E6F9
:100320000E94500381E10E946A030E945A0362E026
:1003300088E60E9443030E94B703882381F00E944D
:10034000BD03F82E0E94BD03F801F08282958695C8
:100350008695837099E1899F802D11248883DF9190
:10036000CF911F910F91FF900895CF93DF93C82FE6
:1003700088E60E9450038EE00E946A030E945A039E
:1003800061E088E60E9443030E94BD03D82F88E6FF
:100390000E9450038EE00E946A038D2F80620E94AB
:1003A0006A030E945A03CC2381F088E60E9450031E
:1003B0008EE00E946A030E945A0361E088E60E9470
:1003C00043030E94BD0385FDF0CFDF91CF910895D7
:1003D000CF93DF93D82F88E60E9450038EE00E94CF
:1003E0006A030E945A0361E088E60E9443030E9468
:1003F000BD03C82FDD2319F0CB7FC06401C0CF7BC4
:1004000088E60E9450038EE00E946A038C2F0E94AF
:100410006A03DF91CF910C945A03CF93C82F88E6DB
:100420000E9450038EE00E946A030E945A0361E01A
:1004300088E60E9443030E94BD03877EC295C07F69
:10044000C82B88E60E9450038EE00E946A038C2F1E
:100450000E946A03CF910C945A03CF93DF93D82F55
:1004600088E60E9450038FE00E946A030E945A03AC
:1004700061E088E60E9443030E94BD03C82FDD238C
:1004800011F0C86001C0C77F88E60E9450038FE06A
:100490000E946A038C2F0E946A03DF91CF910C9413
:1004A0005A0367E080E00E94EB0068E080E00E9471
:1004B000EB0069E080E00E94EB006AE080E00C94D1
:1004C000EB00CF93C82F8EE00E94DA006EE0CC23C1
:1004D00011F0856001C08A7FCF910C94EB00DF9210
:1004E000EF92FF920F931F93CF93DF93C82F683142
:1004F00008F045C04C3308F042C02C3308F03FC030
:10050000822FD42ED62F0E94C80090E8C99F900158
:10051000112467E0822B0E94EB008D2D0E94C80001
:10052000C1FBEE24E0F8F12CF694FE2CEE24F794B7
:10053000E79468E08E290E94EB008D2F0E94C8008E
:10054000C2FB002700F910E01695102F0027179521
:10055000079569E0802B0E94EB006AE080E80E942A
:10056000EB008FE00E94DA006FE08E7FDF91CF9189
:100570001F910F91FF90EF90DF900C94EB00DF91B3
:10058000CF911F910F91FF90EF90DF900895EF9220
:10059000FF920F931F93CF93DF93EC018B017A01AE
:1005A00087E00E94DA008F770E94D100F7018083F4
:1005B00088E00E94DA008F770E94D100F8018083E2
:1005C00089E00E94DA008F770E94D1008883DF9152
:1005D000CF911F910F91FF90EF900895CF938FE0EF
:1005E0000E94DA00C82FC17080FF04C06FE08E7FC8
:1005F0000E94EB008C2FCF910895AC01E091BD01DA
:10060000F091BE013097E1F090910E0180910D01C3
:100610009817B0F090E0292F30E02617370754F4F0
:10062000DA01A20FB31F8C91D901A358BE4F8C934E
:100630009F5FF1CF10920E0160930D01CB010994E1
:100640000895E0917B01F0917C01309729F01092A0
:100650000B0110920A010994089510920E01109254
:100660000D0110920B0110920A010C94D8030E9404
:10067000EB0381E293E00E947D048DEF92E00E9403
:1006800078040C942D03462F613208F040E26DE7A8
:1006900071E00E94EF0310920E0180930D01089506
:1006A00091E09093090180930C0110920B0110923C
:1006B0000A01089521E040910A016DE971E08091FD
:1006C0000C010E94200410920B0110920A0110925A
:1006D00009010895CF93DF931F92CDB7DEB78983C9
:1006E00080910901882391F080910A01803298F469
:1006F00080910B01E82FF0E0E356FE4F9981908343
:100700008F5F80930B0180930A0105C061E0CE01E9
:1007100001960E945F040F90DF91CF9108950F938F
:100720001F93CF93DF9320910901222359F0162FB5
:10073000082FEC018C2F801B811750F489910E94A7
:100740006A03F8CFDF91CF911F910F910C945F0452
:10075000DF91CF911F910F910895FC01019000202E
:10076000E9F73197BF01681B790B0C948F038091D7
:100770000D0190910E01891B089590910E018091B9
:100780000D01981748F4E92FF0E0E358FE4F8081FF
:100790009F5F90930E01089580E008959093BE01AD
:1007A0008093BD01089590937C0180937B0108950F
:1007B00010927A01449A459AE9EBF0E080818E7FAD
:1007C000808380818D7F808388E48093B80085E476
:1007D0008093BC000895880F8093BA000895413239
:1007E00068F590917A019111FCCF91E090937A0194
:1007F0009FEF90930F0110925401940F9093530127
:10080000880F81608093790185EE8093BC00809190
:100810007A018130E1F380915401841710F4409102
:10082000540125E531E0FB01D9018A2F821B841791
:1008300018F48D918193F9CF842F089580E0089565
:100840004132B0F590917A019111FCCF32E03093B2
:100850007A013FEF30930F011092540140935301FE
:10086000FB0165E571E0DB013A2F361B341718F404
:1008700031913D93F9CF482F50E0440F551F4093DD
:10088000790185EE8093BC00222321F080917A01CA
:100890008230D1F380910F018F3F79F080910F0169
:1008A000803241F080910F01803331F094E005C037
:1008B00091E003C092E001C093E0892F0895613276
:1008C00098F420917A01243089F460933101FC017D
:1008D00023E331E0D9018A2F821B861718F4819116
:1008E0008D93F9CF80E0089581E0089582E0089526
:1008F0009093760180937501089590937801809389
:1009000077010895882311F085EC01C085E8809374
:10091000BC00089585ED8093BC008091BC0084FDEF
:10092000FCCF10927A01089585EC8093BC00109260
:100930007A0108951F920F920FB60F9211242F93F0
:100940003F934F935F936F937F938F939F93AF9357
:10095000BF93EF93FF938091B900887F803609F4AD
:1009600095C068F5883209F45BC090F4803109F4D1
:1009700054C038F4882309F4EEC0883009F44DC01F
:10098000EEC0883109F44CC0803209F45EC0E7C083
:10099000803409F469C048F4803309F456C08833C0
:1009A00009F0DDC080930F01A1C0803509F450C06B
:1009B000883509F45EC0883409F0D1C0CEC08839CA
:1009C00009F4BFC0A8F4883709F460C038F4883649
:1009D00009F45CC0803709F459C0C1C0883809F4F3
:1009E000B0C0803909F458C0803809F0B8C054C08C
:1009F000803B09F47EC038F4803A09F45FC0883A3D
:100A000009F477C0ACC0803C09F49FC0883C09F46D
:100A10009CC0883B09F482C0A2C08091790111C0BA
:100A20009091540180915301981708F096C0E0917D
:100A3000540181E08E0F80935401F0E0EB5AFE4F99
:100A400080818093BB0085EC7DC080930F0185C0C1
:100A5000E091540181E08E0F809354018091BB009E
:100A6000F0E0EB5AFE4F8083909154018091530146
:100A700065C0E091540181E08E0F80935401809114
:100A8000BB00F0E0EB5AFE4F808367C083E08093A9
:100A90007A0110921001D7CF80911001803208F0B6
:100AA00050C0E091100181E08E0F80931001809181
:100AB000BB00F0E0EF5EFE4F8083C5CF8091100158
:100AC000803230F4E0911001F0E0EF5EFE4F1082D2
:100AD0000E948A046091100170E0E0917501F0912C
:100AE000760181E191E00995109210010E94940431
:100AF00036C084E080937A01109232011092310165
:100B0000E0917701F091780109958091310181118F
:100B100005C081E08093310110923301E0913201F0
:100B200081E08E0F80933201F0E0ED5CFE4F80811A
:100B30008093BB009091320180913101981708F4A5
:100B400082CF85E88093BC000AC085EC8093BC000E
:100B500010927A0104C010920F010E948A04FF9142
:100B6000EF91BF91AF919F918F917F916F915F9125
:100B70004F913F912F910F900FBE0F901F9018959E
:100B8000AF92BF92CF92DF92EF92FF920F931F939B
:100B9000F9014115510511F52091B10021FF02C065
:100BA00034E001C030E02091B10020FD326020919E
:100BB000B1002091B1002B7F2093B1002091B100B2
:100BC0002D7F2093B1002091B1002E7F2093B100A2
:100BD0002091640020642093640001C030E061151E
:100BE000710551F420917A002F7720937A0020919B
:100BF0006400216020936400309729F42091640000
:100C00002860209364000115110529F420916400E7
:100C1000206220936400E114F10429F4209164001F
:100C2000246020936400C114D10429F4209164004D
:100C3000226020936400A114B10429F4209164007F
:100C40002068209364008A309105A9F083FD02C0DA
:100C500028E001C028E28770822B98E10FB6F89453
:100C6000A895909360000FBE809360008091600013
:100C700080648093600083B7817F83BFF89483B7DB
:100C8000816083BF7894889583B78E7F83BF789483
:100C9000672B51F4809164008E7F80936400809173
:100CA0007A00806880937A00452B61F431FF05C09B
:100CB0008091B10084608093B100809164008F7B4B
:100CC00080936400EF2B29F480916400877F8093E8
:100CD0006400012B29F4809164008F7D809364006F
:100CE000EF2829F4809164008B7F80936400CD28E5
:100CF00029F4809164008D7F80936400AB2829F4EF
:100D0000809164008F77809364001F910F91FF9012
:100D1000EF90DF90CF90BF90AF90089541155105AF
:100D2000C1F42091B10021FF02C024E001C020E005
:100D30003091B10030FD2260E1EBF0E03081308194
:100D40003B7F308330813D7F308330813E7F3083F5
:100D500001C020E06115710529F4EAE7F0E0308177
:100D60003F7730838A309105A9F083FD02C038E0D7
:100D700001C038E28770832B98E10FB6F894A895EC
:100D8000909360000FBE80936000E0E6F0E0808109
:100D90008064808383B7817F826083BFF89483B748
:100DA000816083BF7894889583B78E7F83BF789462
:100DB000672B29F4EAE7F0E0808180688083452B87
:100DC00039F421FF05C0E1EBF0E08081846080838D
:100DD00008956115710529F4EAE7F0E020812F7785
:100DE00020838A309105A9F083FD02C028E001C06C
:100DF00028E28770822B98E10FB6F894A89590931B
:100E000060000FBE80936000E0E6F0E080818064C7
:100E10008083452BA1F483B7817F846083BFF894DE
:100E200083B7816083BF85B7806685BF8F7D85BFAF
:100E30007894889583B78E7F83BF78940EC083B7EC
:100E4000817F846083BFF89483B7816083BF789487
:100E5000889583B78E7F83BF7894672B29F4EAE760
:100E6000F0E08081806880830895DA0121153105E2
:100E7000C1F44091B10041FF02C054E001C050E014
:100E80004091B10040FD5260E1EBF0E040814081D3
:100E90004B7F408340814D7F408340814E7F408324
:100EA00001C050E06115710529F4EAE7F0E04081E6
:100EB0004F7740838A309105A9F083FD02C048E056
:100EC00001C048E28770842B98E10FB6F894A8958A
:100ED000909360000FBE80936000E0E6F0E08081B8
:100EE00080648083AB2BA1F483B7817F866083BF4E
:100EF000F89483B7816083BF85B7806685BF8F7D97
:100F000085BF7894889583B78E7F83BF78940EC011
:100F100083B7817F866083BFF89483B7816083BF86
:100F20007894889583B78E7F83BF7894672B29F454
:100F3000EAE7F0E0808180688083232B39F451FF59
:100F400005C0E1EBF0E08081846080830895611545
:100F5000710529F4EAE7F0E020812F7720838A30B9
:100F60009105A9F083FD02C028E001C028E2877046
:100F7000822B98E10FB6F894A895909360000FBE6D
:100F800080936000E0E6F0E0808180648083452B00
:100F9000A1F483B7817F8C6083BFF89483B78160AD
:100FA00083BF85B7806685BF8F7D85BF7894889520
:100FB00083B78E7F83BF78940EC083B7817F8C60A8
:100FC00083BFF89483B7816083BF7894889583B793
:100FD0008E7F83BF7894672B29F4EAE7F0E0808165
:100FE000806880830895DA0121153105C1F44091AC
:100FF000B10041FF02C054E001C050E04091B10097
:1010000040FD5260E1EBF0E0408140814B7F408346
:1010100040814D7F408340814E7F408301C050E03E
:101020006115710529F4EAE7F0E040814F774083CC
:101030008A309105A9F083FD02C048E001C048E272
:101040008770842B98E10FB6F894A8959093600070
:101050000FBE80936000E0E6F0E0808180648083D2
:10106000AB2B99F483B78E6083BFF89483B781600C
:1010700083BF85B7806685BF8F7D85BF789488954F
:1010800083B78E7F83BF78940DC083B78E6083BF94
:10109000F89483B7816083BF7894889583B78E7FF7
:1010A00083BF7894672B29F4EAE7F0E080818068B9
:1010B0008083232B39F451FF05C0E1EBF0E0808100
:1010C0008460808308951F920F920FB60F921124AF
:1010D0008F930FB6F894A8958091600088618093F3
:1010E0006000109260000FBE8F910F900FBE0F90A6
:1010F0001F901895442369F022E02093C0009B01C3
:10110000AC0193E0220F331F441F551F9A95D1F76E
:1011100009C09B01AC0184E0220F331F441F551FFF
:101120008A95D1F760E072E18AE790E00E94710948
:10113000215031093093C5002093C4008091C20032
:101140008F738093C2008091C2008F7C8093C20015
:101150008091C200877F8093C2008091C2008B7F04
:101160008093C2008091C20086608093C20088E1B3
:101170008093C10008958091C00087FFFCCF8091CB
:10118000C6000895CF92DF92EF92FF921F93CF9304
:10119000DF931F92CDB7DEB7182F6C018C2D811B0A
:1011A000861760F4760169830E94BB08F60181937B
:1011B0006F0169818D3091F7F70110820F90DF91F7
:1011C000CF911F91FF90EF90DF90CF900895909175
:1011D000C00095FFFCCF8093C6000895CF93DF93A6
:1011E000EC018991882319F00E94E708FACFDF917A
:1011F000CF910895529853985A9A5B9A209A809169
:1012000069008E7F8093690080916900826080937D
:101210006900809169008460809369008091690011
:10122000886080936900E89AE99A289878940E94E7
:101230002D0347E063E180E00E945E0180E00E94B0
:10124000E80181E00E94610225E043E167E18EE070
:101250000E946F0278940E94EE0240E050E060E04D
:1012600070E08AE090E00E94E906F894809108011D
:101270008823B1F0289A41E060E076E980E090E0D0
:101280000E947A080DC080E091E00E94EE082FEFE6
:1012900089E698E1215080409040E1F700C00000CD
:1012A000809108018823B1F24B99EDCF28981092D4
:1012B00008012FEF82E597E0215080409040E1F750
:1012C00000C00000E09AE19AC5CF991B79E004C004
:1012D000991F961708F0961B881F7A95C9F7809575
:1012E0000895A1E21A2EAA1BBB1BFD010DC0AA1F67
:1012F000BB1FEE1FFF1FA217B307E407F50720F07F
:10130000A21BB30BE40BF50B661F771F881F991FF9
:101310001A9469F760957095809590959B01AC0142
:0A132000BD01CF010895F894FFCF3E
:08132A0042656570210D0A0007
:00000001FF
