:100000000C9434000C9449000C9449000C94490061
:100010000C9449000C9449000C9449000C9449003C
:100020000C9449000C9449000C9449000C9449002C
:100030000C9449000C9449000C9449000C9449001C
:100040000C9449000C9449000C9449000C9449000C
:100050000C9449000C9449000C9449000C944900FC
:100060000C9449000C94490011241FBECFEFD8E036
:10007000DEBFCDBF11E0A0E0B1E0E2E1F8E002C0F8
:1000800005900D92A430B107D9F70E94D5000C94C9
:1000900007040C9400000DB407FEFDCF8EB5089543
:1000A0008EBD0DB407FEFDCF0895442369F022E014
:1000B0002093C0009B01AC0193E0220F331F441F2B
:1000C000551F9A95D1F709C09B01AC0184E0220F1E
:1000D000331F441F551F8A95D1F760E072E18AE70C
:1000E00090E00E941501215031093093C500209302
:1000F000C4008091C2008F738093C2008091C200BF
:100100008F7C8093C2008091C200877F8093C20061
:100110008091C2008B7F8093C2008091C200866074
:100120008093C20088E18093C10008958091C0004F
:1001300087FFFCCF8091C6000895CF92DF92EF92A7
:10014000FF921F93CF93DF931F92CDB7DEB7182F87
:100150006C018C2D811B861760F4760169830E94E7
:100160009600F60181936F0169818D3091F7F70157
:1001700010820F90DF91CF911F91FF90EF90DF9051
:10018000CF9008959091C00095FFFCCF8093C6005A
:100190000895CF93DF93EC018991882319F00E9491
:1001A000C200FACFDF91CF910895CF93DF93CDB7FF
:1001B000DEB7E2970FB6F894DEBF0FBECDBF239A2D
:1001C000259A409A419A82E58CBD409841E064E6C8
:1001D0007CED85E090E00E94550080E0E82E81E013
:1001E000F82E8E010F5F1F4F0E944B00282F082E04
:1001F000000C330B3F938F93FF92EF921F930F935B
:100200000E943701C8010E94C9002FEF84E39CE0DF
:10021000215080409040E1F700C000000F900F9007
:100220000F900F900F900F90DFCFA1E21A2EAA1B14
:10023000BB1BFD010DC0AA1FBB1FEE1FFF1FA21796
:10024000B307E407F50720F0A21BB30BE40BF50B93
:10025000661F771F881F991F1A9469F7609570951C
:10026000809590959B01AC01BD01CF010895AEE052
:10027000B0E0EDE3F1E00C94DE030D891E8986E029
:100280008C831A8309838FEF9FE79E838D83AE0152
:10029000475E5F4F6F89788DCE0101960E945901AC
:1002A000EF81F885E00FF11F10822E96E4E00C94A8
:1002B000FA03ACE0B0E0EFE5F1E00C94D0036C01A0
:1002C0007B018A01FC0117821682838181FFBEC1F6
:1002D000CE0101964C01F6019381F70193FD8591C2
:1002E00093FF81917F01882309F4ACC1853239F4F1
:1002F00093FD859193FF81917F01853229F4B601A9
:1003000090E00E944203E7CF512C312C20E02032B4
:10031000A0F48B3269F030F4803259F0833269F402
:1003200020612CC08D3239F0803339F4216026C031
:100330002260246023C0286021C027FD27C030ED43
:10034000380F3A3078F426FF06C0FAE05F9E300D91
:100350001124532E13C08AE0389E300D1124332E01
:1003600020620CC08E3221F426FD6CC1206406C0D0
:100370008C3611F4206802C0883641F4F70193FDF1
:10038000859193FF81917F018111C1CF982F9F7D2E
:100390009554933028F40C5F1F4F9FE399830DC051
:1003A000833631F0833771F0833509F05BC022C0AA
:1003B000F801808189830E5F1F4F44244394512CA0
:1003C000540115C03801F2E06F0E711CF801A080D5
:1003D000B18026FF03C0652D70E002C06FEF7FEF94
:1003E000C5012C870E9437032C0183012C852F77B0
:1003F000222E17C03801F2E06F0E711CF801A080A8
:10040000B18026FF03C0652D70E002C06FEF7FEF63
:10041000C5012C870E942C032C012C852068222EDC
:10042000830123FC1BC0832D90E048165906B0F4CD
:10043000B60180E290E00E9442033A94F4CFF501C5
:1004400027FC859127FE81915F01B60190E00E9413
:10045000420331103A94F1E04F1A5108411451040B
:1004600071F7E6C0843611F0893639F5F80127FFB7
:1004700007C060817181828193810C5F1F4F08C02A
:1004800060817181072E000C880B990B0E5F1F4F46
:100490002F76722E97FF09C0909580957095619583
:1004A0007F4F8F4F9F4F2068722E2AE030E0A401CB
:1004B0000E947203A82EA81844C0853729F42F7E05
:1004C000B22E2AE030E025C0F22FF97FBF2E8F3602
:1004D000C1F018F4883579F0B5C0803719F0883745
:1004E00021F0B0C02F2F2061B22EB4FE0DC08B2D95
:1004F0008460B82E09C024FF0AC09F2F9660B92ED1
:1005000006C028E030E005C020E130E002C020E174
:1005100032E0F801B7FE07C060817181828193816A
:100520000C5F1F4F06C06081718180E090E00E5F1C
:100530001F4FA4010E947203A82EA818FB2DFF775D
:100540007F2E76FE0BC0372D3E7FA51450F474FE2F
:100550000AC072FC08C0372D3E7E05C0BA2C372D6C
:1005600003C0BA2C01C0B52C34FF0DC0FE01EA0D4A
:10057000F11D8081803311F4397E09C032FF06C03D
:10058000B394B39404C0832F867809F0B39433FDF9
:1005900013C030FF06C0B31498F43A0C532C5B1808
:1005A00010C0B31470F4B60180E290E03C870E9462
:1005B0004203B3943C85F5CFB31418F43B1802C042
:1005C0005A2C312C34FF12C0B60180E390E03C87F6
:1005D0000E9442033C8532FF17C031FD03C088E70B
:1005E00090E002C088E590E0B6010CC0832F8678C9
:1005F00059F031FF02C08BE201C080E237FD8DE28D
:10060000B60190E00E944203A51438F4B60180E3DD
:1006100090E00E9442035A94F7CFAA94F401EA0DA5
:10062000F11D8081B60190E00E944203A110F5CF38
:10063000332009F450CEB60180E290E00E944203DC
:100640003A94F6CFF6018681978102C08FEF9FEF33
:100650002C96E2E10C94EC03FC0105906150704093
:100660000110D8F7809590958E0F9F1F0895FC017B
:100670006150704001900110D8F7809590958E0FD1
:100680009F1F08950F931F93CF93DF93182F092F68
:10069000EB018B8181FD03C08FEF9FEF1EC082FFB6
:1006A0000FC02E813F818C819D812817390774F4FA
:1006B000E881F981CF01019699838883108306C070
:1006C000E885F985812F0995892B31F78E819F81E6
:1006D00001969F838E83812F902FDF91CF911F9161
:1006E0000F910895FA01AA27283051F1203181F1A4
:1006F000E8946F936E7F6E5F7F4F8F4F9F4FAF4F2A
:10070000B1E03ED0B4E03CD0670F781F891F9A1F3C
:10071000A11D680F791F8A1F911DA11D6A0F711DF0
:10072000811D911DA11D20D009F468943F912AE0FC
:10073000269F11243019305D3193DEF6CF010895E4
:10074000462F4770405D4193B3E00FD0C9F7F6CF15
:10075000462F4F70405D4A3318F0495D31FD4052DD
:10076000419302D0A9F7EACFB4E0A6959795879573
:1007700077956795BA95C9F7009761057105089552
:100780009B01AC010A2E06945795479537952795FE
:10079000BA95C9F7620F731F841F951FA01D089596
:1007A0002F923F924F925F926F927F928F929F9281
:1007B000AF92BF92CF92DF92EF92FF920F931F936F
:1007C000CF93DF93CDB7DEB7CA1BDB0B0FB6F89420
:1007D000DEBF0FBECDBF09942A88398848885F8460
:1007E0006E847D848C849B84AA84B984C884DF80D1
:1007F000EE80FD800C811B81AA81B981CE0FD11DB5
:100800000FB6F894DEBF0FBECDBFED010895F8948A
:02081000FFCF18
:040812002578000045
:00000001FF
