:100000000C9434000C945D000C946F000C9446002A
:100010000C9446000C9446000C942E080C94460058
:100020000C9446000C9446000C9446000C94460038
:100030000C9446000C9446000C9446000C94460028
:100040000C9446000C9446000C9446000C94460018
:100050000C9446000C9446000C9446000C94460008
:100060000C9465040C94460011241FBECFEFD8E019
:10007000DEBFCDBF21E0A0E0B1E001C01D92A63BF4
:10008000B207E1F70E9445080C948E080C9400001A
:10009000289A2FEF83EC99E0215080409040E1F7BF
:1000A00000C0000028982FEF83EC99E02150804099
:1000B0009040E1F700C0000008951F920F920FB624
:1000C0000F9211248F939F9385B191E0892785B971
:1000D0009F918F910F900FBE0F901F9018951F92B8
:1000E0000F920FB60F9211242F933F934F935F936C
:1000F0006F937F938F939F93AF93BF93EF93FF93F0
:100100000E944800FF91EF91BF91AF919F918F9115
:100110007F916F915F914F913F912F910F900FBE03
:100120000F901F9018956AE00E94820820E1829F3C
:10013000900D1124892F0895982F92959F708F709C
:100140002AE0929F800D11240895CF93C82F88E64E
:100150000E941B038C2F0E9435030E94250361E03F
:1001600088E60E940E03CF910C9488031F93CF93CF
:10017000DF931F92CDB7DEB7182F88E669830E9400
:100180001B036981862F0E943503812F0E9435034E
:100190000F90DF91CF911F910C9425039F92AF9206
:1001A000BF92CF92DF92EF92FF920F931F93CF9364
:1001B000DF93CDB7DEB729970FB6F894DEBF0FBE39
:1001C000CDBF7C016B015A0188E60E941B0380E0D1
:1001D0000E9435030E94250367E088E60E940E0313
:1001E0008E010F5F1F4F87E0982E900E0E948803AC
:1001F000F80181938F019E12F9CF0E942503A1146B
:10020000B10429F089810E949C00F5018083C1140A
:10021000D10429F08A810E949C00F6018083E114B8
:10022000F10429F08B810E949C00F70180832996BC
:100230000FB6F894DEBF0FBECDBFDF91CF911F91F7
:100240000F91FF90EF90DF90CF90BF90AF909F9075
:1002500008951F93CF93DF9300D0CDB7DEB7182F4B
:1002600088E649836A830E941B0380E00E9435036D
:100270004981842F0E9493000E9435036A81862F52
:100280000E9493000E943503812F0E9493000E94D8
:1002900035030F900F90DF91CF911F910C942503A0
:1002A000FF920F931F93CF93DF938C01EB01FC011F
:1002B0001082188288E60E941B0381E10E943503A8
:1002C0000E94250362E088E60E940E030E948203DA
:1002D000882381F00E948803F82E0E948803F80189
:1002E000F082829586958695837099E1899F802D0D
:1002F00011248883DF91CF911F910F91FF90089572
:10030000CF93DF93C82F88E60E941B038EE00E94E4
:1003100035030E94250361E088E60E940E030E94D7
:100320008803D82F88E60E941B038EE00E943503C5
:100330008D2F80620E9435030E942503CC2381F01B
:1003400088E60E941B038EE00E9435030E9425036D
:1003500061E088E60E940E030E94880385FDF0CFCD
:10036000DF91CF910895CF93DF93D82F88E60E9435
:100370001B038EE00E9435030E94250361E088E69E
:100380000E940E030E948803C82FDD2319F0CB7F43
:10039000C06401C0CF7B88E60E941B038EE00E94F0
:1003A00035038C2F0E943503DF91CF910C942503E8
:1003B000CF93C82F88E60E941B038EE00E9435036E
:1003C0000E94250361E088E60E940E030E948803D4
:1003D000877EC295C07FC82B88E60E941B038EE0F3
:1003E0000E9435038C2F0E943503CF910C94250376
:1003F000CF93DF93D82F88E60E941B038FE00E94E3
:1004000035030E94250361E088E60E940E030E94E6
:100410008803C82FDD2311F0C86001C0C77F88E6BC
:100420000E941B038FE00E9435038C2F0E9435032E
:10043000DF91CF910C94250367E080E00E94B60025
:1004400068E080E00E94B60069E080E00E94B600AB
:100450006AE080E00C94B600CF93C82F8EE00E9433
:10046000A5006EE0CC2311F0856001C08A7FCF919A
:100470000C94B600DF92EF92FF920F931F93CF93ED
:10048000DF93C82F683108F045C04C3308F042C0F4
:100490002C3308F03FC0822FD42ED62F0E94930019
:1004A00090E8C99F9001112467E0822B0E94B6005A
:1004B0008D2D0E949300C1FBEE24E0F8F12CF69400
:1004C000FE2CEE24F794E79468E08E290E94B60093
:1004D0008D2F0E949300C2FB002700F910E01695B3
:1004E000102F00271795079569E0802B0E94B60012
:1004F0006AE080E80E94B6008FE00E94A5006FE0ED
:100500008E7FDF91CF911F910F91FF90EF90DF9041
:100510000C94B600DF91CF911F910F91FF90EF9057
:10052000DF900895EF92FF920F931F93CF93DF9385
:10053000EC018B017A0187E00E94A5008F770E9471
:100540009C00F701808388E00E94A5008F770E94BD
:100550009C00F801808389E00E94A5008F770E94AB
:100560009C008883DF91CF911F910F91FF90EF90B6
:100570000895CF938FE00E94A500C82FC17080FF1F
:1005800004C06FE08E7F0E94B6008C2FCF9108953B
:10059000AC01E091B401F091B5013097E1F0909198
:1005A0000501809104019817B0F090E0292F30E008
:1005B0002617370754F4DA01A20FB31F8C91D90123
:1005C000AC58BE4F8C939F5FF1CF109205016093A2
:1005D0000401CB0109940895E0917201F091730137
:1005E000309729F0109202011092010109940895A8
:1005F0001092050110920401109202011092010163
:100600000C94A3030E94B6038CEE92E00E9448046F
:1006100088EC92E00E9443040C94F802462F613269
:1006200008F040E264E771E00E94BA03109205010D
:1006300080930401089591E0909300018093030159
:100640001092020110920101089521E040910101F0
:1006500064E971E0809103010E94EB0310920201B2
:1006600010920101109200010895CF93DF931F9221
:10067000CDB7DEB7898380910001882391F0809106
:100680000101803298F480910201E82FF0E0EC56ED
:10069000FE4F998190838F5F8093020180930101C7
:1006A00005C061E0CE0101960E942A040F90DF91FF
:1006B000CF9108950F931F93CF93DF932091000163
:1006C000222359F0162F082FEC018C2F801B811745
:1006D00050F489910E943503F8CFDF91CF911F919B
:1006E0000F910C942A04DF91CF911F910F910895DF
:1006F000FC0101900020E9F73197BF01681B790BDD
:100700000C945A038091040190910501891B08956E
:100710009091050180910401981748F4E92FF0E0C9
:10072000EC58FE4F80819F5F90930501089580E013
:1007300008959093B5018093B40108959093730147
:1007400080937201089510927101449A459AE9EBE1
:10075000F0E080818E7F808380818D7F808388E43C
:100760008093B80085E48093BC000895880F80933F
:10077000BA000895413268F5909171019111FCCF52
:1007800091E0909371019FEF9093060110924B01BD
:10079000940F90934A01880F81608093700185EED9
:1007A0008093BC00809171018130E1F380914B0115
:1007B000841710F440914B012CE431E0FB01D90186
:1007C0008A2F821B841718F48D918193F9CF842F7F
:1007D000089580E008954132B0F590917101911132
:1007E000FCCF32E0309371013FEF3093060110925D
:1007F0004B0140934A01FB016CE471E0DB013A2FAD
:10080000361B341718F431913D93F9CF482F50E03F
:10081000440F551F4093700185EE8093BC00222346
:1008200021F0809171018230D1F3809106018F3FD8
:1008300079F080910601803241F080910601803389
:1008400031F094E005C091E003C092E001C093E074
:10085000892F0895613298F420917101243089F430
:1008600060932801FC012AE231E0D9018A2F821B22
:10087000861718F481918D93F9CF80E0089581E077
:10088000089582E0089590936D0180936C0108951E
:1008900090936F0180936E010895882311F085EC89
:1008A00001C085E88093BC00089585ED8093BC006D
:1008B0008091BC0084FDFCCF10927101089585ECFD
:1008C0008093BC001092710108951F920F920FB691
:1008D0000F9211242F933F934F935F936F937F93C6
:1008E0008F939F93AF93BF93EF93FF938091B90042
:1008F000887F803609F495C068F5883209F45BC0BA
:1009000090F4803109F454C038F4882309F4EEC01F
:10091000883009F44DC0EEC0883109F44CC08032F3
:1009200009F45EC0E7C0803409F469C048F480333C
:1009300009F456C0883309F0DDC080930601A1C0D8
:10094000803509F450C0883509F45EC0883409F058
:10095000D1C0CEC0883909F4BFC0A8F4883709F4E3
:1009600060C038F4883609F45CC0803709F459C097
:10097000C1C0883809F4B0C0803909F458C0803843
:1009800009F0B8C054C0803B09F47EC038F4803A06
:1009900009F45FC0883A09F477C0ACC0803C09F420
:1009A0009FC0883C09F49CC0883B09F482C0A2C067
:1009B0008091700111C090914B0180914A0198176C
:1009C00008F096C0E0914B0181E08E0F80934B01BF
:1009D000F0E0E45BFE4F80818093BB0085EC7DC03E
:1009E0008093060185C0E0914B0181E08E0F8093DA
:1009F0004B018091BB00F0E0E45BFE4F808390915F
:100A00004B0180914A0165C0E0914B0181E08E0F5E
:100A100080934B018091BB00F0E0E45BFE4F80834C
:100A200067C083E08093710110920701D7CF809156
:100A30000701803208F050C0E091070181E08E0F7D
:100A4000809307018091BB00F0E0E85FFE4F808358
:100A5000C5CF80910701803230F4E0910701F0E0CA
:100A6000E85FFE4F10820E9455046091070170E01C
:100A7000E0916C01F0916D0188E091E00995109290
:100A800007010E945F0436C084E0809371011092D8
:100A9000290110922801E0916E01F0916F010995F2
:100AA00080912801811105C081E080932801109276
:100AB0002A01E091290181E08E0F80932901F0E065
:100AC000E65DFE4F80818093BB009091290180916B
:100AD0002801981708F482CF85E88093BC000AC0EB
:100AE00085EC8093BC001092710104C01092060145
:100AF0000E945504FF91EF91BF91AF919F918F910B
:100B00007F916F915F914F913F912F910F900FBE09
:100B10000F901F901895AF92BF92CF92DF92EF92F5
:100B2000FF920F931F93F9014115510511F5209183
:100B3000B10021FF02C034E001C030E02091B100DB
:100B400020FD32602091B1002091B1002B7F2093D5
:100B5000B1002091B1002D7F2093B1002091B10010
:100B60002E7F2093B10020916400206420936400C4
:100B700001C030E06115710551F420917A002F77A2
:100B800020937A00209164002160209364003097C4
:100B900029F4209164002860209364000115110558
:100BA00029F420916400206220936400E114F10490
:100BB00029F420916400246020936400C114D104BE
:100BC00029F420916400226020936400A114B104F0
:100BD00029F4209164002068209364008A309105F4
:100BE000A9F083FD02C028E001C028E28770822BB3
:100BF00098E10FB6F894A895909360000FBE80938B
:100C000060008091600080648093600083B7817F82
:100C100083BFF89483B7816083BF7894889583B746
:100C20008E7F83BF7894672B51F4809164008E7F10
:100C30008093640080917A00806880937A00452BCD
:100C400061F431FF05C08091B10084608093B100F0
:100C5000809164008F7B80936400EF2B29F4809156
:100C60006400877F80936400012B29F480916400E5
:100C70008F7D80936400EF2829F4809164008B7F3E
:100C800080936400CD2829F4809164008D7F809347
:100C90006400AB2829F4809164008F77809364000E
:100CA0001F910F91FF90EF90DF90CF90BF90AF908A
:100CB000089541155105C1F42091B10021FF02C0F2
:100CC00024E001C020E03091B10030FD2260E1EB72
:100CD000F0E0308130813B7F308330813D7F308355
:100CE00030813E7F308301C020E06115710529F419
:100CF000EAE7F0E030813F7730838A309105A9F050
:100D000083FD02C038E001C038E28770832B98E190
:100D10000FB6F894A895909360000FBE8093600082
:100D2000E0E6F0E080818064808383B7817F826029
:100D300083BFF89483B7816083BF7894889583B725
:100D40008E7F83BF7894672B29F4EAE7F0E08081F7
:100D500080688083452B39F421FF05C0E1EBF0E08A
:100D600080818460808308956115710529F4EAE724
:100D7000F0E020812F7720838A309105A9F083FD50
:100D800002C028E001C028E28770822B98E10FB6EC
:100D9000F894A895909360000FBE80936000E0E601
:100DA000F0E0808180648083452BA1F483B7817F4C
:100DB000846083BFF89483B7816083BF85B7806602
:100DC00085BF8F7D85BF7894889583B78E7F83BFDD
:100DD00078940EC083B7817F846083BFF89483B713
:100DE000816083BF7894889583B78E7F83BF789422
:100DF000672B29F4EAE7F0E080818068808308951A
:100E0000DA0121153105C1F44091B10041FF02C062
:100E100054E001C050E04091B10040FD5260E1EB70
:100E2000F0E0408140814B7F408340814D7F408393
:100E300040814E7F408301C050E06115710529F467
:100E4000EAE7F0E040814F7740838A309105A9F0CE
:100E500083FD02C048E001C048E28770842B98E11E
:100E60000FB6F894A895909360000FBE8093600031
:100E7000E0E6F0E0808180648083AB2BA1F483B74F
:100E8000817F866083BFF89483B7816083BF85B715
:100E9000806685BF8F7D85BF7894889583B78E7F68
:100EA00083BF78940EC083B7817F866083BFF89438
:100EB00083B7816083BF7894889583B78E7F83BF23
:100EC0007894672B29F4EAE7F0E0808180688083DA
:100ED000232B39F451FF05C0E1EBF0E08081846001
:100EE000808308956115710529F4EAE7F0E0208117
:100EF0002F7720838A309105A9F083FD02C028E076
:100F000001C028E28770822B98E10FB6F894A8956B
:100F1000909360000FBE80936000E0E6F0E0808177
:100F200080648083452BA1F483B7817F8C6083BF6D
:100F3000F89483B7816083BF85B7806685BF8F7D56
:100F400085BF7894889583B78E7F83BF78940EC0D1
:100F500083B7817F8C6083BFF89483B7816083BF40
:100F60007894889583B78E7F83BF7894672B29F414
:100F7000EAE7F0E08081806880830895DA01211536
:100F80003105C1F44091B10041FF02C054E001C0FD
:100F900050E04091B10040FD5260E1EBF0E0408153
:100FA00040814B7F408340814D7F408340814E7F15
:100FB000408301C050E06115710529F4EAE7F0E0D3
:100FC00040814F7740838A309105A9F083FD02C0AC
:100FD00048E001C048E28770842B98E10FB6F8948E
:100FE000A895909360000FBE80936000E0E6F0E06B
:100FF000808180648083AB2B99F483B78E6083BF3C
:10100000F89483B7816083BF85B7806685BF8F7D85
:1010100085BF7894889583B78E7F83BF78940DC001
:1010200083B78E6083BFF89483B7816083BF789461
:10103000889583B78E7F83BF7894672B29F4EAE77E
:10104000F0E0808180688083232B39F451FF05C054
:10105000E1EBF0E080818460808308951F920F921D
:101060000FB60F9211248F930FB6F894A895809124
:101070006000886180936000109260000FBE8F91C5
:101080000F900FBE0F901F901895529853985A9A30
:101090005B9A209A809169008E7F8093690080918D
:1010A0006900826080936900809169008B7F8093E2
:1010B000690080916900877F80936900E89AE99AC6
:1010C000289878940E94F80247E063E180E00E944B
:1010D000290180E00E94B30181E00E942C0225E0FA
:1010E00043E167E18EE00E943A0278940E94B902DF
:1010F00050E040E070E060E08AE090E00E94B406DA
:10110000F894F3CF991B79E004C0991F961708F063
:10111000961B881F7A95C9F780950895F894FFCF9C
:00000001FF
