:100000000C9434000C94E0000C9406010C94510004
:100010000C9451000C9451000C94180B0C9451004A
:100020000C9451000C9451000C9451000C9451000C
:100030000C9451000C9451000C9451000C945100FC
:100040000C9451000C9451000C9451000C945100EC
:100050000C9451000C9451000C9451000C945100DC
:100060000C944F070C94510011241FBECFEFD8E021
:10007000DEBFCDBF12E0A0E0B1E0EEE5F5E502C0E5
:1000800005900D92A239B107D9F725E0A2E9B2E0B7
:1000900001C01D92A638B207E1F70E94CA220C9453
:1000A000AD2A0C94000085E090E0289A2FEF31EE05
:1000B00044E0215030404040E1F700C00000289863
:1000C0002FEF31EE44E0215030404040E1F700C0D6
:1000D0000000019751F70895EF92FF920F931F933D
:1000E000CF93DF9300D000D000D0CDB7DEB77894A7
:1000F0008E010F5F1F4F78010F5F1F4F9E012D5F15
:100100003F4FAE014C5F5F4FBE016B5F7F4FCE0133
:1001100006960E947903F8948B814A8150E060E052
:1001200070E095E1440F551F661F771F9A95D1F730
:10013000682B8E8190E0A0E0B0E02BE0880F991F43
:10014000AA1FBB1F2A95D1F7482B592B6A2B7B2B53
:100150008D8190E0A0E0B0E035E0880F991FAA1FE4
:10016000BB1F3A95D1F7842B952BA62BB72B2C814F
:100170002695AC01BD01422B898190E08C5B9740B4
:10018000092E000CAA0BBB0BE9E1880F991FAA1FCF
:10019000BB1FEA95D1F78A019B01082B192B2A2B4B
:1001A0003B2BC901B80126960FB6F894DEBF0FBEEF
:1001B000CDBFDF91CF911F910F91FF90EF900895E8
:1001C0001F920F920FB60F9211242F933F934F93CC
:1001D0005F936F937F938F939F93AF93BF93EF93AF
:1001E000FF930E9453000E945300FF91EF91BF9133
:1001F000AF919F918F917F916F915F914F913F91BF
:100200002F910F900FBE0F901F9018951F920F9275
:100210000FB60F9211242F933F934F935F936F93D9
:100220007F938F939F93AF93BF93EF93FF93F89434
:100230002FEF82E597E0215080409040E1F700C029
:1002400000004B9B06C00E94530081E08093920205
:1002500002C010929202FF91EF91BF91AF919F91D6
:100260008F917F916F915F914F913F912F910F905F
:100270000FBE0F901F9018956F927F928F929F9252
:10028000AF92BF92CF92DF92EF92FF920F931F93A4
:10029000CF93DF93CDB7DEB7CB57D1090FB6F89424
:1002A000DEBF0FBECDBF6C014A015B01722E602E16
:1002B00084E0C816D10408F0F8C07894DE01AA588A
:1002C000BF4F7D018E0109581F4F9E0128583F4F97
:1002D000AE0147585F4FBE0166587F4FCE0185582B
:1002E0009F4F0E947903F8946CE073E080E00E94D5
:1002F000CC15892B09F0DCC080E290E00E949F269B
:1003000090930B0380930A03DF92CF9289EB91E0E5
:100310009F938F93025111091F930F930E94D5272A
:1003200042E1B80180910A0390910B030E94E41509
:100330000F900F900F900F900F900F90892B09F056
:10034000ACC080910A0390910B03FC014285538558
:1003500064857585452B462B472BF9F42BE2E7E0A6
:10036000F1E0BE016F5F7F4FDB0101900D922A9596
:10037000E1F7FE01BC9627E0DF011D922A95E9F71F
:10038000FB0101900020E9F73197AF01461B570BA5
:100390009E012C583F4F0E94121A80910A0390919F
:1003A0000B03FC0142855385648575850E94FF1B04
:1003B000892B09F064C020E030E04AE754E4C5012D
:1003C000B4010E9432260E946E251F926F921F92E6
:1003D0007F92CB0168EE73E00E942B249F938F9352
:1003E000C501B4010E946E257F936F93EB968FAD8C
:1003F000EB971F928F93EC968FADEC971F928F9394
:10040000E7968FADE7971F928F93E8968FADE897A9
:100410001F928F93E9968FADE9971F928F9385EC8A
:1004200091E09F938F938E010F5F1F4F1F930F9348
:100430000E94D527F80101900020E9F73197AF011C
:10044000401B510B9E012C583F4FB80180910A036D
:1004500090910B030E94121A80910A0390910B0352
:100460000E94F31B6CE073E080E00E94CC150FB695
:10047000F894DEBF0FBECDBF81E090E01BC080913D
:100480000A0390910B030E94F31B6CE073E080E081
:100490000E94CC158DEF9FEF0DC06CE073E080E003
:1004A0000E94CC158EEF9FEF05C08FEF9FEF02C02B
:1004B00080E090E0C558DF4F0FB6F894DEBF0FBE66
:1004C000CDBFDF91CF911F910F91FF90EF90DF9003
:1004D000CF90BF90AF909F908F907F906F90089536
:1004E000EF92FF920F931F93CF93DF93CDB7DEB7B9
:1004F00061970FB6F894DEBF0FBECDBF7C0189ECCB
:1005000090E00E949F268C0184E0E816F10408F038
:1005100056C06CE073E080E00E94CC15892B09F096
:1005200051C080E290E00E949F2690930B0380933D
:100530000A03FF92EF928CEE91E09F938F93CE018E
:1005400001967C019F938F930E94D52741E0B701CC
:1005500080910A0390910B030E94E4150F900F9075
:100560000F900F900F900F90892B09F59E01205F3F
:100570003F4F48EC50E0B80180910A0390910B0383
:100580000E94D318288939892115310541F0F801D5
:10059000E20FF31F1082C8010E94C60BE7CF6CE088
:1005A00073E080E00E94CC1580E090E00DC06CE02C
:1005B00073E080E00E94CC158EEF9FEF05C08FEFB7
:1005C0009FEF02C081E090E061960FB6F894DEBF25
:1005D0000FBECDBFDF91CF911F910F91FF90EF9094
:1005E0000895EF92FF920F931F93CF93DF93EB0148
:1005F0007A01890129982FEF30E792E021503040AD
:100600009040E1F700C00000982F927080FF03C077
:100610008BB1806402C08BB18F7B8BB98BB1992376
:1006200011F0806801C08F778BB960E070E085E0E1
:1006300090E00E94280CF7018083FFEF20E732E072
:10064000F15020403040E1F700C0000061E070E070
:1006500085E090E00E94280CF80180830E94ED0C58
:10066000688379838A839B83299A80E090E0DF9175
:10067000CF911F910F91FF90EF9008956AE00E9433
:100680001F2420E1829F900D1124892F0895982F17
:1006900092959F708F702AE0929F800D112408958B
:1006A000CF93C82F88E60E9405068C2F0E941F0654
:1006B0000E940F0661E088E60E94F805CF910C9435
:1006C00072061F93CF93DF931F92CDB7DEB7182F1B
:1006D00088E669830E9405066981862F0E941F06AD
:1006E000812F0E941F060F90DF91CF911F910C94D4
:1006F0000F063F924F925F926F927F928F929F92DE
:10070000AF92BF92CF92DF92EF92FF920F931F931F
:10071000CF93DF93CDB7DEB729970FB6F894DEBF3E
:100720000FBECDBF5C014B013A01690188E60E9412
:10073000050680E00E941F060E940F0667E088E61B
:100740000E94F805CE0101962C0187E0382E340C6A
:100750000E947206F20181932F013E12F9CF0E948E
:100760000F066114710429F089810E944703F30187
:1007700080838114910429F08A810E944703F40147
:100780008083A114B10429F08B810E944703F501F5
:100790008083C114D10429F08D810E944703F601A2
:1007A00080830115110529F08E810E944703F8010D
:1007B0008083E114F10429F08F810E944703F7013F
:1007C000808329960FB6F894DEBF0FBECDBFDF91B0
:1007D000CF911F910F91FF90EF90DF90CF90BF903E
:1007E000AF909F908F907F906F905F904F903F90D1
:1007F0000895EF920F931F93CF93DF9300D01F9232
:10080000CDB7DEB7182F88E62B8349836A830E9411
:10081000050680E00E941F064981842F0E943E0346
:100820000E941F066A81862F0E943E030E941F06B7
:10083000812F0E943E030E941F0680E00E941F0637
:100840002B81822F0E943E030E941F06802F0E9450
:100850003E030E941F068E2D0E943E030E941F062B
:100860000F900F900F90DF91CF911F910F91EF900C
:100870000C940F06FF920F931F93CF93DF938C017D
:10088000EB01FC011082188288E60E94050681E1D6
:100890000E941F060E940F0662E088E60E94F8058B
:1008A0000E946C06882381F00E947206F82E0E9436
:1008B0007206F801F082829586958695837099E19B
:1008C000899F802D11248883DF91CF911F910F91F3
:1008D000FF900895CF93DF93C82F88E60E94050606
:1008E0008EE00E941F060E940F0661E088E60E94CB
:1008F000F8050E947206D82F88E60E9405068EE051
:100900000E941F068D2F80620E941F060E940F0604
:10091000CC2381F088E60E9405068EE00E941F0627
:100920000E940F0661E088E60E94F8050E947206A8
:1009300085FDF0CFDF91CF910895CF93DF93D82F2E
:1009400088E60E9405068EE00E941F060E940F06A0
:1009500061E088E60E94F8050E947206C82FDD2338
:1009600019F0CB7FC06401C0CF7B88E60E940506EA
:100970008EE00E941F068C2F0E941F06DF91CF91F0
:100980000C940F06CF93C82F88E60E9405068EE0D0
:100990000E941F060E940F0661E088E60E94F8058B
:1009A0000E947206877EC295C07FC82B88E60E948F
:1009B00005068EE00E941F068C2F0E941F06CF9115
:1009C0000C940F06CF93DF93D82F88E60E9405067C
:1009D0008FE00E941F060E940F0661E088E60E94D9
:1009E000F8050E947206C82FDD2311F0C86001C00F
:1009F000C77F88E60E9405068FE00E941F068C2FA5
:100A00000E941F06DF91CF910C940F0667E080E0F3
:100A10000E94610368E080E00E94610369E080E079
:100A20000E9461036AE080E00C946103CF93C82FB9
:100A30008EE00E9450036EE0CC2311F0856001C06F
:100A40008A7FCF910C946103DF92EF92FF920F9314
:100A50001F93CF93DF93C82F683108F045C04C3304
:100A600008F042C02C3308F03FC0822FD42ED62F7E
:100A70000E943E0390E8C99F9001112467E0822BF9
:100A80000E9461038D2D0E943E03C1FBEE24E0F81D
:100A9000F12CF694FE2CEE24F794E79468E08E296E
:100AA0000E9461038D2F0E943E03C2FB002700F9C4
:100AB00010E01695102F00271795079569E0802BF9
:100AC0000E9461036AE080E80E9461038FE00E9457
:100AD00050036FE08E7FDF91CF911F910F91FF90B8
:100AE000EF90DF900C946103DF91CF911F910F91F4
:100AF000FF90EF90DF900895EF92FF920F931F9376
:100B0000CF93DF93EC018B017A0187E00E945003C1
:100B10008F770E944703F701808388E00E9450038B
:100B20008F770E944703F801808389E00E94500379
:100B30008F770E9447038883DF91CF911F910F9198
:100B4000FF90EF900895CF938FE00E945003C82F3D
:100B5000C17080FF04C06FE08E7F0E9461038C2F04
:100B6000CF910895AC01E0918005F0918105309717
:100B7000E1F090919802809197029817B0F090E080
:100B8000292F30E02617370754F4DA01A20FB31FDC
:100B90008C91D901A05CBA4F8C939F5FF1CF1092DA
:100BA000980260939702CB0109940895E0913E0565
:100BB000F0913F05309729F010929502109294021F
:100BC000099408951092980210929702109295023B
:100BD000109294020C948D060E94A00686ED95E07A
:100BE0000E94320782EB95E00E942D070C94E205EB
:100BF000462F613208F040E260E475E00E94A406EE
:100C00001092980280939702089591E09093930236
:100C1000809396021092950210929402089521E01A
:100C20004091940260E675E0809196020E94D5069C
:100C30001092950210929402109293020895CF930D
:100C4000DF931F92CDB7DEB789838091930288230B
:100C500091F080919402803298F480919502E82F6F
:100C6000F0E0E05AFA4F998190838F5F809395026C
:100C70008093940205C061E0CE0101960E941407A2
:100C80000F90DF91CF9108950F931F93CF93DF9330
:100C900020919302222359F0162F082FEC018C2F5C
:100CA000801B811750F489910E941F06F8CFDF91B5
:100CB000CF911F910F910C941407DF91CF911F9149
:100CC0000F910895FC0101900020E9F73197BF01D1
:100CD000681B790B0C9444068091970290919802BE
:100CE000891B08959091980280919702981748F473
:100CF000E92FF0E0E05CFA4F80819F5F90939802CB
:100D0000089580E00895909381058093800508956B
:100D100090933F0580933E05089510920403449AF2
:100D2000459AE9EBF0E080818E7F808380818D7F22
:100D3000808388E48093B80085E48093BC000895A4
:100D4000880F8093BA000895413268F590910403AA
:100D50009111FCCF91E0909304039FEF909399023F
:100D60001092DE02940F9093DD02880F81608093D1
:100D7000030385EE8093BC00809104038130E1F38E
:100D80008091DE02841710F44091DE022FED32E0F4
:100D9000FB01D9018A2F821B841718F48D9181934E
:100DA000F9CF842F089580E008954132B0F59091F5
:100DB00004039111FCCF32E0309304033FEF3093F2
:100DC00099021092DE024093DD02FB016FED72E0AA
:100DD000DB013A2F361B341718F431913D93F9CFCC
:100DE000482F50E0440F551F4093030385EE809336
:100DF000BC00222321F0809104038230D1F3809142
:100E000099028F3F79F080919902803241F0809170
:100E10009902803331F094E005C091E003C092E084
:100E200001C093E0892F0895613298F42091040362
:100E3000243089F46093BB02FC012DEB32E0D90130
:100E40008A2F821B861718F481918D93F9CF80E049
:100E5000089581E0089582E00895909300038093BF
:100E6000FF0208959093020380930103089588235D
:100E700011F085EC01C085E88093BC00089585EDF4
:100E80008093BC008091BC0084FDFCCF10920403D1
:100E9000089585EC8093BC001092040308951F927E
:100EA0000F920FB60F9211242F933F934F935F939E
:100EB0006F937F938F939F93AF93BF93EF93FF9322
:100EC0008091B900887F803609F495C068F5883232
:100ED00009F45BC090F4803109F454C038F48823DD
:100EE00009F4EEC0883009F44DC0EEC0883109F431
:100EF0004CC0803209F45EC0E7C0803409F469C098
:100F000048F4803309F456C0883309F0DDC080937B
:100F10009902A1C0803509F450C0883509F45EC03B
:100F2000883409F0D1C0CEC0883909F4BFC0A8F414
:100F3000883709F460C038F4883609F45CC080371B
:100F400009F459C0C1C0883809F4B0C0803909F427
:100F500058C0803809F0B8C054C0803B09F47EC046
:100F600038F4803A09F45FC0883A09F477C0ACC01D
:100F7000803C09F49FC0883C09F49CC0883B09F47C
:100F800082C0A2C08091030311C09091DE028091C3
:100F9000DD02981708F096C0E091DE0281E08E0F26
:100FA0008093DE02F0E0E152FD4F80818093BB0030
:100FB00085EC7DC08093990285C0E091DE0281E0DE
:100FC0008E0F8093DE028091BB00F0E0E152FD4F76
:100FD00080839091DE028091DD0265C0E091DE02A7
:100FE00081E08E0F8093DE028091BB00F0E0E15241
:100FF000FD4F808367C083E08093040310929A02C0
:10100000D7CF80919A02803208F050C0E0919A02C6
:1010100081E08E0F80939A028091BB00F0E0E5564C
:10102000FD4F8083C5CF80919A02803230F4E091E9
:101030009A02F0E0E556FD4F10820E943F07609152
:101040009A0270E0E091FF02F09100038BE992E0D8
:10105000099510929A020E94490736C084E0809355
:1010600004031092BC021092BB02E0910103F091C4
:10107000020309958091BB02811105C081E0809334
:10108000BB021092BD02E091BC0281E08E0F809302
:10109000BC02F0E0E354FD4F80818093BB0090914F
:1010A000BC028091BB02981708F482CF85E8809338
:1010B000BC000AC085EC8093BC001092040304C0FD
:1010C000109299020E943F07FF91EF91BF91AF915B
:1010D0009F918F917F916F915F914F913F912F9150
:1010E0000F900FBE0F901F901895AF92BF92CF92A6
:1010F000DF92EF92FF920F931F93F9014115510573
:1011000011F52091B10021FF02C034E001C030E0B0
:101110002091B10020FD32602091B1002091B100FA
:101120002B7F2093B1002091B1002D7F2093B1003F
:101130002091B1002E7F2093B100209164002064A3
:101140002093640001C030E06115710551F42091D5
:101150007A002F7720937A002091640021602093F9
:101160006400309729F42091640028602093640083
:101170000115110529F42091640020622093640078
:10118000E114F10429F420916400246020936400A8
:10119000C114D10429F420916400226020936400DA
:1011A000A114B10429F42091640020682093640004
:1011B0008A309105A9F083FD02C028E001C028E231
:1011C0008770822B98E10FB6F894A89590936000F1
:1011D0000FBE809360008091600080648093600007
:1011E00083B7817F83BFF89483B7816083BF78948E
:1011F000889583B78E7F83BF7894672B51F4809155
:1012000064008E7F8093640080917A008068809370
:101210007A00452B61F431FF05C08091B1008460F4
:101220008093B100809164008F7B80936400EF2BEA
:1012300029F480916400877F80936400012B29F456
:10124000809164008F7D80936400EF2829F4809161
:1012500064008B7F80936400CD2829F48091640022
:101260008D7F80936400AB2829F4809164008F7790
:10127000809364001F910F91FF90EF90DF90CF90CB
:10128000BF90AF90089541155105C1F42091B10070
:1012900021FF02C024E001C020E03091B10030FD08
:1012A0002260E1EBF0E0308130813B7F30833081A0
:1012B0003D7F308330813E7F308301C020E0611567
:1012C000710529F4EAE7F0E030813F7730838A3016
:1012D0009105A9F083FD02C038E001C038E28770B3
:1012E000832B98E10FB6F894A895909360000FBEF9
:1012F00080936000E0E6F0E080818064808383B7C3
:10130000817F826083BFF89483B7816083BF7894C4
:10131000889583B78E7F83BF7894672B29F4EAE79B
:10132000F0E0808180688083452B39F421FF05C07F
:10133000E1EBF0E0808184608083089561157105A0
:1013400029F4EAE7F0E020812F7720838A309105A5
:10135000A9F083FD02C028E001C028E28770822B3B
:1013600098E10FB6F894A895909360000FBE809313
:101370006000E0E6F0E0808180648083452BA1F48A
:1013800083B7817F846083BFF89483B7816083BF14
:1013900085B7806685BF8F7D85BF7894889583B734
:1013A0008E7F83BF78940EC083B7817F846083BFB4
:1013B000F89483B7816083BF7894889583B78E7FD4
:1013C00083BF7894672B29F4EAE7F0E08081806896
:1013D00080830895DA0121153105C1F44091B100EF
:1013E00041FF02C054E001C050E04091B10040FD17
:1013F0005260E1EBF0E0408140814B7F40834081CF
:101400004D7F408340814E7F408301C050E0611595
:10141000710529F4EAE7F0E040814F7740838A3094
:101420009105A9F083FD02C048E001C048E2877041
:10143000842B98E10FB6F894A895909360000FBEA6
:1014400080936000E0E6F0E0808180648083AB2BD5
:10145000A1F483B7817F866083BFF89483B78160EE
:1014600083BF85B7806685BF8F7D85BF789488955B
:1014700083B78E7F83BF78940EC083B7817F8660E9
:1014800083BFF89483B7816083BF7894889583B7CE
:101490008E7F83BF7894672B29F4EAE7F0E08081A0
:1014A00080688083232B39F451FF05C0E1EBF0E025
:1014B00080818460808308956115710529F4EAE7CD
:1014C000F0E020812F7720838A309105A9F083FDF9
:1014D00002C028E001C028E28770822B98E10FB695
:1014E000F894A895909360000FBE80936000E0E6AA
:1014F000F0E0808180648083452BA1F483B7817FF5
:101500008C6083BFF89483B7816083BF85B78066A2
:1015100085BF8F7D85BF7894889583B78E7F83BF85
:1015200078940EC083B7817F8C6083BFF89483B7B3
:10153000816083BF7894889583B78E7F83BF7894CA
:10154000672B29F4EAE7F0E08081806880830895C2
:10155000DA0121153105C1F44091B10041FF02C00B
:1015600054E001C050E04091B10040FD5260E1EB19
:10157000F0E0408140814B7F408340814D7F40833C
:1015800040814E7F408301C050E06115710529F410
:10159000EAE7F0E040814F7740838A309105A9F077
:1015A00083FD02C048E001C048E28770842B98E1C7
:1015B0000FB6F894A895909360000FBE80936000DA
:1015C000E0E6F0E0808180648083AB2B99F483B700
:1015D0008E6083BFF89483B7816083BF85B78066D0
:1015E00085BF8F7D85BF7894889583B78E7F83BFB5
:1015F00078940DC083B78E6083BFF89483B7816001
:1016000083BF7894889583B78E7F83BF7894672B48
:1016100029F4EAE7F0E0808180688083232B39F4A5
:1016200051FF05C0E1EBF0E0808184608083089584
:101630001F920F920FB60F9211248F930FB6F8944A
:10164000A89580916000886180936000109260008E
:101650000FBE8F910F900FBE0F901F9018954423CF
:1016600069F022E02093C0009B01AC0193E0220FBF
:10167000331F441F551F9A95D1F709C09B01AC0138
:1016800084E0220F331F441F551F8A95D1F760E075
:1016900072E18AE790E00E943F24215031093093A3
:1016A000C5002093C4008091C2008F738093C20054
:1016B0008091C2008F7C8093C2008091C200877F9E
:1016C0008093C2008091C2008B7F8093C200809182
:1016D000C20086608093C20088E18093C1000895B3
:1016E0008091C00087FFFCCF8091C6000895FC0167
:1016F00091E001C0990F6A95EAF72081411109C074
:10170000292339F02091C00027FFF7CF8091C60030
:10171000089588E10895AF92BF92CF92DF92FF9231
:101720000F931F93CF93DF931F92CDB7DEB7162F82
:101730006A01F82E5C019A2D9F19911790F4402FA1
:10174000622FC60129830E94770B2981883159F0C5
:10175000F501D5018D935D018D3011F08A3059F777
:10176000108280E001C081E00F90DF91CF911F9146
:101770000F91FF90DF90CF90BF90AF900895909120
:10178000C00095FFFCCF8093C6000895CF93DF93F0
:10179000EC018991882319F00E94BF0BFACFDF91E9
:1017A000CF910895389A3B9A39983A9A409A089579
:1017B000FC014098429A4AE64A95F1F700C0439AE4
:1017C0008AE68A95F1F700C04398429A9AE69A957C
:1017D000F1F700C0439A4AE64A95F1F700C04398F2
:1017E000672B11F0429A01C042988AE68A95F1F778
:1017F00000C0439A9AE69A95F1F700C0439828E012
:1018000030E080E0439A4AE64A95F1F700C04398F9
:101810009AE69A95F1F700C0880F319981602150BE
:10182000310981F728E030E090E096953199906891
:10183000439A4AE64A95F1F700C043984AE64A952A
:10184000F1F700C02150310981F7409A9083089543
:101850002F923F924F925F926F927F928F929F92C0
:10186000AF92BF92CF92DF92EF92FF920F931F93AE
:10187000CF93DF9300D01F92CDB7DEB71C017B83DF
:101880006A83C12CD12C760100E010E04C01990F45
:10189000AA08BB08021513057CF56A817B81CE017D
:1018A00001960E94D80B998189131AC0682F70E0A5
:1018B00080E090E00E94A4252B013C01C501B40109
:1018C0000E94A6259B01AC01C301B2010E94FC2429
:1018D0009B01AC01C701B6010E9490246B017C0101
:1018E0002FEF80E792E0215080409040E1F700C068
:1018F00000000F5F1F4FCECFC701B6010E947525B4
:10190000862F0F900F900F90DF91CF911F910F9125
:10191000FF90EF90DF90CF90BF90AF909F908F900F
:101920007F906F905F904F903F902F9008955C98BC
:10193000549A8FEB93E00197F1F700C000005498A0
:1019400090EA9A95F1F789B1E7E4F3E03197F1F77E
:1019500000C00000807108955C98549A92E09A95B6
:10196000F1F700C08111549880EA8A95F1F75498F4
:1019700008955C98549A82E08A95F1F700C05498D3
:1019800095E29A95F1F7000089B198E79A95F1F7F9
:10199000829581700895CF93DF93D82FC9E0C1500D
:1019A00031F08D2F81700E94AC0CD695F8CFDF916D
:1019B000CF910895CF93DF93D9E0C0E0D15049F0A3
:1019C0000E94B90C20E8829FC0011124C695C82B43
:1019D000F5CF8C2FDF91CF910895CF93F8940E948B
:1019E000970C8CEC0E94CB0C84E40E94CB0C0E94E0
:1019F000B90C8823E1F30E94970C8CEC0E94CB0C6D
:101A00008EEB0E94CB0C0E94DA0CC82F0E94DA0CDD
:101A10007894682F70E0762F66276C0F711D072E63
:101A2000000C880B990B0E94A62520E030E040E8CE
:101A30005DE30E943226CF910895CF93DF93EB01AF
:101A4000DC01FA01E230F10530F0299139912D9352
:101A50003D933297F7CF9A012E7FDC01A20FB31F7F
:101A6000FB01E20FF31F40FF02C020812C93DF91A6
:101A7000CF9108950097D1F0DC01ED91FC91119781
:101A80003097A1F02081222389F026813781129698
:101A90008D919C9113972817390741F481810E94F9
:101AA000C22080FD06C080E090E0089589E090E0CB
:101AB000089583E090E008950F93CF93DF93EC01B6
:101AC0009A01AB01BC016E5C7F4F01E089810E94ED
:101AD0007321892B11F5FE01E05DFD4F808191811D
:101AE00085359A4AE1F4E85CF14080819181A281D8
:101AF000B381BB2786349144A445B10591F0CC57FE
:101B0000DF4F488159816A817B81772781E04634A4
:101B100051446445710531F404C083E003C082E0A0
:101B200001C080E0DF91CF910F9108952F923F92F5
:101B30004F925F926F927F928F929F92AF92BF92DD
:101B4000CF92DF92EF92FF920F931F93CF93DF9389
:101B5000CDB7DEB72E970FB6F894DEBF0FBECDBF60
:101B6000DC01ED91FC9111972081022E000C330BCA
:101B7000205331092A30310538F451815A3321F488
:101B80003296ED93FC9302C020E030E0FB0111821D
:101B90001082232B09F0FCC1209107033091080328
:101BA0003E872D872115310509F4F5C1142F3183A6
:101BB0002083D9018C91882371F011968C910E9419
:101BC000C22080FD08C0112309F4E8C182FFE6C1EC
:101BD0008AE090E007C2ED85FE851082118280E0E8
:101BE0000E94C92080FDDDC1112311F082FDF0CFDC
:101BF00040E050E0BA018D859E850E945C0D8130E9
:101C0000C9F4ED85FE85EC50FE4F8081811103C043
:101C10008DE090E0E7C1ED85FE85E850FE4F408005
:101C2000518062807380B301A2018D859E850E94E0
:101C30005C0D03C0412C512C3201833009F4B4C136
:101C40008111E6CFAD85BE85DD968D919C91DE97A5
:101C500081159240E9F6ED85FE85E85BFF4F8080B7
:101C60009180A12CB12C81149104A104B10441F400
:101C7000ED85FE85EA5AFF4F80809180A280B38077
:101C8000ED85FE85828E938EA48EB58EEE5BFF4F22
:101C9000A081ED85FE85A3838FEF8A0F823008F047
:101CA000B7CF17AD1283112309F4B2CF812F90E083
:101CB0009C012150310982239323892B09F0A8CF5D
:101CC000ED5BFF4F20803180ED85FE8531862086DB
:101CD000C1018F709927892B09F09ACFEB5BFF4FD9
:101CE000C080D180E12CF12CC114D104E104F104B5
:101CF00041F4ED85FE85EE5AFF4FC080D180E28031
:101D0000F380ED85FE85E05CFF4F208131813A83D1
:101D10002983232B09F47CCFB0E0A50194010E9414
:101D200061246D837E838F839887A981BA81CD01D9
:101D3000A0E0B0E089879A87AB87BC87C10154E0F7
:101D4000969587955A95E1F749855A856B857C85E7
:101D5000480F591F611D711D8D819E81AF81B8850E
:101D6000840F951FA61FB71F89839A83AB83BC83FB
:101D7000C816D906EA06FB0608F44ACFC701B60121
:101D800029813A814B815C81621B730B840B950B1B
:101D9000212F30E040E050E00E943F242115310522
:101DA0004105510509F434CF263F8FE0380741053E
:101DB000510540F0263F9FEF39074105510520F4BA
:101DC00012E003C011E001C013E069017A01A2E052
:101DD000CA0ED11CE11CF11CED85FE85C68AD78A8E
:101DE000E08EF18E468E578E60A271A289859A850B
:101DF000AB85BC85840D951DA61DB71D82A393A33D
:101E0000A4A3B5A349815A816B817C81440D551DE2
:101E1000661D771D42A753A764A775A71330B9F4B1
:101E2000232809F0F5CEE25AFF4F80819181A281EB
:101E3000B381ED85FE8586A397A3A0A7B1A742E055
:101E4000CC0CDD1CEE1CFF1C4A95D1F72DC02328BD
:101E500009F4DECE2D813E814F815885820F931F7C
:101E6000A41FB51FED85FE8586A397A3A0A7B1A7E4
:101E7000123029F4CC0CDD1CEE1CFF1C15C0A3E0B5
:101E8000B0E0A70196010E946124DC01CB01B69568
:101E9000A79597958795F1E0CF22DD24EE24FF24C6
:101EA000C80ED91EEA1EFB1E2FEFC20E21E0D21E65
:101EB000E11CF11C89E0F694E794D794C7948A95C5
:101EC000D1F78C149D04AE04BF0408F4A1CE8FEFAB
:101ED0009FEFDC01ED85FE8586879787A08BB18B10
:101EE000DF0112861386148615861330D1F515820C
:101EF000EE59FF4F80819181A3019201280F391F74
:101F0000411D511DFD01228B338B448B558B01E00C
:101F1000BD016E5C7F4F81810E947321892B09F581
:101F2000ED85FE85E05DFD4F8081918185359A4A82
:101F3000C1F4ED85FE8582A993A9A4A9B5A982352E
:101F40009245A146B14469F4ED85FE85EA5EFD4FF8
:101F500080819181A281B38182379247A144B146A9
:101F600031F1AD85BE851C938091050390910603E8
:101F70000196909306038093050317969C938E9386
:101F80001697FD0116A617A610AA11AA148206C05C
:101F90008BE090E027C08CE090E024C080E090E0EF
:101FA00021C083E090E01EC081E090E01BC0ED8581
:101FB000FE85E25EFD4F80819181A281B381ED8536
:101FC000FE8582879387A487B587E65EFD4F808173
:101FD0009181A281B381ED85FE8586879787A08B4D
:101FE000B18BBFCF2E960FB6F894DEBF0FBECDBF1C
:101FF000DF91CF911F910F91FF90EF90DF90CF90E5
:10200000BF90AF909F908F907F906F905F904F9018
:102010003F902F9008958F929F92AF92BF92CF9250
:10202000DF92EF92FF920F93CF93DF93FC01248115
:10203000211103C080E090E044C0EC01C6A4D7A405
:10204000E0A8F1A84C01F2E38F0E911C01E0A7017A
:102050009601B40189810E94BF21892B81F51C82E0
:102060004AA15BA16CA17DA1C416D506E606F706C0
:1020700008F38A8D9B8DAC8DBD8D840F951FA61F97
:10208000B71FC816D906EA06FB06A0F6AB80B12C2E
:10209000E2E0AE16B10470F28A8D9B8DAC8DBD8DE1
:1020A000C80ED91EEA1EFB1E01E0A7019601B4016D
:1020B00089810E94BF2181E0A81AB108E9CF81E09F
:1020C00090E0DF91CF910F91FF90EF90DF90CF9054
:1020D000BF90AF909F908F900895AF92BF92CF9294
:1020E000DF92EF92FF920F93CF93DF93FC01C6A490
:1020F000D7A4E0A8F1A84C155D056E057F05E1F0B9
:102100006A017B01EC010E940B105C01892B21F01C
:10211000AA24A394B12C12C001E0A7019601BE012C
:102120006E5C7F4F89810E947321892B89F7CEA62F
:10213000DFA6E8AAF9AA02C0A12CB12CC501DF9143
:10214000CF910F91FF90EF90DF90CF90BF90AF9025
:1021500008950F93CF93DF93EC010E940B1000972B
:1021600009F058C08881833009F047C08D818823E9
:1021700009F443C01EA61FA618AA19AABE016E5CC8
:102180007F4FFB01CE018E5C9D4FE817F90711F0E0
:102190001192FBCF85E59AEAFE01E05DFD4F918348
:1021A000808382E592E5A1E6B1E48AAB9BABACAB60
:1021B000BDAB82E792E7A1E4B1E67A978083918391
:1021C000A283B3838E859F85A889B989349680833D
:1021D0009183A283B3838A859B85AC85BD85349624
:1021E00080839183A283B3832A893B894C895D894B
:1021F00001E089810E94BF211D8240E050E060E043
:1022000089810E94212231E020E0892B09F430E00D
:10221000832F922FDF91CF910F9108950F931F93EA
:10222000FC019A01AB01225031094109510986890B
:102230009789A08DB18D0297A109B1092817390797
:102240004A075B0768F4A281B0E00E94612402A5FE
:1022500013A524A535A5600F711F821F931F03C00E
:1022600060E070E0CB011F910F910895AF92BF9293
:10227000CF92DF92EF92FF921F93CF93DF93EC0107
:102280006A017B01423051056105710508F4A8C05F
:102290008E899F89A88DB98D481759076A077B07D2
:1022A00008F09EC08881823009F44AC0833009F466
:1022B0006BC0813009F099C05A01B694A794AC0C58
:1022C000BD1CC501892F992786954AA15BA16CA1E8
:1022D0007DA1480F591F611D711DCE010E946D1017
:1022E000892B09F082C0F501F170EC0FFD1F12A9D6
:1022F0008FEFA81AB80AC501892F992786954AA198
:102300005BA16CA17DA1480F591F611D711DCE01FC
:102310000E946D10892B09F068C0C5019170FE0103
:10232000E80FF91F82A9612F70E0782BC0FE06C06C
:1023300054E0769567955A95E1F723C07F7021C0E8
:1023400077276F2D5E2D4D2D8AA19BA1ACA1BDA13C
:10235000480F591F6A1F7B1FCE010E946D10892BE9
:1023600009F043C0CC0CDD1CEE1CFF1CE894C0F847
:1023700081E0D822EE24FF24FE01EC0DFD1D62A9B0
:1023800073A980E090E034C08AA19BA1ACA1BDA15B
:1023900027E076956795579547952A95D1F7480F89
:1023A000591F6A1F7B1FCE010E946D10892BE9F413
:1023B00082E0CC0CDD1CEE1CFF1C8A95D1F78CEF63
:1023C000C82281E0D822EE24FF24FE01EC0DFD1D81
:1023D00082A993A9A4A9B5A9BC01CD019F7008C089
:1023E00061E070E080E090E003C06FEF7FEFCB0131
:1023F000DF91CF911F91FF90EF90DF90CF90BF9032
:10240000AF9008950F931F93CF93DF93EC011D823C
:102410001C824E815F816885798541305105610557
:10242000710519F482E090E065C008811981F80116
:1024300086899789A08DB18D481759076A077B0750
:1024400088F74115510561057105F1F480818330EC
:1024500049F446A157A160A571A541155105610533
:10246000710591F41A861B861C861D86F8018085ED
:102470009185892BB9F286A197A1A0A5B1A58E87D8
:102480009F87A88BB98B2DC0F801828181111EC056
:10249000888199810E943611AB01BC014F3FFFEF4B
:1024A0005F076F077F0721F1423051056105710514
:1024B00008F4B8CFE881F98186899789A08DB18D1C
:1024C000481759076A077B0718F3ACCF4A875B8721
:1024D0006C877D87C8010E940E116E877F87888B6D
:1024E000998BC801C2969B8B8A8B80E090E002C0DA
:1024F00081E090E0DF91CF911F910F9108954F926D
:102500005F926F927F928F929F92AF92BF92CF9283
:10251000DF92EF92FF920F931F93CF93DF9300D040
:1025200000D0CDB7DEB74C016A017B01280139012B
:10253000423051056105710508F4EAC0FC01868945
:102540009789A08DB18D481759076A077B0708F056
:10255000DFC08081823009F475C0833009F498C0EF
:10256000813009F0CEC05A01B694A794A40EB51ECE
:10257000C501892F9927869542A153A164A175A110
:10258000480F591F611D711DC4010E946D100097F5
:1025900009F0B9C0F501F170AF01480D591DD7011F
:1025A000C60181709927AA27BB2789839A83AB83A9
:1025B000BC83C0FE0BC0DA01D2968C91282F2F70FD
:1025C000B0E14B9EC0011124822B01C0842DFA0181
:1025D00082ABFFEFAF1ABF0A81E0D40114968C934F
:1025E0001497C501892F9927869592964D915D91F3
:1025F0006D917C919597480F591F611D711DC40104
:102600000E946D10009709F07EC0B1E0BB22F4017A
:10261000EA0DFB1D29813A814B815C81232B242B00
:10262000252B41F064E076946794579447946A951B
:10263000D1F706C032A9307F252D2F70432E422AB4
:1026400042AA61C077276F2D5E2D4D2DF40182A126
:1026500093A1A4A1B5A1480F591F6A1F7B1FC401F4
:102660000E946D10009709F04EC0CC0CDD1CEE1CD2
:10267000FF1CE894C0F8F1E0DF22EE24FF2422E3FF
:10268000C20ED11CF401EC0DFD1D518240823BC0F5
:10269000F40182A193A1A4A1B5A137E07695679535
:1026A000579547953A95D1F7480F591F6A1F7B1FD9
:1026B000C4010E946D10009731F522E0CC0CDD1CA6
:1026C000EE1CFF1C2A95D1F7FCEFCF22F1E0DF22B0
:1026D000EE24FF2422E3C20ED11CF401EC0DFD1DFB
:1026E0004081518162817381442755276627707F1D
:1026F000442A552A662A772A40825182628273824E
:1027000002C082E090E021E0D40114962C9302C034
:1027100082E090E00F900F900F900F90DF91CF919B
:102720001F910F91FF90EF90DF90CF90BF90AF90EF
:102730009F908F907F906F905F904F9008954F92F1
:102740005F926F927F928F929F92AF92BF92CF9241
:10275000DF92EF92FF920F931F93CF93DF93EC01E1
:102760002A013B01411551056105710599F48A84DF
:102770009B84AC84BD8481149104A104B10409F14B
:102780008E899F89A88DB98D88169906AA06BB06E1
:10279000E0F017C00E9436116B017C0162307105B8
:1027A0008105910508F480C08E899F89A88DB98D17
:1027B000C816D906EA06FB0608F47BC0530142019D
:1027C00004C0812C912C54018394750164018FEF16
:1027D000C81AD80AE80AF80A8E899F89A88DB98D87
:1027E000C816D906EA06FB0668F022E082169104B4
:1027F000A104B10410F460E058C082E0C82ED12CCE
:10280000E12CF12CB701A601CE010E9436118B01FB
:102810009C01672B682B692BA1F00F3F8FEF1807E6
:102820002807380729F0013011052105310519F471
:10283000B801C90145C0C814D904EA04FB0439F63B
:10284000DACF0FEF1FEF2FEF3FE0B701A601CE0168
:102850000E947F12009731F5411451046104710404
:10286000C1F4CA86DB86EC86FD868E859F85A889A5
:10287000B9898F3F2FEF9207A207B207D1F00197D6
:10288000A109B1098E879F87A88BB98B81E08D83C1
:1028900010C097018601B301A201CE010E947F12F0
:1028A0000097F9F2019741F061E070E080E090E07C
:1028B00007C0B601C70104C06FEF7FEF8FEF9FEF36
:1028C000DF91CF911F910F91FF90EF90DF90CF900C
:1028D000BF90AF909F908F907F906F905F904F9040
:1028E00008958F929F92AF92BF92CF92DF92EF9214
:1028F000FF920F931F93CF93DF93EC016B010C8139
:102900001D810F5F1F4F19F484E090E0E1C04E85F8
:102910005F85688979894115510561057105A1F3C4
:1029200078018FE0E822FF24E114F10409F0BDC032
:102930004F5F5F4F6F4F7F4F4E875F87688B798BFD
:102940004A855B856C857D8588819981FC0141156F
:1029500051056105710531F48085918508171907C6
:1029600098F6A3C0228130E021503109F801A4E09B
:10297000F695E795AA95E1F72E233F23232B09F03F
:1029800094C00E9436114B015C01623071058105D3
:10299000910518F482E090E09BC08FEF88169806AE
:1029A000A806B80619F481E090E092C08881998168
:1029B000FC0146895789608D718D84169506A6069F
:1029C000B70608F464C0CD2809F49ECF4A855B851C
:1029D0006C857D850E949F134B015C01611571051B
:1029E0008105910509F472C0613071058105910579
:1029F00089F28FEF88169806A806B806A1F288819A
:102A000099810E940B10892B71F688819981FC01B4
:102A1000F2968E5C9D4FE817F90711F01192FBCFEB
:102A2000C880D980B501A401C6010E940E11F6012B
:102A300066A777A780AB91ABD12CCC24C394E88157
:102A4000F9818281D816B8F4C482888199810E9464
:102A50000B10892B09F0A7CFE881F98186A597A5EE
:102A6000A0A9B1A90196A11DB11D86A797A7A0ABEA
:102A7000B1ABD394E4CF86A597A5A0A9B1A98D1930
:102A80009109A109B10986A797A7A0ABB1AB8A8626
:102A90009B86AC86BD86B501A401888199810E9480
:102AA0000E116E877F87888B998B1D830C8388819D
:102AB0009981C29625E0EE0CFF1C2A95E1F7E80EFD
:102AC000F91EFB8AEA8A80E090E002C087E090E08D
:102AD000DF91CF911F910F91FF90EF90DF90CF90FA
:102AE000BF90AF909F908F900895CF93DF93EC01AC
:102AF00084E090E04E855F856889798941155105AC
:102B000061057105F1F0888199810E946D1000972F
:102B1000D1F4EA89FB8990819923D1F08385953E90
:102B200041F09E3231F08F73883019F480E090E0EC
:102B300012C060E070E0CE010E9471140097D1F2E3
:102B400002C0009799F31E861F86188A198A03C04F
:102B500084E090E0F8CFDF91CF910895CF93DF9399
:102B6000EC014E855F8568897989888199810E9409
:102B70006D10009771F4EA89FB892081253E49F0A8
:102B8000222339F061E070E0CE010E9471140097B9
:102B900041F3DF91CF910895811113C0E0910703B4
:102BA000F0910803309709F010826115710511F05A
:102BB000FB011082709308036093070380E090E0AC
:102BC00008958BE090E008952F923F924F925F928C
:102BD0006F927F928F929F92AF92BF92CF92DF922D
:102BE000EF92FF920F931F93CF93DF93CDB7DEB792
:102BF000AD970FB6F894DEBF0FBECDBF7CA36BA31D
:102C0000009709F46BC2D42E98A78FA3DC011D9204
:102C10001C924E71BE016F5F7F4FCE0183960E9462
:102C2000960D8C01892B09F082C2CE0147969E8BAE
:102C30008D8BEBA0FCA0F70180818F3211F08C35D9
:102C400019F4FFEFEF1AFF0A1F82188619861A86F9
:102C5000D7018C91803228F0F0E25F2EA5E04A2E59
:102C60006BC0CE0101960E9402128C011C8A1B8A45
:102C7000D6C0590180E090E0E12CF12C48E050E012
:102C8000C12C6FEFE61AF60AF50161915F01762F0C
:102C9000613208F066C0E20EF31E613208F487C0AC
:102CA00020E0892B09F4B9C08C91853E09F44C923F
:102CB0004830510511F4CC0CCC0C8C2D8370813034
:102CC00009F420618C2D8C70843009F428601B96E7
:102CD0002C93CE0101960E940212009709F469C05C
:102CE000ED89FE892385009709F08FC022FD97C0EA
:102CF0004B895C89DA011B968C911B9784FF8AC0F3
:102D00005A968D919C915B97A0E0B0E029813A8121
:102D1000F9012081233061F4FA014489558960E08A
:102D200070E0BA0155274427842B952BA62BB72B8F
:102D30008F839887A987BA879701F7018081FFEF72
:102D4000EF1AFF0A8F32C1F38C35B1F3AD89BE891A
:102D5000FD01CD010B96E817F90709F48ACF5192CE
:102D6000FACF6F3209F497CF6C3509F494CF6E32F5
:102D700009F4DFC18417950708F04FC067FF08C04A
:102D8000FC2DF360CF2EE62FF0E0E754FF4F70816B
:102D9000872E912CE3E7F2E06191662309F4D4C118
:102DA000662E660F770868147904B1F736C024E000
:102DB00078CF4F85588969897A8989819A810E945B
:102DC0006D10009709F08CCFEB89FC8980818823F6
:102DD000B1F0838583FD0CC0AD89BE899F01255F5D
:102DE0003F4FE217F30771F091918D919817C9F356
:102DF00060E070E0CE0101960E9471146ECF84E015
:102E000090E06ECF80E090E06BCF8C01049739F4B6
:102E100022FD05C005E010E002C006E010E02B88AE
:102E20003C880115110529F42114310411F406E040
:102E300010E0FD2DFF71F9A78D2D8C7109F4EBC009
:102E400001151105D1F10430110571F5CE0101967E
:102E50000E9402128C01892B39F5CE0101960E9445
:102E6000AE158C01892B01F54F85588969897A89BE
:102E700089819A810E946D108C01892BA9F4EB89BC
:102E8000FC89CF018096E817F90711F01192FBCF6A
:102E90006D897E894BE050E08B899C890E941D0DD5
:102EA000E981FA8181E0848329A5286029A72B88FC
:102EB0003C880115110549F03AC1D1011B968C914E
:102EC000817109F032C1D2FC0CC1B9A5B3FFB0C009
:102ED0000E946C00F10166877787808B918B138647
:102EE000D101148E158E168E178EE981FA81FEA3FC
:102EF000EDA35A968D919C915B972C01612C712CBE
:102F00008081833069F454968D919C915597A0E00F
:102F1000B0E0DC0199278827482A592A6A2A7B2AA7
:102F2000D1015B961C921E925A9755961C921E9246
:102F3000549781E0EDA1FEA1848341145104610402
:102F4000710409F475C086A597A5A0A9B1A98AA79F
:102F50009BA7ACA7BDA7B2E04B1651046104710456
:102F600008F4DAC086899789A08DB18D4816590674
:102F70006A067B0608F0D0C073016201EDA1FEA1D4
:102F800086899789A08DB18DC816D906EA06FB06F9
:102F900008F0AAC0B701A6018DA19EA10E9436111A
:102FA0004B015C01611571058105910509F49CC017
:102FB000613071058105910509F4AEC06F3F7F4F07
:102FC0008F4F9F4F09F4ABC000E010E09801B701AC
:102FD000A6018DA19EA10E947F128C01892B09F070
:102FE000A6C0EDA1FEA186859785A089B1898F3FF6
:102FF000FFEF9F07AF07BF0759F00196A11DB11D55
:10300000EDA1FEA186879787A08BB18B21E0258358
:1030100075016401B3CF0115110509F088C0D10114
:103020001B968C9184FD7EC0D1FE02C080FD7DC0C8
:10303000B9A5B3FF02C0B062B9A709811A81F8012E
:1030400046A557A560A971A9AFA1B8A55A964D93F9
:103050005D936D937C935D975F963C922E925E9705
:10306000E9A51496EC93D1015A968D919C915B97AA
:10307000A0E0B0E0F8012081233061F4F10144893F
:10308000558960E070E0BA0155274427842B952BC1
:10309000A62BB72BEFA1F8A586879787A08BB18BBE
:1030A000F101848D958DA68DB78DEFA1F8A582874E
:1030B0009387A487B5871682178210861186168A91
:1030C000178A108E118E11830083D80116968D9168
:1030D0009C9117979383828380E001C089E090E000
:1030E00049C008E010E023C089819A81B301A201A0
:1030F0004150510961097109FC0142875387648776
:1031000075874AA55BA56CA57DA50E946D108C01F5
:10311000892B09F48DCF0BC002E010E008C001E05C
:1031200010E005C004E010E002C007E010E0C801B4
:1031300021C04830510509F070CECC0CCC0C88E091
:1031400090E04BE050E09DCD6FEB670F6A3120F4CB
:103150006C2D6260C62E08C06FE9670F6A3120F4DB
:10316000EC2DE160CE2E7052FD01E80FF91F708347
:10317000019687CDAD960FB6F894DEBF0FBECDBFDA
:10318000DF91CF911F910F91FF90EF90DF90CF9043
:10319000BF90AF909F908F907F906F905F904F9077
:1031A0003F902F9008952F923F924F925F926F928F
:1031B0007F928F929F92AF92BF92CF92DF92EF92C7
:1031C000FF920F931F93CF93DF93EC015B016A0192
:1031D0001901F901118210820E943A0D009709F03D
:1031E0000EC18C8187FD07C180FF07C18A859B8541
:1031F000AC85BD854E815F8168857985841B950B83
:10320000A60BB70BA60160E070E084179507A60730
:10321000B70708F077C06C0175C04E815F81688583
:103220007985DB01CA019170AA27BB27892B8A2BDC
:103230008B2B09F0B2C088819981FC012281215039
:103240002A013B01E9E07694679457944794EA9504
:10325000D1F7122F142109F45AC0888099804A8925
:103260005B896C897D89C4010E940E11611571050D
:103270008105910509F46BC02B013C01410E511CE5
:10328000611C711C7601EF2CFF24E694E114F1041B
:1032900009F47FC0F4018281212F30E0A701420FA1
:1032A000531F90E08417950718F47C01E21AF30A83
:1032B0000E2DA3019201B501F40181810E947321B9
:1032C000892B09F080C0E881F9818481811143C094
:1032D000FE2CEE24FF0CAE0CBF1C8E819F81A885B6
:1032E000B9858E0D9F1DA11DB11D8E839F83A8875B
:1032F000B987F101808191818E0D9F1D918380831B
:10330000CE18DF08C114D10409F087CF72C0452B55
:10331000462B472B29F46E857F858889998906C0BD
:103320004A895B896C897D890E94361162307105FA
:103330008105910560F06F3FFFEF7F078F079F07C3
:1033400009F441C06A8B7B8B8C8B9D8B86CF8C81E3
:1033500080688C8350C086A597A5A0A9B1A98419BF
:103360009509A609B709A70160E070E084179507E1
:10337000A607B70708F0ACCFBF016E5C7F4F982F50
:103380008827990F40E052E08A0D9B1D0E941D0D79
:103390009FCF4E8A5F8A688E798E8E819F819170D1
:1033A00020E032E0281B390B76012C153D0508F48E
:1033B00079014E895F89688D798D888199810E9414
:1033C0006D10892B29F08C8180688C8381E016C078
:1033D0008E819F81A885B9859170AA27BB27C29647
:1033E00068817981680F791FA701C5010E941D0DB1
:1033F00072CF80E003C082E001C087E090E0DF91FF
:10340000CF911F910F91FF90EF90DF90CF90BF90E1
:10341000AF909F908F907F906F905F904F903F9074
:103420002F9008952F923F924F925F926F927F92CA
:103430008F929F92AF92BF92CF92DF92EF92FF92C4
:103440000F931F93CF93DF93EC015B016A01190186
:10345000F901118210820E943A0D009709F067C1AC
:103460008C8187FD4EC181FF4EC18A859B85AC85CD
:10347000BD85AC01BD014C0D5D1D611D711D481761
:1034800059076A077B0708F0A4C0C12CD12CA1C042
:103490004E815F8168857985DB01CA019170AA2719
:1034A000BB27892B8A2B8B2B09F0FBC0E881F98184
:1034B000228121502A013B01A9E076946794579418
:1034C0004794AA95D1F7122F142109F487C0888157
:1034D0009981FC0146A457A460A871A84E895F8910
:1034E000688D798D441655066606770609F4BEC0C8
:1034F000888099804A895B896C897D89C4010E9492
:103500000E11611571058105910509F4B5C02B01F6
:103510003C01410E511C611C711C7601EF2CFF24F3
:10352000E694E114F10409F4ABC0F4018281212F87
:1035300030E0A701420F531F90E08417950718F45D
:103540007C01E21AF30A0E2DA3019201B501F401E8
:1035500081810E94BF21892B09F0D7C08881998180
:10356000FC0146A557A560A971A94419550966092A
:1035700077092701612C712C4415550566057705DF
:1035800070F4542F4427550FB501640F751F40E0A8
:1035900052E0C2960E941D0DE881F9811482FE2C32
:1035A000EE24FF0CAE0CBF1C8E819F81A885B985CF
:1035B0008E0D9F1DA11DB11D8E839F83A887B98786
:1035C000F101808191818E0D9F1D91838083CE18A2
:1035D000DF08C114D10409F05BCF24C0452B462B72
:1035E000472BA1F46E857F858889998961157105BE
:1035F0008105910551F540E050E0BA01CF010E94EC
:103600009F136E877F87888B998B07C04A895B8958
:103610006C897D89CF010E949F1361157105810519
:10362000910599F48E819F81A885B9854A855B852E
:103630006C857D85481759076A077B0708F05CC0D1
:103640008A879B87AC87BD8757C06130710581052C
:10365000910591F06F3FFFEF7F078F079F0709F4F8
:1036600054C06A8B7B8B8C8B9D8B31CF0E940B104F
:10367000892B09F43DCF49C08C8180688C8341C07F
:103680004E815F81688579858A859B85AC85BD85FE
:10369000481759076A077B07F0F54E8A5F8A688EDC
:1036A000798E8E819F81917020E032E0281B390B4A
:1036B00076012C153D0508F479014E895F89688DE6
:1036C000798D888199810E946D10892BF1F48E810A
:1036D0009F81A885B9859170AA27BB27C2962881AA
:1036E0003981A701B501820F931F0E941D0DE8814A
:1036F000F98131E0348356CF8C8180628C8380E005
:1037000008C082E006C087E004C08C8180688C839A
:1037100081E090E00CC0C4010E940B10892BA9F736
:10372000E881F98146A657A660AA71AAB6CFDF91B3
:10373000CF911F910F91FF90EF90DF90CF90BF90AE
:10374000AF909F908F907F906F905F904F903F9041
:103750002F9008950F931F93CF93DF93EC010E9456
:103760003A0D0097D9F52C8125FF38C04A8D5B8D25
:103770006C8D7D8D888199810E946D10009771F507
:103780000E8D1F8DF8018385806283878A859B85D6
:10379000AC85BD85848F958FA68FB78F8E859F85CD
:1037A000A889B989938F828FB58BA48B0E946C00F6
:1037B000F801668B778B808F918F138A128A8C81A8
:1037C0008F7D8C83E881F98181E084838881998170
:1037D000DF91CF911F910F910C94A910DF91CF91A0
:1037E0001F910F910895CF93DF93EC010E94AA1BC4
:1037F000009711F419821882DF91CF9108952F92CA
:103800003F924F925F926F927F928F929F92AF9270
:10381000BF92CF92DF92EF92FF920F931F93CF93BD
:10382000DF9300D000D0CDB7DEB71C016A017B0169
:103830000E943A0D009709F06EC1D10114962C91A7
:10384000149727FD64C11A968D919D910D90BC919E
:10385000A02D8C159D05AE05BF0520F421FD02C0ED
:103860006C017D01F101468057806084718416826D
:10387000178210861186C114D104E104F10421F4E9
:10388000C12CD12C760116C1F10100811181D80122
:1038900012968C90912CA12CB12C39E0880C991C9B
:1038A000AA1CBB1C3A95D1F7411451046104710460
:1038B00009F43FC0B1E04B1A510861087108C70113
:1038C000B6016150710981099109A50194010E9415
:1038D0003F2429833A834B835C83C301B201A50152
:1038E00094010E943F2489819A81AB81BC81821717
:1038F0009307A407B507E8F088279927DC01881902
:103900009909AA09BB09482259226A227B22D101BE
:1039100016964D925D926D927C921997C418D508B7
:10392000E608F70852964D915D916D917C915597FF
:103930002BC0F10146855785608971894115510574
:1039400061057105E1F440E050E0BA01C8010E9450
:103950009F13AB01BC01413051056105710509F4AC
:1039600096C04F3FBFEF5B076B077B0709F45DC055
:10397000D1011E964D935D936D937C935197F10108
:10398000428B538B648B758B411551056105710515
:1039900009F476CF2DC0423051056105710508F458
:1039A0004FC0D101ED91FC9186899789A08DB18D91
:1039B000481759076A077B0708F042C0D1015296A1
:1039C0004D935D936D937C93559716968D919D9134
:1039D0000D90BC91A02D880D991DAA1DBB1DF10154
:1039E00086839783A087B187C818D908EA08FB089F
:1039F0008C149D04AE04BF0450F5D10114962C9193
:103A000014978D919C9121FF16C00E949F13AB01CA
:103A1000BC014115510561057105B9F04F3FBFEF7C
:103A20005B076B077B0709F0B6CFF10184818068E3
:103A3000848381E06FC00E943611AB01BC01EECFE0
:103A4000F10184818068848362C075016401F101A1
:103A500086819781A085B1858C0D9D1DAE1DBF1DF2
:103A600086839783A087B187D701C6019170AA2763
:103A7000BB27892B8A2B8B2B09F402CF8081918164
:103A80000E940E11611571058105910541F4D10166
:103A900014968C911497806814968C9338C029E002
:103AA000F694E794D794C7942A95D1F7C60ED71EFB
:103AB000E81EF91EF10186819781A085B185AC01D0
:103AC000BD01517066277727452B462B472B69F0A0
:103AD00046895789608D718DC416D506E606F706AE
:103AE00021F0C68AD78AE08EF18EF1014285538596
:103AF00064857585481759076A077B0750F48287E4
:103B00009387A487B58784818062848302C082E022
:103B100001C080E090E00F900F900F900F90DF9128
:103B2000CF911F910F91FF90EF90DF90CF90BF90BA
:103B3000AF909F908F907F906F905F904F903F904D
:103B40002F900895CF92DF92EF92FF920F931F93E1
:103B5000CF93DF93CDB7DEB768970FB6F894DEBF8B
:103B60000FBECDBF988F8F8B7B016A0140E0BE01F5
:103B70006F5F7F4FCE0147960E94960D8C01892B77
:103B800009F050C0E114F10439F11F82188619863A
:103B90001A86CE0101960E940212009709F041C0D8
:103BA000CE0101960E947515009789F46B897C8976
:103BB0004BE050E0C7010E941D0DF7013B961082BB
:103BC000EE15FF0549F082918032C9F305C08430BB
:103BD000910539F5F7011082C114D10419F18981D9
:103BE0009A81FC01468D578D60A171A10E946D10D4
:103BF0008C01892BB9F4E981FA818081833019F035
:103C000087E290E002C083E490E0E80FF91F82A908
:103C100093A9A4A9B5A9F60180839183A283B38354
:103C200001C08C01C80168960FB6F894DEBF0FBEC4
:103C3000CDBFDF91CF911F910F91FF90EF90DF905B
:103C4000CF900895CF92DF92EF92FF920F931F9340
:103C5000CF93DF93CDB7DEB7A3970FB6F894DEBF4F
:103C60000FBECDBF9BA38AA341E0BE016F5F7F4F14
:103C7000CE0182960E94960D009709F0B1C01F8A6E
:103C80008AA19BA16C019C01B901681B790BD90128
:103C90004D919D014111F8CFFB01E80FF91FBF01C4
:103CA000681B790BE817F90761F41F8218861986DB
:103CB0001A86CE0101960E940212009709F090C068
:103CC00030C02291203259F3FE0177968F0120E017
:103CD00030E0D6018D916D0190E0AC014156510963
:103CE0004A31510510F480970BC08038910528F0B7
:103CF00087549F4FDC018C9190E0009709F475C0C8
:103D000042E8E42E42E0F42ED7014D917D01442398
:103D100009F468C0042E000C550B48175907A1F789
:103D200064C0CE0101960E9475150097F9F42F89A1
:103D30008B899C89222381F04BE050E0BE01695EB3
:103D40007F4F0E941D0D0E946C00EB89FC89668BE1
:103D5000778B808F918F03C025EEFC0120838981B2
:103D60009A8121E0DC0114962C9335C084309105B2
:103D7000B9F58F89882391F1CE0101960E94021234
:103D8000009771F5CE0101960E94AE15009741F59E
:103D9000EB89FC89CF018096E817F90711F01192A1
:103DA000FBCF4BE050E0BE01695E7F4F8B899C8961
:103DB0000E941D0DEB89FC8988E083870E946C00BE
:103DC000EB89FC89668B778B808F918F89819A81B3
:103DD00021E0FC0124830E94A91002C020E006C05B
:103DE000282F1BC02B30310519F426E090E015C0B8
:103DF0002F5F3F4FD8018D938D012617370708F4A9
:103E000068CFDF01A20FB31F20E2CD018E1B9F0BF5
:103E10000B9708F04ACF2D93F8CF822FA3960FB6B9
:103E2000F894DEBF0FBECDBFDF91CF911F910F91F0
:103E3000FF90EF90DF90CF90089523B123B123B18D
:103E400023B10197D1F70895FC01680F791F919173
:103E500097FF02C02B9A01C02B982D9A2D9896FFA0
:103E600002C02B9A01C02B982D9A2D9895FF02C065
:103E70002B9A01C02B982D9A2D9894FF02C02B9A53
:103E800001C02B982D9A2D9893FF02C02B9A01C048
:103E90002B982D9A2D9892FF02C02B9A01C02B9837
:103EA0002D9A2D9891FF02C02B9A01C02B982D9A24
:103EB0002D9890FF02C02B9A01C02B982D9A2D9817
:103EC000E617F70721F608952B9AFC01680F791F72
:103ED00093B12D9A2D9892959170990F1C999F5F8F
:103EE0002D9A2D98990F1C999F5F2D9A2D98990FB7
:103EF0001C999F5F2D9A2D98990F1C999F5F2D9A61
:103F00002D98990F1C999F5F2D9A2D98990F1C99A8
:103F10009F5F2D9A2D98990F1C999F5F2D9A2D9830
:103F20009193E617F707A1F608950F931F93CF9388
:103F3000DF931F92CDB7DEB708E813E161E070E0D0
:103F4000CE0101960E94641F89818F3F51F084E663
:103F500090E00E941D1F0150110981F780E090E060
:103F600002C081E090E00F90DF91CF911F910F91FF
:103F70000895CF93DF931F92CDB7DEB72A9A61E001
:103F800070E0CE0101960E94641F0F90DF91CF91E7
:103F90000895CF93DF9300D01F92CDB7DEB72A9854
:103FA00061E070E0CE0101960E94641F0E94951F9F
:103FB000009739F48A839B830E94B91F8A819B8171
:103FC00002C081E090E00F900F900F90DF91CF91B1
:103FD0000895CF92DF92EF92FF920F931F93CF93AA
:103FE000DF9300D0CDB7DEB77C016B0108EE13E0A4
:103FF00061E070E0CE0101960E94641F89818F3FCD
:1040000081F089818E3FA9F4B601C7010E94641F27
:1040100062E070E0CE0101960E94641F81E090E0B2
:104020000AC084E690E00E941D1F0150110901F7AB
:10403000E8CF80E090E00F900F90DF91CF911F913B
:104040000F91FF90EF90DF90CF900895DF92EF9265
:10405000FF920F931F93CF93DF93CDB7DEB72797D0
:104060000FB6F894DEBF0FBECDBF182F042FF52E6C
:10407000E62ED72E87FF09C040E050E0BA0187E363
:104080000E9426208230A0F51F770E94B91F0E944F
:10409000C91F892B61F1812F80648983DA82EB82C9
:1040A000FC820D83112321F0183021F081E003C040
:1040B00085E901C087E88E8366E070E0CE01019655
:1040C0000E94241F1C3031F461E070E0CE0107969D
:1040D0000E94641F1AE061E070E0CE0107960E9422
:1040E000641F8F8187FF04C01150A9F701C08FEFB3
:1040F00027960FB6F894DEBF0FBECDBFDF91CF91EC
:104100001F910F91FF90EF90DF900895EF92FF9233
:104110001F93CF93DF9300D0CDB7DEB77C01162F6E
:104120000E94951F009731F1198361E070E0CE0184
:1041300001960E94241F1D3FD9F060E072E0C70184
:104140000E94241F62E070E0CE0101960E94641F6D
:1041500061E070E0CE0101960E94641F89818F7139
:1041600031E020E0853009F030E0832F922F02C04B
:1041700081E090E00F900F90DF91CF911F91FF9021
:10418000EF900895811103C080910001089581E0AE
:104190000895EF92FF920F931F93CF93DF9300D078
:1041A00000D0CDB7DEB7811167C080E197E20E94F1
:1041B0001D1F229A2A9A259A2D98239A1AE061E0C7
:1041C00070E0CE0101960E94641F1150C1F740E0DB
:1041D00050E0BA0180E00E942620813009F076C0CC
:1041E0004AEA51E060E070E088E00E9426208130D9
:1041F00009F564E070E0CE0101960E94641F8B8196
:10420000813009F063C08C818A3A09F05FC008EE02
:1042100013E040E050E060E070E489EA0E9426206C
:10422000882361F188EE93E00E941D1F015011095F
:1042300081F74CC040E050E0BA0189EA0E94262094
:10424000823018F001E011E002C009EA12E088EEC5
:10425000E82E83E0F82E40E050E0BA01802F0E9463
:104260002620882351F188EE93E00E941D1F81E0F3
:10427000E81AF10881F72AC083E02AC040E050E044
:10428000BA018AE30E942620811120C064E070E018
:10429000CE0101960E94641F898186FD02C014E050
:1042A00001C01CE01093090301E0111100E000932C
:1042B00000010E94B91F802F0BC040E052E060E077
:1042C00070E080E10E942620882361F310E0EACFAD
:1042D0000F900F900F900F90DF91CF911F910F9142
:1042E000FF90EF9008950F93CF93DF93EB01BA0106
:1042F000A901811103C08091000101C081E080FD0E
:1043000038C08091090383FD07C089E0440F551F21
:10431000661F771F8A95D1F7013071F481E10E9401
:10432000262081111EC060E072E0CE010E94E91FCC
:10433000892BB9F000E015C082E10E94262081118E
:1043400010C060E072E0CE010E94E91F892B19F0D5
:10435000DE5F0150B1F740E050E0BA018CE00E940E
:1043600026200E94B91F81E090E0011104C080E086
:1043700002C083E090E0DF91CF910F910895CF923A
:10438000DF92EF92FF920F93CF93DF93EB016901DE
:104390007A01811103C08091000101C081E080FD9C
:1043A00046C08091090383FD07C099E0CC0CDD1C59
:1043B000EE1CFF1C9A95D1F7013071F4B701A601EC
:1043C00088E10E942620811127C06EEFCE010E9455
:1043D0008620892B19F520C0867039F0402F50E0D7
:1043E00060E070E087E90E942620B701A60189E11C
:1043F0000E942620811113C06CEFCE010E948620FE
:10440000892B19F0DE5F0150B9F76DEF80E090E085
:104410000E948620892B19F401E001C000E00E946F
:10442000B91F81E090E0011104C080E002C083E088
:1044300090E0DF91CF910F91FF90EF90DF90CF90C0
:1044400008950F931F93CF93DF93CDB7DEB7609797
:104450000FB6F894DEBF0FBECDBF811103C08091AF
:10446000000101C081E080FD59C08A01613091F0F6
:1044700040F0633009F04CC080E890E0A0E0B0E08C
:1044800040C00E94C91F01E010E0892B09F442C01E
:1044900000E040C040E050E0BA0189E00E942620E0
:1044A00081113FC060E170E0CE0101960E94E91FDA
:1044B000892BB9F1698170E086E0759567958A95D9
:1044C000E1F7888529854A856130710561F58F732B
:1044D00090E0A0E0B0E0DC01992788270196A11DBB
:1044E000B11D30E0322F2227240F311D820F931F80
:1044F000A11DB11DFAE0880F991FAA1FBB1FFA95D5
:10450000D1F7F80180839183A283B38300E001C0D7
:1045100004E010E00E94B91FC80131C083E090E0C0
:104520002EC001E0F6CFF4E08F9FC0011124019668
:1045300030E056E0359527955A95E1F7820F931FA5
:104540002F81237030E0322F2227330F330F820F59
:10455000931FA0E0B0E02E81322F3F702B85221FE9
:104560002227221F230F4370440F420F475004C0DD
:10457000880F991FAA1FBB1F4A95D2F7C2CF60961A
:104580000FB6F894DEBF0FBECDBFDF91CF911F9164
:104590000F910895CF93DF93CDB7DEB7CC59D109F2
:1045A0000FB6F894DEBF0FBECDBF5298539835B109
:1045B00024B181E090E001C0880F3A95EAF7822BA0
:1045C00084B95A9A5B9A209A0E94D20B8091690012
:1045D0008E7F80936900809169008260809369007A
:1045E000809169008460809369008091690088608F
:1045F00080936900E89AE99A299A78940E94E205E2
:1046000091E1E92E0BE028E047E063E180E00E94C1
:10461000F90380E00E949D0481E00E94160525E0D8
:1046200043E167E18EE00E94240528EE822E23E01C
:10463000922E3EE2C32E32E0D32ECE0101967C01B3
:1046400078940E94A30540E050E060E070E08AE0CA
:1046500090E00E949E09F89480919202882361F074
:10466000289A40E060E076E980E090E00E942F0B1D
:1046700088EF91E00E94C60B83E1A82E82E0B82E5D
:1046800080919202882309F4AFC09FEF20E782E077
:10469000915020408040E1F700C0000000E023E09E
:1046A00049E250E062E3CE018B599F4F0E948B0B91
:1046B000882321F02898E09AE19A96C061E072E0A0
:1046C000CE018B599F4F0E94CC27892B71F58BE02F
:1046D00092E00E94C60B9FEF24E38CE091502040B3
:1046E0008040E1F700C0000080E090E00E9470028E
:1046F000009731F29F938F93BF92AF92FF92EF9208
:104700000E94D527C7010E94C60B9FEF24E38CE0CF
:10471000915020408040E1F700C000000F900F90C2
:104720000F900F900F900F90ABCF61E272E0CE012F
:104730008B599F4F0E94CC27892B09F047C09E01BF
:1047400025563F4FAE0144565F4FBE0169567F4F1D
:1047500080E00E94F102C956DF4F488059806A808C
:104760007B80C759D040C556DF4F8881CB59D04098
:104770001F928F93C456DF4F8881CC59D0401F922F
:104780008F9320E030E04AE754E4C301B2010E9475
:1047900032260E946E25CB01B4010E942B249F93E8
:1047A0008F93C301B2010E946E257F936F93DF92B6
:1047B000CF92FF92EF920E94D527C7010E94C60BAD
:1047C0000FB6F894DEBF0FBECDBF5ACF8DE592E095
:1047D0000E94C60BCE018B599F4F0E94C60B83E6E9
:1047E00092E00E94C60B4CCF80919202882319F070
:1047F0001092920225CF9E012B593F4FAE01495690
:104800005F4FB70180E00E94F1029FEF29E688E147
:10481000915020408040E1F700C0000049815A815A
:104820006B817C81A6960FADA697C956DF4F288174
:10483000C759D04080E090E00E943C0101CF991B15
:1048400079E004C0991F961708F0961B881F7A9587
:10485000C9F78095089597FB072E16F4009407D0AA
:1048600077FD09D00E946C2407FC05D03EF490959A
:1048700081959F4F0895709561957F4F0895A1E2AE
:104880001A2EAA1BBB1BFD010DC0AA1FBB1FEE1FCA
:10489000FF1FA217B307E407F50720F0A21BB30B15
:1048A000E40BF50B661F771F881F991F1A9469F791
:1048B00060957095809590959B01AC01BD01CF01ED
:1048C00008950E948024A59F900DB49F900DA49FF1
:1048D000800D911D11240895AA1BBB1B51E107C037
:1048E000AA1FBB1FA617B70710F0A61BB70B881F80
:1048F000991F5A95A9F780959095BC01CD0108950F
:10490000A29FB001B39FC001A39F700D811D112410
:10491000911DB29F700D811D1124911D0895505855
:10492000BB27AA270E94A7240C94F8250E94EA25F9
:1049300038F00E94F12520F039F49F3F19F426F455
:104940000C94E7250EF4E095E7FB0C94E125E92FA4
:104950000E94092658F3BA17620773078407950760
:1049600020F079F4A6F50C942B260EF4E0950B2E8E
:10497000BA2FA02D0B01B90190010C01CA01A001B1
:104980001124FF27591B99F0593F50F4503E68F10C
:104990001A16F040A22F232F342F4427585FF3CF4D
:1049A000469537952795A795F0405395C9F77EF41E
:1049B0001F16BA0B620B730B840BBAF09150A1F067
:1049C000FF0FBB1F661F771F881FC2F70EC0BA0FED
:1049D000621F731F841F48F4879577956795B79575
:1049E000F7959E3F08F0B0CF9395880F08F0992770
:1049F000EE0F9795879508950E9410250C94F82541
:104A00000E94F12558F00E94EA2540F029F45F3F0A
:104A100029F00C94E12551110C942C260C94E725D7
:104A20000E94092668F39923B1F3552391F3951B4E
:104A3000550BBB27AA2762177307840738F09F5FBF
:104A40005F4F220F331F441FAA1FA9F335D00E2E2C
:104A50003AF0E0E832D091505040E695001CCAF799
:104A60002BD0FE2F29D0660F771F881FBB1F26175C
:104A700037074807AB07B0E809F0BB0B802DBF0133
:104A8000FF2793585F4F3AF09E3F510578F00C9402
:104A9000E1250C942C265F3FE4F3983ED4F38695F1
:104AA00077956795B795F7959F5FC9F7880F911D23
:104AB0009695879597F90895E1E0660F771F881F0F
:104AC000BB1F621773078407BA0720F0621B730BC2
:104AD000840BBA0BEE1F88F7E09508950E947525A8
:104AE0006894B1110C942C2608950E94112688F028
:104AF0009F5798F0B92F9927B751B0F0E1F0660FA2
:104B0000771F881F991F1AF0BA95C9F714C0B130E2
:104B100091F00E942B26B1E008950C942B26672F6C
:104B2000782F8827B85F39F0B93FCCF38695779511
:104B30006795B395D9F73EF49095809570956195FA
:104B40007F4F8F4F9F4F0895E89409C097FB3EF425
:104B500090958095709561957F4F8F4F9F4F9923CA
:104B6000A9F0F92F96E9BB279395F6958795779548
:104B70006795B795F111F8CFFAF4BB0F11F460FF08
:104B80001BC06F5F7F4F8F4F9F4F16C0882311F060
:104B900096E911C0772321F09EE8872F762F05C074
:104BA000662371F096E8862F70E060E02AF09A950F
:104BB000660F771F881FDAF7880F9695879597F904
:104BC000089597F99F6780E870E060E008959FEF8F
:104BD00080EC089500240A94161617061806090694
:104BE000089500240A941216130614060506089563
:104BF000092E0394000C11F4882352F0BB0F40F4EB
:104C0000BF2B11F460FF04C06F5F7F4F8F4F9F4F2A
:104C1000089557FD9058440F551F59F05F3F71F0AC
:104C20004795880F97FB991F61F09F3F79F0879513
:104C30000895121613061406551FF2CF4695F1DF9C
:104C400008C0161617061806991FF1CF869571052C
:104C5000610508940895E894BB2766277727CB0160
:104C600097F908950E9445260C94F8250E94EA259C
:104C700038F00E94F12520F0952311F00C94E125E5
:104C80000C94E72511240C942C260E94092670F31D
:104C9000959FC1F3950F50E0551F629FF001729FE1
:104CA000BB27F00DB11D639FAA27F00DB11DAA1FF0
:104CB000649F6627B00DA11D661F829F2227B00D3D
:104CC000A11D621F739FB00DA11D621F839FA00DC8
:104CD000611D221F749F3327A00D611D231F849F18
:104CE000600D211D822F762F6A2F11249F5750406F
:104CF0009AF0F1F088234AF0EE0FFF1FBB1F661FEA
:104D0000771F881F91505040A9F79E3F510580F0B2
:104D10000C94E1250C942C265F3FE4F3983ED4F3E9
:104D2000869577956795B795F795E7959F5FC1F756
:104D3000FE2B880F911D9695879597F90895CF932F
:104D4000DF938230910510F482E090E0E0918405D9
:104D5000F091850520E030E0C0E0D0E0309711F11F
:104D60004081518148175907C0F04817590761F42D
:104D700082819381209719F09B838A832BC0909323
:104D800085058093840526C02115310519F0421749
:104D9000530718F49A01BE01DF01EF010280F3818D
:104DA000E02DDCCF2115310509F1281B390B24300A
:104DB000310590F412968D919C91139761157105B0
:104DC00021F0FB019383828304C090938505809337
:104DD0008405FD01329644C0FD01E20FF31F81936B
:104DE0009193225031092D933C933AC02091820532
:104DF00030918305232B41F420910301309104016C
:104E000030938305209382052091010130910201A6
:104E10002115310541F42DB73EB740910501509160
:104E20000601241B350BE0918205F0918305E21702
:104E3000F307A0F42E1B3F0B2817390778F0AC01BD
:104E40004E5F5F4F2417350748F04E0F5F1F50939A
:104E50008305409382058193919302C0E0E0F0E0E6
:104E6000CF01DF91CF9108950F931F93CF93DF93DD
:104E7000009709F48CC0FC013297138212820091D2
:104E80008405109185050115110581F4208131817A
:104E9000820F931F209182053091830528173907CF
:104EA00079F5F0938305E093820571C0D80140E065
:104EB00050E0AE17BF0750F412962D913C91139716
:104EC000AD012115310509F1D901F3CF9D01DA01B9
:104ED0003383228360817181860F971F8217930726
:104EE00069F4EC0128813981260F371F2E5F3F4F6F
:104EF000318320838A819B8193838283452B29F48C
:104F0000F0938505E093840542C01396FC93EE93DD
:104F10001297ED01499159919E01240F351FE21717
:104F2000F30771F480819181840F951F0296119689
:104F30009C938E938281938113969C938E93129768
:104F4000E0E0F0E0D80112968D919C9113970097C4
:104F500019F0F8018C01F6CF8D919C9198012E5F8C
:104F60003F4F820F931F20918205309183052817B0
:104F7000390769F4309729F4109285051092840559
:104F800002C0138212821093830500938205DF9181
:104F9000CF911F910F910895FB01DC018D9101903C
:104FA00080190110D9F3990B0895AEE0B0E0EBED54
:104FB000F7E20C94842A0D891E8986E08C831A837B
:104FC00009838FEF9FE79E838D83AE01475E5F4F1E
:104FD0006F89788DCE0101960E94F8272F81388540
:104FE000F801E20FF31F10822E96E4E00C94A02A41
:104FF000ACE0B0E0EEEFF7E20C94762A7C016B01B6
:105000008A01FC0117821682838181FFBDC1CE0116
:1050100001964C01F7019381F60193FD859193FF71
:1050200081916F01882309F4ABC1853239F493FD76
:10503000859193FF81916F01853229F4B70190E04A
:105040000E94E029E7CF512C312C20E02032A0F43F
:105050008B3269F030F4803259F0833269F4206188
:105060002CC08D3239F0803339F4216026C02260A3
:10507000246023C0286021C027FD27C030ED380FF1
:105080003A3078F426FF06C0FAE05F9E300D112416
:10509000532E13C08AE0389E300D1124332E206227
:1050A0000CC08E3221F426FD6BC1206406C08C3604
:1050B00011F4206802C0883641F4F60193FD859111
:1050C00093FF81916F018111C1CF982F9F7D9554DE
:1050D000933028F40C5F1F4FFFE3F9830DC0833634
:1050E00031F0833771F0833509F05BC022C0F801DD
:1050F000808189830E5F1F4F44244394512C5401B7
:1051000015C03801F2E06F0E711CF801A080B1806B
:1051100026FF03C0652D70E002C06FEF7FEFC50171
:105120002C870E94D5292C0183012C852F77222ED4
:1051300017C03801F2E06F0E711CF801A080B18039
:1051400026FF03C0652D70E002C06FEF7FEFC50141
:105150002C870E94CA292C012C852068222E8301CD
:1051600023FC1BC0832D90E048165906B0F4B7010C
:1051700080E290E00E94E0293A94F4CFF50127FC08
:10518000859127FE81915F01B70190E00E94E0299F
:1051900031103A94F1E04F1A51084114510471F75B
:1051A000E5C0843611F0893639F5F80127FF07C0CC
:1051B00060817181828193810C5F1F4F08C0608183
:1051C0007181072E000C880B990B0E5F1F4F2F76F5
:1051D000722E97FF09C090958095709561957F4FCD
:1051E0008F4F9F4F2068722E2AE030E0A4010E946A
:1051F000182AA82EA81844C0853729F42F7EB22E6D
:105200002AE030E025C0F22FF97FBF2E8F36C1F0A3
:1052100018F4883579F0B4C0803719F0883721F058
:10522000AFC02F2F2061B22EB4FE0DC08B2D846035
:10523000B82E09C024FF0AC09F2F9660B92E06C061
:1052400028E030E005C020E130E002C020E132E09B
:10525000F801B7FE07C060817181828193810C5F84
:105260001F4F06C06081718180E090E00E5F1F4F8C
:10527000A4010E94182AA82EA818FB2DFF777F2EC4
:1052800076FE0BC0372D3E7FA51450F474FE0AC085
:1052900072FC08C0372D3E7E05C0BA2C372D03C0E6
:1052A000BA2C01C0B52C34FF0DC0FE01EA0DF11D72
:1052B0008081803311F4397E09C032FF06C0B39477
:1052C000B39404C0832F867809F0B39433FD13C0E0
:1052D00030FF06C05A2CB31418F4530C5B18B32CCF
:1052E000B31468F4B70180E290E03C870E94E029A3
:1052F000B3943C85F5CFB31410F43B1801C0312CA6
:1053000034FF12C0B70180E390E03C870E94E0299F
:105310003C8532FF17C031FD03C088E790E002C032
:1053200088E590E0B7010CC0832F867859F031FFF3
:1053300002C08BE201C080E237FD8DE2B70190E050
:105340000E94E029A51438F4B70180E390E00E94A0
:10535000E0295A94F7CFAA94F401EA0DF11D808157
:10536000B70190E00E94E029A110F5CF332009F4A5
:1053700051CEB70180E290E00E94E0293A94F6CF46
:10538000F7018681978102C08FEF9FEF2C96E2E1B3
:105390000C94922AFC010590615070400110D8F7DE
:1053A000809590958E0F9F1F0895FC01615070406D
:1053B00001900110D8F7809590958E0F9F1F08954A
:1053C0000F931F93CF93DF93FB01238121FD03C034
:1053D0008FEF9FEF28C022FF16C04681578124819E
:1053E00035814217530744F4A081B1819D012F5F9D
:1053F0003F4F318320838C93268137812F5F3F4F2E
:105400003783268310C0EB01092F182F0084F18504
:10541000E02D0995892BE1F68E819F8101969F836E
:105420008E83812F902FDF91CF911F910F9108953F
:10543000FA01AA27283051F1203181F1E8946F93C5
:105440006E7F6E5F7F4F8F4F9F4FAF4FB1E03ED06B
:10545000B4E03CD0670F781F891F9A1FA11D680F09
:10546000791F8A1F911DA11D6A0F711D811D911D3C
:10547000A11D20D009F468943F912AE0269F1124B1
:105480003019305D3193DEF6CF010895462F477015
:10549000405D4193B3E00FD0C9F7F6CF462F4F7070
:1054A000405D4A3318F0495D31FD4052419302D0CE
:1054B000A9F7EACFB4E0A695979587957795679574
:1054C000BA95C9F700976105710508959B01AC0174
:1054D0000A2E06945795479537952795BA95C9F79B
:1054E000620F731F841F951FA01D08952F923F9276
:1054F0004F925F926F927F928F929F92AF92BF92E4
:10550000CF92DF92EF92FF920F931F93CF93DF938F
:10551000CDB7DEB7CA1BDB0B0FB6F894DEBF0FBEEC
:10552000CDBF09942A88398848885F846E847D8439
:105530008C849B84AA84B984C884DF80EE80FD803B
:105540000C811B81AA81B981CE0FD11D0FB6F894B1
:0E555000DEBF0FBECDBFED010895F894FFCF72
:10555E0001000086052000446174612C20486F72A2
:10556E00612C2054656D70657261747572612C20AA
:10557E00556D69646164652C204D6574616E6F0DA7
:10558E000A0000000000000000809A90418E418FBA
:10559E00804545454949498E8F9092924F994F5576
:1055AE005559999A9B9C9D9E9F41494F55A5A5A6DD
:1055BE00A7A8A9AAABAC21AEAFB0B1B2B3B4B5B681
:1055CE00B7B8B9BABBBCBDBEBFC0C1C2C3C4C5C6E5
:1055DE00C7C8C9CACBCCCDCECFD0D1D2D3D4D5D6D5
:1055EE00D7D8D9DADBDCDDDEDFE0E1E2E3E4E5E6C5
:1055FE00E7E8E9EAEBECEDEEEFF0F1F2F3F4F5F6B5
:10560E00F7F8F9FAFBFCFDFEFF6C65697261256423
:10561E002E63737600253032642F253032642F25A9
:10562E003032642C253032643A253032642C2564B5
:10563E002E25642C25752C25750D0A004C454952D6
:10564E004125642E435356000D0A696E69740D0A86
:10565E00006D616E64617475646F006D616E646F70
:10566E000D0A0045727220636F64652025640D0A71
:10567E00006C656974757261617475616C00546556
:10568E006D70657261747572613A2025642E2564A1
:10569E000D0A48756D69646164653A2025750D0AB9
:1056AE004D6574616E6F3A2025750D0A0065727234
:1056BE006F3A006E616F2065682076616C69646F69
:1056CE000D0A00222A2B2C3A3B3C3D3E3F5B5D7C73
:1056DE007F00222A2B2C2E3A3B3C3D3E3F5B5D7CCD
:0256EE007F003B
:00000001FF
