:100000000C9434000C9453000C9451000C94510047
:100010000C9451000C9451000C9451000C9451001C
:100020000C9451000C9451000C9451000C9451000C
:100030000C9451000C9451000C9451000C945100FC
:100040000C9451000C9451000C9451000C945100EC
:100050000C9451000C9451000C9451000C945100DC
:100060000C9411070C94510011241FBECFEFD8E05F
:10007000DEBFCDBF11E0A0E0B1E0E0E6F1E102C0FB
:1000800005900D92AA33B107D9F722E0AAE3B1E0B7
:1000900001C01D92A330B207E1F70E9437080C940B
:1000A000AE080C9400001F920F920FB60F9211240D
:1000B0008F939F939BB188E089278BB99F918F91F4
:1000C0000F900FBE0F901F901895442369F022E007
:1000D0002093C0009B01AC0193E0220F331F441F0B
:1000E000551F9A95D1F709C09B01AC0184E0220FFE
:1000F000331F441F551F8A95D1F760E072E18AE7EC
:1001000090E00E948C08215031093093C500209363
:10011000C4008091C2008F738093C2008091C2009E
:100120008F7C8093C2008091C200877F8093C20041
:100130008091C2008B7F8093C2008091C200866054
:100140008093C20088E18093C10008958091C0002F
:1001500087FFFCCF8091C6000895CF92DF92EF9287
:10016000FF921F93CF93DF931F92CDB7DEB7182F67
:100170006C018C2D811B861760F4760169830E94C7
:10018000A600F60181936F0169818D3091F7F70127
:1001900010820F90DF91CF911F91FF90EF90DF9031
:1001A000CF9008959091C00095FFFCCF8093C6003A
:1001B0000895CF93DF93EC018991882319F00E9471
:1001C000D200FACFDF91CF9108956AE00E948008B3
:1001D00020E1829F900D1124892F0895982F9295E8
:1001E0009F708F702AE0929F800D11240895CF9305
:1001F000C82F88E60E94C7058C2F0E94E1050E9447
:10020000D10561E088E60E94BA05CF910C943406CE
:100210001F93CF93DF931F92CDB7DEB7182F88E6D9
:1002200069830E94C7056981862F0E94E105812F9D
:100230000E94E1050F90DF91CF911F910C94D105A1
:10024000CF93DF9381E10E94F700D82F82E10E94D3
:10025000F700C82F61E18EEE0E94080162E18DED8A
:100260000E94080181E10E94F7008E3E91F482E134
:100270000E94F7008D3D69F481E080933B0161E1CC
:100280008D2F0E94080162E18C2FDF91CF910C9499
:10029000080181E080933A01DF91CF910895809128
:1002A0003B01089580913A01089581E080933B01DC
:1002B00010923A01089510923B0181E080933A0137
:1002C0000895FF920F931F93CF93DF93CDB7DEB7BF
:1002D00029970FB6F894DEBF0FBECDBF88E60E9407
:1002E000C70580E00E94E1050E94D10567E088E62D
:1002F0000E94BA058E010F5F1F4F87E0F82EF00EA7
:100300000E943406F80181938F01FE12F9CF0E94FA
:10031000D10589818F770E94EE0090E09093AF0124
:100320008093AE018A810E94EE0090E09093B1012B
:100330008093B0018B810E94EE00082F10E0109393
:10034000B3010093B2018D810E94EE0090E0909382
:10035000B5018093B401FE808F2D8F710E94EE0055
:1003600090E09093B7018093B6018F81F7FE07C0AC
:100370000E94EE00282F30E02053384F06C00E9424
:10038000EE00282F30E02459384F3093B9012093E4
:10039000B8018C810E94EE0090E09093BB018093A5
:1003A000BA010115110529F41092BE011092BD0188
:1003B00007C00C30110544F41093BE010093BD0139
:1003C00081E08093BC0108C00C5011091093BE015C
:1003D0000093BD011092BC018EEA91E029960FB600
:1003E000F894DEBF0FBECDBFDF91CF911F910F916B
:1003F000FF9008959F92AF92BF92CF92DF92EF92BB
:10040000FF920F931F93CF93DF93CDB7DEB729975A
:100410000FB6F894DEBF0FBECDBF7C016B015A0151
:1004200088E60E94C70580E00E94E1050E94D10590
:1004300067E088E60E94BA058E010F5F1F4F87E0D4
:10044000982E900E0E943406F80181938F019E121F
:10045000F9CF0E94D105A114B10429F089810E942D
:10046000EE00F5018083C114D10429F08A810E9435
:10047000EE00F6018083E114F10429F08B810E94E3
:10048000EE00F701808329960FB6F894DEBF0FBE09
:10049000CDBFDF91CF911F910F91FF90EF90DF9033
:1004A000CF90BF90AF909F9008951F93CF93DF930D
:1004B000EC0188E60E94C70580E00E94E1058A857C
:1004C0009B85813D27E0920734F0805D97409B87B4
:1004D0008A8710E805C08C5697409B878A8710E072
:1004E00088810E94E5000E94E1058A810E94E50062
:1004F0000E94E1058C810E94E5000E94E1058C8547
:100500000E94E5000E94E1058E810E94E5000E94A4
:10051000E10588850E94E500810F0E94E1058A853A
:100520000E94E5000E94E105DF91CF911F910C949C
:10053000D1051F93CF93DF9300D0CDB7DEB7182F2F
:1005400088E649836A830E94C70580E00E94E1052E
:100550004981842F0E94E5000E94E1056A81862F6F
:100560000E94E5000E94E105812F0E94E5000E94A3
:10057000E1050F900F90DF91CF911F910C94D10561
:10058000CF9390913A0191110DC0C82F80E00E9445
:10059000F700CC2311F08F7701C0806860E0CF9125
:1005A0000C940801CF91089580913A01811106C001
:1005B0000E94F7008095881F8827881F0895FF9262
:1005C0000F931F93CF93DF93FC011082FB011082E6
:1005D00020913B01211122C0EB018C0188E60E9491
:1005E000C70581E10E94E1050E94D10562E088E62D
:1005F0000E94BA050E942E06882381F00E943406CC
:10060000F82E0E943406F801F08282958695869530
:10061000837099E1899F802D11248883DF91CF9188
:100620001F910F91FF900895CF93DF9390913B011D
:1006300091112EC0C82F88E60E94C7058EE00E9447
:10064000E1050E94D10561E088E60E94BA050E949A
:100650003406D82F88E60E94C7058EE00E94E10587
:100660008D2F80620E94E1050E94D105CC2381F08C
:1006700088E60E94C7058EE00E94E1050E94D10530
:1006800061E088E60E94BA050E94340685FDF0CF3D
:10069000DF91CF910895CF93C82F88E60E94C705B8
:1006A00088E08C0F0E94E1050E94D10561E088E698
:1006B0000E94BA05CF910C9434060F931F93CF93E9
:1006C0008C01C0E08C2F0E944B03F80181938F01B5
:1006D000CF5FC833B9F7CF911F910F9108951F9342
:1006E000CF93DF931F92CDB7DEB7182F88E66983CB
:1006F0000E94C705698188E0860F0E94E105812F6D
:100700000E94E1050F90DF91CF911F910C94D105CC
:100710000F931F93CF938C01C0E06C2FF801819150
:100720008F010E946F03CF5FC833B9F7CF911F913C
:100730000F910895CF93DF93D82F80913B018823A9
:10074000C9F088E60E94C70587E00E94E1050E9483
:10075000D10561E088E60E94BA050E943406C82FE0
:10076000DD2311F0C06101C0CF7E88E60E94C7057D
:1007700087E019C088E60E94C7058EE00E94E10567
:100780000E94D10561E088E60E94BA050E94340605
:10079000C82FDD2319F0CB7FC06401C0CF7B88E672
:1007A0000E94C7058EE00E94E1058C2F0E94E105A2
:1007B000DF91CF910C94D105CF93C82F80913B014D
:1007C0008823A9F088E60E94C70587E00E94E1051A
:1007D0000E94D10561E088E60E94BA050E943406B5
:1007E0008C7FC82B88E60E94C70587E016C088E684
:1007F0000E94C7058EE00E94E1050E94D10561E0DC
:1008000088E60E94BA050E943406877EC295C07FA2
:10081000C82B88E60E94C7058EE00E94E1058C2F58
:100820000E94E105CF910C94D105CF9390913A01AC
:10083000992311F1C82F88E60E94C7058FE00E9416
:10084000E1050E94D10561E088E60E94BA050E9498
:100850003406CC2319F0C82FC86002C0C82FC77F48
:1008600088E60E94C7058FE00E94E1058C2F0E9458
:10087000E105CF910C94D105CF91089580913B0172
:10088000882361F060E080E00E946F0361E080E017
:100890000E946F0362E080E00C946F0367E080E0E9
:1008A0000E94080168E080E00E94080169E080E0A1
:1008B0000E9408016AE080E00C9408018EE00E942A
:1008C000F7006EE084600E94080167E082E00E9409
:1008D000080168E080E00E94080169E080E80E9469
:1008E00008016AE080E80E9408018FE00E94F7009A
:1008F0006FE08E7F0C9408011F93CF93DF938831B4
:10090000D0F56C33C0F54C33B0F5142FD62FC82F6B
:1009100080913B01882379F060E08C2F0E946F0367
:1009200061E08D2F0E946F0362E0812FDF91CF91F4
:100930001F910C946F03842F0E94E50067E00E94D2
:1009400008018D2F0E94E50068E00E9408018C2FAD
:100950000E94E50069E00E9408016AE081E80E94C7
:1009600008018FE00E94F7006FE08E7FDF91CF914A
:100970001F910C940801DF91CF911F910895FC0104
:10098000892B29F04081628184810C947C04089534
:10099000EF92FF920F931F93CF93DF93EC018B01A4
:1009A0007A0180913B018823B9F0209721F080E003
:1009B0000E944B0388830115110529F081E00E94F4
:1009C0004B03F8018083E114F104E9F082E00E9416
:1009D0004B03F701808317C087E00E94F7008F77F1
:1009E0000E94EE00F701808388E00E94F7008F7775
:1009F0000E94EE00F801808389E00E94F7008F7763
:100A00000E94EE008883DF91CF911F910F91FF909C
:100A1000EF900895CF93DF9300D01F92CDB7DEB74C
:100A2000AE014F5F5F4FBE016E5F7F4FCE010396F9
:100A30000E94C804EEEAF1E08B8190E09583848304
:100A40008A8190E093838283898190E0918380837F
:100A5000CF010F900F900F90DF91CF910895FF92EB
:100A60000F931F93CF93DF9300D01F92CDB7DEB7C4
:100A700080913B01882311F180E00E944B03F82E06
:100A800081E00E944B03082F82E00E944B03182F45
:100A9000AE014F5F5F4FBE016E5F7F4FCE01039689
:100AA0000E94FA018B818F1107C08A81801304C0D4
:100AB00081E09981911779F080E00DC08FE00E946C
:100AC000F700182F117080FF04C06FE08E7F0E9426
:100AD0000801812F81700F900F900F90DF91CF91BF
:100AE0001F910F91FF900895AC01E0910102F091E8
:100AF00002023097E1F090914101809140019817F6
:100B0000B0F090E0292F30E02617370754F4DA01CF
:100B1000A20FB31F8C91D901AF53BE4F8C939F5F2F
:100B2000F1CF1092410160934001CB0109940895E7
:100B3000E091BF01F091C001309729F010923E0181
:100B400010923D01099408951092410110924001C4
:100B500010923E0110923D010C944F060E946206D5
:100B600088E995E00E94F40684E795E00E94EF068C
:100B70000C94A405462F613208F040E261EC71E06C
:100B80000E9466061092410180934001089591E011
:100B900090933C0180933F0110923E0110923D01E1
:100BA000089521E040913D0161EE71E080913F01A7
:100BB0000E94970610923E0110923D0110923C0156
:100BC0000895CF93DF931F92CDB7DEB789838091CD
:100BD0003C01882391F080913D01803298F480910E
:100BE0003E01E82FF0E0EF51FE4F998190838F5F37
:100BF00080933E0180933D0105C061E0CE010196E6
:100C00000E94D6060F90DF91CF9108950F931F9306
:100C1000CF93DF9320913C01222359F0162F082F08
:100C2000EC018C2F801B811750F489910E94E10503
:100C3000F8CFDF91CF911F910F910C94D606DF91E1
:100C4000CF911F910F910895FC0101900020E9F7C9
:100C50003197BF01681B790B0C9406068091400107
:100C600090914101891B089590914101809140012B
:100C7000981748F4E92FF0E0EF53FE4F80819F5F13
:100C800090934101089580E008959093020280932B
:100C9000010208959093C0018093BF0108951092BE
:100CA000AD01449A459AE9EBF0E080818E7F808324
:100CB00080818D7F808388E48093B80085E4809371
:100CC000BC000895880F8093BA000895413268F5FA
:100CD0009091AD019111FCCF91E09093AD019FEF08
:100CE0009093420110928701940F90938601880F90
:100CF00081608093AC0185EE8093BC008091AD0152
:100D00008130E1F380918701841710F440918701CD
:100D100028E831E0FB01D9018A2F821B841718F4DF
:100D20008D918193F9CF842F089580E00895413209
:100D3000B0F59091AD019111FCCF32E03093AD014F
:100D40003FEF309342011092870140938601FB01EF
:100D500068E871E0DB013A2F361B341718F4319143
:100D60003D93F9CF482F50E0440F551F4093AC01FD
:100D700085EE8093BC00222321F08091AD0182306A
:100D8000D1F3809142018F3F79F08091420180320E
:100D900041F080914201803331F094E005C091E050
:100DA00003C092E001C093E0892F0895613298F466
:100DB0002091AD01243089F460936401FC0126E6A2
:100DC00031E0D9018A2F821B861718F481918D9307
:100DD000F9CF80E0089581E0089582E0089590932E
:100DE000A9018093A80108959093AB018093AA0173
:100DF0000895882311F085EC01C085E88093BC003C
:100E0000089585ED8093BC008091BC0084FDFCCFEB
:100E10001092AD01089585EC8093BC001092AD0155
:100E200008951F920F920FB60F9211242F933F93A4
:100E30004F935F936F937F938F939F93AF93BF93E2
:100E4000EF93FF938091B900887F803609F495C0B5
:100E500068F5883209F45BC090F4803109F454C01D
:100E600038F4882309F4EEC0883009F44DC0EEC090
:100E7000883109F44CC0803209F45EC0E7C0803488
:100E800009F469C048F4803309F456C0883309F086
:100E9000DDC080934201A1C0803509F450C088357F
:100EA00009F45EC0883409F0D1C0CEC0883909F495
:100EB000BFC0A8F4883709F460C038F4883609F454
:100EC0005CC0803709F459C0C1C0883809F4B0C08B
:100ED000803909F458C0803809F0B8C054C0803B4C
:100EE00009F47EC038F4803A09F45FC0883A09F406
:100EF00077C0ACC0803C09F49FC0883C09F49CC01A
:100F0000883B09F482C0A2C08091AC0111C09091CD
:100F1000870180918601981708F096C0E0918701BB
:100F200081E08E0F80938701F0E0E857FE4F8081CB
:100F30008093BB0085EC7DC08093420185C0E09129
:100F4000870181E08E0F809387018091BB00F0E0E4
:100F5000E857FE4F8083909187018091860165C09C
:100F6000E091870181E08E0F809387018091BB0023
:100F7000F0E0E857FE4F808367C083E08093AD01C7
:100F800010924301D7CF80914301803208F050C0C6
:100F9000E091430181E08E0F809343018091BB007B
:100FA000F0E0EC5BFE4F8083C5CF8091430180323F
:100FB00030F4E0914301F0E0EC5BFE4F10820E94C0
:100FC00001076091430170E0E091A801F091A9014F
:100FD00084E491E00995109243010E940B0736C00A
:100FE00084E08093AD011092650110926401E0915C
:100FF000AA01F091AB01099580916401811105C0AE
:1010000081E08093640110926601E091650181E0C6
:101010008E0F80936501F0E0EA59FE4F8081809346
:10102000BB009091650180916401981708F482CF0C
:1010300085E88093BC000AC085EC8093BC001092C8
:10104000AD0104C0109242010E940107FF91EF918F
:10105000BF91AF919F918F917F916F915F914F91D0
:101060003F912F910F900FBE0F901F90189552989F
:101070005A9A539A809169008160809369008091A7
:101080006900826080936900E89A789480E091E03A
:101090000E94D9002FEF89E698E1215080409040CE
:1010A000E1F700C0000080E191E00E94D9002FEF3D
:1010B00089E698E1215080409040E1F700C00000AF
:1010C0008FE191E00E94D9002FEF89E698E121504D
:1010D00080409040E1F700C000000E94A4050E94FB
:1010E00020015B9883E391E00E94D9002FEF89E60D
:1010F00098E1215080409040E1F700C00000F2CF1D
:10110000991B79E004C0991F961708F0961B881F59
:101110007A95C9F780950895A1E21A2EAA1BBB1BE8
:10112000FD010DC0AA1FBB1FEE1FFF1FA217B307B3
:10113000E407F50720F0A21BB30BE40BF50B661FC9
:10114000771F881F991F1A9469F76095709580958D
:1011500090959B01AC01BD01CF010895F894FFCF9C
:1011600041542B4E414D453D424C5545530D0A00CF
:1011700041542B505357443D303030300D0A00411C
:10118000542B554152543D33383430302C312C30AF
:0A1190000D0A00666F6F0D0A0000E3
:00000001FF
