:100000000C9434000C9453000C9451000C94510047
:100010000C9451000C9451000C9451000C9451001C
:100020000C9451000C9451000C9451000C9451000C
:100030000C9451000C9451000C9451000C945100FC
:100040000C9451000C9451000C9451000C945100EC
:100050000C9451000C9451000C9451000C945100DC
:100060000C9476040C94510011241FBECFEFD8E0FD
:10007000DEBFCDBF11E0A0E0B1E0E4E1F3E102C0FA
:1000800005900D92A431B107D9F721E0A4E1B1E0C8
:1000900001C01D92AA3CB207E1F70E941C060C9415
:1000A00088090C9400001F920F920FB60F92112432
:1000B0008F939F9388B198E0892788B99F918F91FA
:1000C0000F900FBE0F901F9018956AE00E948A064D
:1000D00020E1829F900D1124892F0895982F9295E9
:1000E0009F708F702AE0929F800D11240895CF9306
:1000F000C82F88E60E942C038C2F0E9446030E9482
:10010000360361E088E60E941F03CF910C949903A7
:100110001F93CF93DF931F92CDB7DEB7182F88E6DA
:1001200069830E942C036981862F0E944603812FD8
:100130000E9446030F90DF91CF911F910C943603DC
:100140003F924F925F926F927F928F929F92AF9267
:10015000BF92CF92DF92EF92FF920F931F93CF93B4
:10016000DF93CDB7DEB729970FB6F894DEBF0FBE89
:10017000CDBF5C014B013A01690188E60E942C0366
:1001800080E00E9446030E94360367E088E60E94F2
:100190001F03CE0101962C0187E0382E340C0E94FB
:1001A0009903F20181932F013E12F9CF0E94360389
:1001B0006114710429F089810E946E00F30180832B
:1001C0008114910429F08A810E946E00F4018083D9
:1001D000A114B10429F08B810E946E00F501808387
:1001E000C114D10429F08D810E946E00F601808334
:1001F0000115110529F08E810E946E00F80180839F
:10020000E114F10429F08F810E946E00F7018083D0
:1002100029960FB6F894DEBF0FBECDBFDF91CF9108
:100220001F910F91FF90EF90DF90CF90BF90AF9014
:100230009F908F907F906F905F904F903F90089528
:10024000EF920F931F93CF93DF9300D01F92CDB700
:10025000DEB7182F88E62B8349836A830E942C031C
:1002600080E00E9446034981842F0E9465000E941D
:1002700046036A81862F0E9465000E944603812FF3
:100280000E9465000E94460380E00E9446032B8185
:10029000822F0E9465000E944603802F0E94650005
:1002A0000E9446038E2D0E9465000E9446030F9017
:1002B0000F900F90DF91CF911F910F91EF900C94C1
:1002C0003603FF920F931F93CF93DF938C01EB01C3
:1002D000FC011082188288E60E942C0381E10E94B2
:1002E00046030E94360362E088E60E941F030E94D4
:1002F0009303882381F00E949903F82E0E949903AA
:10030000F801F082829586958695837099E1899FA0
:10031000802D11248883DF91CF911F910F91FF9041
:100320000895CF93DF93C82F88E60E942C038EE0B8
:100330000E9446030E94360361E088E60E941F0384
:100340000E949903D82F88E60E942C038EE00E9419
:1003500046038D2F80620E9446030E943603CC2301
:1003600081F088E60E942C038EE00E9446030E94E2
:10037000360361E088E60E941F030E94990385FD11
:10038000F0CFDF91CF910895CF93DF93D82F88E6F8
:100390000E942C038EE00E9446030E94360361E017
:1003A00088E60E941F030E949903C82FDD2319F0DD
:1003B000CB7FC06401C0CF7B88E60E942C038EE017
:1003C0000E9446038C2F0E944603DF91CF910C942C
:1003D0003603CF93C82F88E60E942C038EE00E943C
:1003E00046030E94360361E088E60E941F030E94D4
:1003F0009903877EC295C07FC82B88E60E942C0394
:100400008EE00E9446038C2F0E944603CF910C94ED
:100410003603CF93DF93D82F88E60E942C038FE01A
:100420000E9446030E94360361E088E60E941F0393
:100430000E949903C82FDD2311F0C86001C0C77F57
:1004400088E60E942C038FE00E9446038C2F0E94B6
:100450004603DF91CF910C94360367E080E00E9461
:10046000880068E080E00E94880069E080E00E94E7
:1004700088006AE080E00C948800CF93C82F8EE05B
:100480000E9477006EE0CC2311F0856001C08A7F66
:10049000CF910C948800DF92EF92FF920F931F93FD
:1004A000CF93DF93C82F683108F045C04C3308F074
:1004B00042C02C3308F03FC0822FD42ED62F0E948A
:1004C000650090E8C99F9001112467E0822B0E948B
:1004D00088008D2D0E946500C1FBEE24E0F8F12C10
:1004E000F694FE2CEE24F794E79468E08E290E949F
:1004F00088008D2F0E946500C2FB002700F910E0E4
:100500001695102F00271795079569E0802B0E94FC
:1005100088006AE080E80E9488008FE00E947700EF
:100520006FE08E7FDF91CF911F910F91FF90EF9041
:10053000DF900C948800DF91CF911F910F91FF9075
:10054000EF90DF900895EF92FF920F931F93CF9358
:10055000DF93EC018B017A0187E00E9477008F77AF
:100560000E946E00F701808388E00E9477008F77F9
:100570000E946E00F801808389E00E9477008F77E7
:100580000E946E008883DF91CF911F910F91FF90A1
:10059000EF900895CF938FE00E947700C82FC1702D
:1005A00080FF04C06FE08E7F0E9488008C2FCF9167
:1005B0000895AC01E091C801F091C9013097E1F0D4
:1005C00090911901809118019817B0F090E0292FAF
:1005D00030E02617370754F4DA01A20FB31F8C91CD
:1005E000D901A857BE4F8C939F5FF1CF109219018C
:1005F00060931801CB0109940895E0918601F09170
:100600008701309729F01092160110921501099474
:10061000089510921901109218011092160110926B
:1006200015010C94B4030E94C7038DEF92E00E9461
:10063000590489ED92E00E9454040C940903462F5A
:10064000613208F040E268E871E00E94CB0310924A
:10065000190180931801089591E0909314018093FB
:1006600017011092160110921501089521E0409192
:10067000150168EA71E0809117010E94FC03109255
:10068000160110921501109214010895CF93DF9373
:100690001F92CDB7DEB7898380911401882391F032
:1006A00080911501803298F480911601E82FF0E0D6
:1006B000E855FE4F998190838F5F80931601809358
:1006C000150105C061E0CE0101960E943B040F9028
:1006D000DF91CF9108950F931F93CF93DF932091D4
:1006E0001401222359F0162F082FEC018C2F801BA8
:1006F000811750F489910E944603F8CFDF91CF9182
:100700001F910F910C943B04DF91CF911F910F919A
:100710000895FC0101900020E9F73197BF01681BA3
:10072000790B0C946B038091180190911901891B2E
:1007300008959091190180911801981748F4E92FB4
:10074000F0E0E857FE4F80819F5F90931901089574
:1007500080E008959093C9018093C8010895909313
:10076000870180938601089510928501449A459AE5
:10077000E9EBF0E080818E7F808380818D7F8083B4
:1007800088E48093B80085E48093BC000895880FC6
:100790008093BA000895413268F5909185019111D6
:1007A000FCCF91E0909385019FEF90931A011092F6
:1007B0005F01940F90935E01880F816080938401A4
:1007C00085EE8093BC00809185018130E1F38091BA
:1007D0005F01841710F440915F0120E631E0FB01D6
:1007E000D9018A2F821B841718F48D918193F9CF38
:1007F000842F089580E008954132B0F590918501ED
:100800009111FCCF32E0309385013FEF30931A0114
:1008100010925F0140935E01FB0160E671E0DB0135
:100820003A2F361B341718F431913D93F9CF482FE6
:1008300050E0440F551F4093840185EE8093BC0027
:10084000222321F0809185018230D1F380911A0119
:100850008F3F79F080911A01803241F080911A0126
:10086000803331F094E005C091E003C092E001C014
:1008700093E0892F0895613298F420918501243006
:1008800089F460933C01FC012EE331E0D9018A2F09
:10089000821B861718F481918D93F9CF80E008951B
:1008A00081E0089582E00895909381018093800112
:1008B000089590938301809382010895882311F015
:1008C00085EC01C085E88093BC00089585ED809398
:1008D000BC008091BC0084FDFCCF1092850108957E
:1008E00085EC8093BC001092850108951F920F92B1
:1008F0000FB60F9211242F933F934F935F936F93F3
:100900007F938F939F93AF93BF93EF93FF938091C8
:10091000B900887F803609F495C068F5883209F4FB
:100920005BC090F4803109F454C038F4882309F492
:10093000EEC0883009F44DC0EEC0883109F44CC0D7
:10094000803209F45EC0E7C0803409F469C048F41D
:10095000803309F456C0883309F0DDC080931A0152
:10096000A1C0803509F450C0883509F45EC08834D0
:1009700009F0D1C0CEC0883909F4BFC0A8F48837C7
:1009800009F460C038F4883609F45CC0803709F493
:1009900059C0C1C0883809F4B0C0803909F458C0C2
:1009A000803809F0B8C054C0803B09F47EC038F4E8
:1009B000803A09F45FC0883A09F477C0ACC0803C43
:1009C00009F49FC0883C09F49CC0883B09F482C0AC
:1009D000A2C08091840111C090915F0180915E015D
:1009E000981708F096C0E0915F0181E08E0F809328
:1009F0005F01F0E0E05AFE4F80818093BB0085EC00
:100A00007DC080931A0185C0E0915F0181E08E0F67
:100A100080935F018091BB00F0E0E05AFE4F80833D
:100A200090915F0180915E0165C0E0915F0181E07E
:100A30008E0F80935F018091BB00F0E0E05AFE4F83
:100A4000808367C083E08093850110921B01D7CF1C
:100A500080911B01803208F050C0E0911B0181E0C1
:100A60008E0F80931B018091BB00F0E0E45EFE4F8F
:100A70008083C5CF80911B01803230F4E0911B014F
:100A8000F0E0E45EFE4F10820E94660460911B015C
:100A900070E0E0918001F09181018CE191E0099595
:100AA00010921B010E94700436C084E0809385017F
:100AB00010923D0110923C01E0918201F09183017E
:100AC000099580913C01811105C081E080933C0132
:100AD00010923E01E0913D0181E08E0F80933D0137
:100AE000F0E0E25CFE4F80818093BB0090913D017D
:100AF00080913C01981708F482CF85E88093BC0070
:100B00000AC085EC8093BC001092850104C010924D
:100B10001A010E946604FF91EF91BF91AF919F91DE
:100B20008F917F916F915F914F913F912F910F9096
:100B30000FBE0F901F901895442369F022E0209378
:100B4000C0009B01AC0193E0220F331F441F551FCF
:100B50009A95D1F709C09B01AC0184E0220F331FA5
:100B6000441F551F8A95D1F760E072E18AE790E053
:100B70000E949606215031093093C5002093C4008D
:100B80008091C2008F738093C2008091C2008F7CDD
:100B90008093C2008091C200877F8093C2008091C1
:100BA000C2008B7F8093C2008091C20086608093D8
:100BB000C20088E18093C10008958091C00087FF42
:100BC000FCCF8091C6000895CF92DF92EF92FF9202
:100BD0001F93CF93DF931F92CDB7DEB7182F6C0111
:100BE0008C2D811B861760F4760169830E94DD05D8
:100BF000F60181936F0169818D3091F7F7011082C1
:100C00000F90DF91CF911F91FF90EF90DF90CF90E9
:100C100008959091C00095FFFCCF8093C600089581
:100C2000CF93DF93EC018991882319F00E94090684
:100C3000FACFDF91CF910895CF93DF93CDB7DEB791
:100C400065970FB6F894DEBF0FBECDBF789441E034
:100C500060E076E980E090E00E949C050E94090334
:100C600081E1E82E0BE028E047E063E180E00E94AC
:100C7000200180E00E94C40181E00E943D0225E045
:100C800043E167E18FE00E944B0290E0A92E91E0E2
:100C9000B92ECE0101966C010E94CA02CE01409687
:100CA0007C018E010F5E1F4F9E012E5E3F4FAE01F5
:100CB0004D5E5F4FBE016C5E7F4F05960E94A000A7
:100CC00088891F928F9389891F928F938A891F9297
:100CD0008F938B891F928F938C891F928F938D890D
:100CE0001F928F93BF92AF92DF92CF920E94B8066D
:100CF000C6010E9410069FEF29E688E1915020402E
:100D00008040E1F700C000000FB6F894DEBF0FBED0
:100D1000CDBFC2CF991B79E004C0991F961708F088
:100D2000961B881F7A95C9F780950895A1E21A2E1F
:100D3000AA1BBB1BFD010DC0AA1FBB1FEE1FFF1F7F
:100D4000A217B307E407F50720F0A21BB30BE40BCF
:100D5000F50B661F771F881F991F1A9469F7609516
:100D60007095809590959B01AC01BD01CF010895D0
:100D7000AEE0B0E0EEEBF6E00C945F090D891E8961
:100D800086E08C831A8309838FEF9FE79E838D8390
:100D9000AE01475E5F4F6F89788DCE0101960E944C
:100DA000DA06EF81F885E00FF11F10822E96E4E05D
:100DB0000C947B09ACE0B0E0E0EEF6E00C94510955
:100DC0006C017B018A01FC0117821682838181FFFD
:100DD000BEC1CE0101964C01F6019381F70193FD4E
:100DE000859193FF81917F01882309F4ACC18532FD
:100DF00039F493FD859193FF81917F01853229F428
:100E0000B60190E00E94C308E7CF512C312C20E0BE
:100E10002032A0F48B3269F030F4803259F0833202
:100E200069F420612CC08D3239F0803339F42160AF
:100E300026C02260246023C0286021C027FD27C06F
:100E400030ED380F3A3078F426FF06C0FAE05F9EA6
:100E5000300D1124532E13C08AE0389E300D11241A
:100E6000332E20620CC08E3221F426FD6CC120642A
:100E700006C08C3611F4206802C0883641F4F701B0
:100E800093FD859193FF81917F018111C1CF982FAF
:100E90009F7D9554933028F40C5F1F4F9FE39983F7
:100EA0000DC0833631F0833771F0833509F05BC0B4
:100EB00022C0F801808189830E5F1F4F4424439430
:100EC000512C540115C03801F2E06F0E711CF8016D
:100ED000A080B18026FF03C0652D70E002C06FEFD7
:100EE0007FEFC5012C870E94B8082C0183012C8557
:100EF0002F77222E17C03801F2E06F0E711CF80117
:100F0000A080B18026FF03C0652D70E002C06FEFA6
:100F10007FEFC5012C870E94AD082C012C8520682D
:100F2000222E830123FC1BC0832D90E04816590616
:100F3000B0F4B60180E290E00E94C3083A94F4CF86
:100F4000F50127FC859127FE81915F01B60190E0B4
:100F50000E94C30831103A94F1E04F1A510841142D
:100F6000510471F7E6C0843611F0893639F5F8017D
:100F700027FF07C060817181828193810C5F1F4FC1
:100F800008C060817181072E000C880B990B0E5FE1
:100F90001F4F2F76722E97FF09C090958095709500
:100FA00061957F4F8F4F9F4F2068722E2AE030E06F
:100FB000A4010E94F308A82EA81844C0853729F47C
:100FC0002F7EB22E2AE030E025C0F22FF97FBF2E0F
:100FD0008F36C1F018F4883579F0B5C0803719F034
:100FE000883721F0B0C02F2F2061B22EB4FE0DC083
:100FF0008B2D8460B82E09C024FF0AC09F2F9660F5
:10100000B92E06C028E030E005C020E130E002C083
:1010100020E132E0F801B7FE07C060817181828172
:1010200093810C5F1F4F06C06081718180E090E06A
:101030000E5F1F4FA4010E94F308A82EA818FB2DD5
:10104000FF777F2E76FE0BC0372D3E7FA51450F420
:1010500074FE0AC072FC08C0372D3E7E05C0BA2C53
:10106000372D03C0BA2C01C0B52C34FF0DC0FE01D2
:10107000EA0DF11D8081803311F4397E09C032FF01
:1010800006C0B394B39404C0832F867809F0B39458
:1010900033FD13C030FF06C0B31498F43A0C532C40
:1010A0005B1810C0B31470F4B60180E290E03C8786
:1010B0000E94C308B3943C85F5CFB31418F43B18D1
:1010C00002C05A2C312C34FF12C0B60180E390E0EC
:1010D0003C870E94C3083C8532FF17C031FD03C026
:1010E00088E790E002C088E590E0B6010CC0832F4D
:1010F000867859F031FF02C08BE201C080E237FDF3
:101100008DE2B60190E00E94C308A51438F4B60140
:1011100080E390E00E94C3085A94F7CFAA94F401A8
:10112000EA0DF11D8081B60190E00E94C308A11074
:10113000F5CF332009F450CEB60180E290E00E9452
:10114000C3083A94F6CFF6018681978102C08FEFEB
:101150009FEF2C96E2E10C946D09FC010590615023
:1011600070400110D8F7809590958E0F9F1F0895BD
:10117000FC016150704001900110D8F78095909566
:101180008E0F9F1F08950F931F93CF93DF93182FF8
:10119000092FEB018B8181FD03C08FEF9FEF1EC0F4
:1011A00082FF0FC02E813F818C819D8128173907D6
:1011B00074F4E881F981CF010196998388831083C3
:1011C00006C0E885F985812F0995892B31F78E8135
:1011D0009F8101969F838E83812F902FDF91CF91E6
:1011E0001F910F910895FA01AA27283051F120315B
:1011F00081F1E8946F936E7F6E5F7F4F8F4F9F4FAB
:10120000AF4FB1E03ED0B4E03CD0670F781F891FEC
:101210009A1FA11D680F791F8A1F911DA11D6A0FBA
:10122000711D811D911DA11D20D009F468943F916D
:101230002AE0269F11243019305D3193DEF6CF016C
:101240000895462F4770405D4193B3E00FD0C9F732
:10125000F6CF462F4F70405D4A3318F0495D31FD9F
:101260004052419302D0A9F7EACFB4E0A6959795F2
:10127000879577956795BA95C9F7009761057105C8
:1012800008959B01AC010A2E069457954795379512
:101290002795BA95C9F7620F731F841F951FA01D6C
:1012A00008952F923F924F925F926F927F928F920A
:1012B0009F92AF92BF92CF92DF92EF92FF920F93E5
:1012C0001F93CF93DF93CDB7DEB7CA1BDB0B0FB6EF
:1012D000F894DEBF0FBECDBF09942A8839884888AC
:1012E0005F846E847D848C849B84AA84B984C88442
:1012F000DF80EE80FD800C811B81AA81B981CE0F39
:10130000D11D0FB6F894DEBF0FBECDBFED0108951D
:04131000F894FFCF7F
:1013140025643A25643A2564202025642F25642F0A
:0413240025640A0032
:00000001FF
