:100000000C9434000C943E000C943E000C943E0082
:100010000C943E000C943E000C943E000C943E0068
:100020000C943E000C943E000C943E000C943E0058
:100030000C943E000C943E000C943E000C943E0048
:100040000C943E000C943E000C943E000C943E0038
:100050000C943E000C943E000C943E000C943E0028
:100060000C943E000C943E0011241FBECFEFD8E04C
:10007000DEBFCDBF0E9459000C948B000C94000091
:1000800085E090E0289A2FEF31EE44E02150304097
:100090004040E1F700C0000028982FEF31EE44E027
:1000A000215030404040E1F700C00000019751F777
:1000B0000895209A569A579A55980E9440002FEF1B
:1000C00034E38CE0215030408040E1F700C0000074
:1000D00090E0292F22708BB190FF02C0806401C094
:1000E0008F7B8BB98BB1222311F0806801C08F7791
:1000F0008BB94D9B02C0289A01C028982FEF34E39A
:100100008CE0215030408040E1F700C000009F5F4C
:0A0110009430F9F6DDCFF894FFCF2C
:00000001FF
