:100000000C9434000C9451000C9451000C94510049
:100010000C9451000C9451000C9451000C9451001C
:100020000C9451000C9451000C9451000C9451000C
:100030000C9451000C9451000C9451000C945100FC
:100040000C9451000C9451000C9451000C945100EC
:100050000C9451000C9451000C9451000C945100DC
:100060000C9451000C94510011241FBECFEFD8E026
:10007000DEBFCDBF12E0A0E0B1E0E6E7F7E302C0EB
:1000800005900D92A23AB107D9F724E0A2EAB2E0B6
:1000900001C01D92AF3DB207E1F70E94A8160C9473
:1000A000B91B0C94000060EE73E88AE59BE40895A8
:1000B000442369F022E02093C0009B01AC0193E04F
:1000C000220F331F441F551F9A95D1F709C09B017A
:1000D000AC0184E0220F331F441F551F8A95D1F7CE
:1000E00060E072E18AE790E00E94781721503109C0
:1000F0003093C5002093C4008091C2008F73809319
:10010000C2008091C2008F7C8093C2008091C200A7
:10011000877F8093C2008091C2008B7F8093C20052
:100120008091C20086608093C20088E18093C10004
:1001300008958091C00087FFFCCF8091C60008958C
:10014000FC0191E001C0990F6A95EAF72081411105
:1001500009C0292339F02091C00027FFF7CF8091F3
:10016000C600089588E10895AF92BF92CF92DF92C2
:10017000FF920F931F93CF93DF931F92CDB7DEB7FC
:10018000162F6A01F82E5C019A2D9F19911790F491
:10019000402F622FC60129830E94A0002981883147
:1001A00059F0F501D5018D935D018D3011F08A3044
:1001B00059F7108280E001C081E00F90DF91CF916C
:1001C0001F910F91FF90DF90CF90BF90AF90089557
:1001D0009091C00095FFFCCF8093C6000895CF9307
:1001E000DF93EC018991882319F00E94E800FACF8F
:1001F000DF91CF910895CF93DF93EB01DC01FA01FA
:10020000E230F10530F0299139912D933D933297E9
:10021000F7CF9A012E7FDC01A20FB31FFB01E20F83
:10022000F31F40FF02C020812C93DF91CF910895EE
:100230000097D1F0DC01ED91FC9111973097A1F07E
:100240002081222389F02681378112968D919C91FD
:1002500013972817390741F481810E94A01480FD6B
:1002600006C080E090E0089589E090E0089583E082
:1002700090E008950F93CF93DF93EC019A01AB01C7
:10028000BC016E5C7F4F01E089810E945115892B72
:1002900011F5FE01E05DFD4F8081918185359A4A1F
:1002A000E1F4E85CF14080819181A281B381BB27B8
:1002B00086349144A445B10591F0CC57DF4F488175
:1002C00059816A817B81772781E0463451446445B6
:1002D000710531F404C083E003C082E001C080E016
:1002E000DF91CF910F9108952F923F924F925F929D
:1002F0006F927F928F929F92AF92BF92CF92DF9236
:10030000EF92FF920F931F93CF93DF93CDB7DEB79A
:100310002E970FB6F894DEBF0FBECDBFDC01ED9176
:10032000FC9111972081022E000C330B20533109D0
:100330002A30310538F451815A3321F43296ED9345
:10034000FC9302C020E030E0FB0111821082232BDD
:1003500009F0FCC12091A4023091A5023E872D87AF
:100360002115310509F4F5C1142F31832083D901FA
:100370008C91882371F011968C910E94A01480FDBD
:1003800008C0112309F4E8C182FFE6C18AE090E0C9
:1003900007C2ED85FE851082118280E00E94A714BD
:1003A00080FDDDC1112311F082FDF0CF40E050E06F
:1003B000BA018D859E850E943A018130C9F4ED8590
:1003C000FE85EC50FE4F8081811103C08DE090E0EE
:1003D000E7C1ED85FE85E850FE4F40805180628088
:1003E0007380B301A2018D859E850E943A0103C0EE
:1003F000412C512C3201833009F4B4C18111E6CF74
:10040000AD85BE85DD968D919C91DE9781159240DC
:10041000E9F6ED85FE85E85BFF4F80809180A12C99
:10042000B12C81149104A104B10441F4ED85FE8541
:10043000EA5AFF4F80809180A280B380ED85FE85CF
:10044000828E938EA48EB58EEE5BFF4FA081ED85DC
:10045000FE85A3838FEF8A0F823008F0B7CF17ADE8
:100460001283112309F4B2CF812F90E09C01215017
:10047000310982239323892B09F0A8CFED5BFF4F2D
:1004800020803180ED85FE8531862086C1018F7008
:100490009927892B09F09ACFEB5BFF4FC080D18061
:1004A000E12CF12CC114D104E104F10441F4ED85F7
:1004B000FE85EE5AFF4FC080D180E280F380ED854B
:1004C000FE85E05CFF4F208131813A832983232B15
:1004D00009F47CCFB0E0A50194010E949A176D83C6
:1004E0007E838F839887A981BA81CD01A0E0B0E097
:1004F00089879A87AB87BC87C10154E09695879519
:100500005A95E1F749855A856B857C85480F591FB7
:10051000611D711D8D819E81AF81B885840F951FEE
:10052000A61FB71F89839A83AB83BC83C816D906DD
:10053000EA06FB0608F44ACFC701B60129813A81D1
:100540004B815C81621B730B840B950B212F30E078
:1005500040E050E00E947817211531054105510512
:1005600009F434CF263F8FE038074105510540F0AC
:10057000263F9FEF39074105510520F412E003C0E3
:1005800011E001C013E069017A01A2E0CA0ED11C9A
:10059000E11CF11CED85FE85C68AD78AE08EF18EBE
:1005A000468E578E60A271A289859A85AB85BC85DF
:1005B000840D951DA61DB71D82A393A3A4A3B5A367
:1005C00049815A816B817C81440D551D661D771DC3
:1005D00042A753A764A775A71330B9F4232809F0DD
:1005E000F5CEE25AFF4F80819181A281B381ED85E2
:1005F000FE8586A397A3A0A7B1A742E0CC0CDD1C83
:10060000EE1CFF1C4A95D1F72DC0232809F4DECE3D
:100610002D813E814F815885820F931FA41FB51FE6
:10062000ED85FE8586A397A3A0A7B1A7123029F474
:10063000CC0CDD1CEE1CFF1C15C0A3E0B0E0A70134
:1006400096010E949A17DC01CB01B695A795979564
:100650008795F1E0CF22DD24EE24FF24C80ED91EB9
:10066000EA1EFB1E2FEFC20E21E0D21EE11CF11C80
:1006700089E0F694E794D794C7948A95D1F78C14BF
:100680009D04AE04BF0408F4A1CE8FEF9FEFDC0100
:10069000ED85FE8586879787A08BB18BDF0112865B
:1006A0001386148615861330D1F51582EE59FF4F47
:1006B00080819181A3019201280F391F411D511D95
:1006C000FD01228B338B448B558B01E0BD016E5CA9
:1006D0007F4F81810E945115892B09F5ED85FE859B
:1006E000E05DFD4F8081918185359A4AC1F4ED85A9
:1006F000FE8582A993A9A4A9B5A982359245A146F0
:10070000B14469F4ED85FE85EA5EFD4F80819181FB
:10071000A281B38182379247A144B14631F1AD85C0
:10072000BE851C938091A2029091A30201969093A2
:10073000A3028093A20217969C938E931697FD01B5
:1007400016A617A610AA11AA148206C08BE090E084
:1007500027C08CE090E024C080E090E021C083E0DE
:1007600090E01EC081E090E01BC0ED85FE85E25E5A
:10077000FD4F80819181A281B381ED85FE858287C5
:100780009387A487B587E65EFD4F80819181A28122
:10079000B381ED85FE8586879787A08BB18BBFCF10
:1007A0002E960FB6F894DEBF0FBECDBFDF91CF916E
:1007B0001F910F91FF90EF90DF90CF90BF90AF907F
:1007C0009F908F907F906F905F904F903F902F9071
:1007D00008958F929F92AF92BF92CF92DF92EF9245
:1007E000FF920F93CF93DF93FC012481211103C06B
:1007F00080E090E044C0EC01C6A4D7A4E0A8F1A832
:100800004C01F2E38F0E911C01E0A7019601B401A7
:1008100089810E949D15892B81F51C824AA15BA1CB
:100820006CA17DA1C416D506E606F70608F38A8DED
:100830009B8DAC8DBD8D840F951FA61FB71FC8164D
:10084000D906EA06FB06A0F6AB80B12CE2E0AE16B4
:10085000B10470F28A8D9B8DAC8DBD8DC80ED91EF2
:10086000EA1EFB1E01E0A7019601B40189810E94E6
:100870009D1581E0A81AB108E9CF81E090E0DF91F1
:10088000CF910F91FF90EF90DF90CF90BF90AF90FE
:100890009F908F900895AF92BF92CF92DF92EF9288
:1008A000FF920F93CF93DF93FC01C6A4D7A4E0A8D7
:1008B000F1A84C155D056E057F05E1F06A017B012D
:1008C000EC010E94E9035C01892B21F0AA24A39486
:1008D000B12C12C001E0A7019601BE016E5C7F4FF2
:1008E00089810E945115892B89F7CEA6DFA6E8AA37
:1008F000F9AA02C0A12CB12CC501DF91CF910F91B3
:10090000FF90EF90DF90CF90BF90AF9008950F933E
:10091000CF93DF93EC010E94E903009709F058C0E0
:100920008881833009F047C08D81882309F443C052
:100930001EA61FA618AA19AABE016E5C7F4FFB0156
:10094000CE018E5C9D4FE817F90711F01192FBCF95
:1009500085E59AEAFE01E05DFD4F9183808382E5A3
:1009600092E5A1E6B1E48AAB9BABACABBDAB82E751
:1009700092E7A1E4B1E67A9780839183A283B3835F
:100980008E859F85A889B989349680839183A283B7
:10099000B3838A859B85AC85BD853496808391839E
:1009A000A283B3832A893B894C895D8901E08981CF
:1009B0000E949D151D8240E050E060E089810E9408
:1009C000FF1531E020E0892B09F430E0832F922FCE
:1009D000DF91CF910F9108950F931F93FC019A011E
:1009E000AB01225031094109510986899789A08DAF
:1009F000B18D0297A109B109281739074A075B078A
:100A000068F4A281B0E00E949A1702A513A524A55C
:100A100035A5600F711F821F931F03C060E070E057
:100A2000CB011F910F910895AF92BF92CF92DF92A9
:100A3000EF92FF921F93CF93DF93EC016A017B014A
:100A4000423051056105710508F4A8C08E899F895F
:100A5000A88DB98D481759076A077B0708F09EC013
:100A60008881823009F44AC0833009F46BC0813038
:100A700009F099C05A01B694A794AC0CBD1CC501ED
:100A8000892F992786954AA15BA16CA17DA1480F6A
:100A9000591F611D711DCE010E944B04892B09F065
:100AA00082C0F501F170EC0FFD1F12A98FEFA81A9B
:100AB000B80AC501892F992786954AA15BA16CA127
:100AC0007DA1480F591F611D711DCE010E944B046D
:100AD000892B09F068C0C5019170FE01E80FF91F6C
:100AE00082A9612F70E0782BC0FE06C054E0769595
:100AF00067955A95E1F723C07F7021C077276F2D46
:100B00005E2D4D2D8AA19BA1ACA1BDA1480F591FFF
:100B10006A1F7B1FCE010E944B04892B09F043C042
:100B2000CC0CDD1CEE1CFF1CE894C0F881E0D82240
:100B3000EE24FF24FE01EC0DFD1D62A973A980E0E7
:100B400090E034C08AA19BA1ACA1BDA127E076951D
:100B50006795579547952A95D1F7480F591F6A1FF2
:100B60007B1FCE010E944B04892BE9F482E0CC0C60
:100B7000DD1CEE1CFF1C8A95D1F78CEFC82281E0AA
:100B8000D822EE24FF24FE01EC0DFD1D82A993A9BD
:100B9000A4A9B5A9BC01CD019F7008C061E070E0B7
:100BA00080E090E003C06FEF7FEFCB01DF91CF914A
:100BB0001F91FF90EF90DF90CF90BF90AF9008957E
:100BC0000F931F93CF93DF93EC011D821C824E8104
:100BD0005F8168857985413051056105710519F49A
:100BE00082E090E065C008811981F80186899789C3
:100BF000A08DB18D481759076A077B0788F7411503
:100C0000510561057105F1F48081833049F446A1F5
:100C100057A160A571A5411551056105710591F4B4
:100C20001A861B861C861D86F80180859185892B76
:100C3000B9F286A197A1A0A5B1A58E879F87A88BA1
:100C4000B98B2DC0F801828181111EC088819981E4
:100C50000E941405AB01BC014F3FFFEF5F076F0718
:100C60007F0721F1423051056105710508F4B8CFC5
:100C7000E881F98186899789A08DB18D4817590738
:100C80006A077B0718F3ACCF4A875B876C877D8741
:100C9000C8010E94EC046E877F87888B998BC801FE
:100CA000C2969B8B8A8B80E090E002C081E090E04E
:100CB000DF91CF911F910F9108954F925F926F92A4
:100CC0007F928F929F92AF92BF92CF92DF92EF92DC
:100CD000FF920F931F93CF93DF9300D000D0CDB737
:100CE000DEB74C016A017B01280139014230510510
:100CF0006105710508F4EAC0FC0186899789A08D19
:100D0000B18D481759076A077B0708F0DFC080815B
:100D1000823009F475C0833009F498C0813009F03D
:100D2000CEC05A01B694A794A40EB51EC501892F52
:100D30009927869542A153A164A175A1480F591F17
:100D4000611D711DC4010E944B04009709F0B9C0D8
:100D5000F501F170AF01480D591DD701C601817031
:100D60009927AA27BB2789839A83AB83BC83C0FEBC
:100D70000BC0DA01D2968C91282F2F70B0E14B9ED8
:100D8000C0011124822B01C0842DFA0182ABFFEF38
:100D9000AF1ABF0A81E0D40114968C931497C50151
:100DA000892F9927869592964D915D916D917C91B1
:100DB0009597480F591F611D711DC4010E944B0476
:100DC000009709F07EC0B1E0BB22F401EA0DFB1DE3
:100DD00029813A814B815C81232B242B252B41F0E7
:100DE00064E076946794579447946A95D1F706C067
:100DF00032A9307F252D2F70432E422A42AA61C08E
:100E000077276F2D5E2D4D2DF40182A193A1A4A112
:100E1000B5A1480F591F6A1F7B1FC4010E944B04D4
:100E2000009709F04EC0CC0CDD1CEE1CFF1CE894B2
:100E3000C0F8F1E0DF22EE24FF2422E3C20ED11C31
:100E4000F401EC0DFD1D518240823BC0F40182A1F2
:100E500093A1A4A1B5A137E07695679557954795DD
:100E60003A95D1F7480F591F6A1F7B1FC4010E9492
:100E70004B04009731F522E0CC0CDD1CEE1CFF1C6E
:100E80002A95D1F7FCEFCF22F1E0DF22EE24FF24F8
:100E900022E3C20ED11CF401EC0DFD1D40815181F5
:100EA00062817381442755276627707F442A552A1B
:100EB000662A772A408251826282738202C082E06F
:100EC00090E021E0D40114962C9302C082E090E0DF
:100ED0000F900F900F900F90DF91CF911F910F9176
:100EE000FF90EF90DF90CF90BF90AF909F908F904A
:100EF0007F906F905F904F9008954F925F926F92A6
:100F00007F928F929F92AF92BF92CF92DF92EF9299
:100F1000FF920F931F93CF93DF93EC012A013B01C4
:100F2000411551056105710599F48A849B84AC844F
:100F3000BD8481149104A104B10409F18E899F89B3
:100F4000A88DB98D88169906AA06BB06E0F017C0D1
:100F50000E9414056B017C016230710581059105C9
:100F600008F480C08E899F89A88DB98DC816D906CE
:100F7000EA06FB0608F47BC05301420104C0812C41
:100F8000912C54018394750164018FEFC81AD80A1B
:100F9000E80AF80A8E899F89A88DB98DC816D906E6
:100FA000EA06FB0668F022E082169104A104B1046F
:100FB00010F460E058C082E0C82ED12CE12CF12C56
:100FC000B701A601CE010E9414058B019C01672B7D
:100FD000682B692BA1F00F3F8FEF18072807380700
:100FE00029F0013011052105310519F4B801C901B5
:100FF00045C0C814D904EA04FB0439F6DACF0FEF70
:101000001FEF2FEF3FE0B701A601CE010E945D0662
:10101000009731F54114510461047104C1F4CA868A
:10102000DB86EC86FD868E859F85A889B9898F3FF2
:101030002FEF9207A207B207D1F00197A109B109DA
:101040008E879F87A88BB98B81E08D8310C0970115
:101050008601B301A201CE010E945D060097F9F25C
:10106000019741F061E070E080E090E007C0B601D8
:10107000C70104C06FEF7FEF8FEF9FEFDF91CF913C
:101080001F910F91FF90EF90DF90CF90BF90AF90A6
:101090009F908F907F906F905F904F9008958F9268
:1010A0009F92AF92BF92CF92DF92EF92FF920F93F7
:1010B0001F93CF93DF93EC016B010C811D810F5FB8
:1010C0001F4F19F484E090E0E1C04E855F85688988
:1010D00079894115510561057105A1F378018FE00A
:1010E000E822FF24E114F10409F0BDC04F5F5F4F17
:1010F0006F4F7F4F4E875F87688B798B4A855B8503
:101100006C857D8588819981FC01411551056105BA
:10111000710531F4808591850817190798F6A3C0E9
:10112000228130E021503109F801A4E0F695E795DD
:10113000AA95E1F72E233F23232B09F094C00E94A8
:1011400014054B015C01623071058105910518F4AD
:1011500082E090E09BC08FEF88169806A806B8063C
:1011600019F481E090E092C088819981FC01468960
:101170005789608D718D84169506A606B70608F40A
:1011800064C0CD2809F49ECF4A855B856C857D853A
:101190000E947D074B015C01611571058105910578
:1011A00009F472C0613071058105910589F28FEFF4
:1011B00088169806A806B806A1F2888199810E942F
:1011C000E903892B71F688819981FC01F2968E5C86
:1011D0009D4FE817F90711F01192FBCFC880D98015
:1011E000B501A401C6010E94EC04F60166A777A729
:1011F00080AB91ABD12CCC24C394E881F98182815E
:10120000D816B8F4C482888199810E94E903892B99
:1012100009F0A7CFE881F98186A597A5A0A9B1A972
:101220000196A11DB11D86A797A7A0ABB1ABD39422
:10123000E4CF86A597A5A0A9B1A98D199109A10907
:10124000B10986A797A7A0ABB1AB8A869B86AC866F
:10125000BD86B501A401888199810E94EC046E8746
:101260007F87888B998B1D830C8388819981C29697
:1012700025E0EE0CFF1C2A95E1F7E80EF91EFB8A2B
:10128000EA8A80E090E002C087E090E0DF91CF91B1
:101290001F910F91FF90EF90DF90CF90BF90AF9094
:1012A0009F908F900895CF93DF93EC0184E090E0BE
:1012B0004E855F85688979894115510561057105FC
:1012C000F1F0888199810E944B040097D1F4EA895A
:1012D000FB8990819923D1F08385953E41F09E3220
:1012E00031F08F73883019F480E090E012C060E034
:1012F00070E0CE010E944F080097D1F202C0009723
:1013000099F31E861F86188A198A03C084E090E02C
:10131000F8CFDF91CF910895CF93DF93EC014E8505
:101320005F8568897989888199810E944B0400973B
:1013300071F4EA89FB892081253E49F0222339F0A6
:1013400061E070E0CE010E944F08009741F3DF9109
:10135000CF910895811113C0E091A402F091A502EC
:10136000309709F010826115710511F0FB011082B0
:101370007093A5026093A40280E090E008958BE052
:1013800090E008952F923F924F925F926F927F92DA
:101390008F929F92AF92BF92CF92DF92EF92FF9285
:1013A0000F931F93CF93DF93CDB7DEB7AD970FB6F3
:1013B000F894DEBF0FBECDBF7CA36BA3009709F4EA
:1013C0006BC2D42E98A78FA3DC011D921C924E7184
:1013D000BE016F5F7F4FCE0183960E9474018C0126
:1013E000892B09F082C2CE0147969E8B8D8BEBA094
:1013F000FCA0F70180818F3211F08C3519F4FFEFDA
:10140000EF1AFF0A1F82188619861A86D7018C9157
:10141000803228F0F0E25F2EA5E04A2E6BC0CE01AC
:1014200001960E94E0058C011C8A1B8AD6C05901D6
:1014300080E090E0E12CF12C48E050E0C12C6FEF0F
:10144000E61AF60AF50161915F01762F613208F024
:1014500066C0E20EF31E613208F487C020E0892BDB
:1014600009F4B9C08C91853E09F44C92483051057D
:1014700011F4CC0CCC0C8C2D8370813009F42061DC
:101480008C2D8C70843009F428601B962C93CE012F
:1014900001960E94E005009709F469C0ED89FE8974
:1014A0002385009709F08FC022FD97C04B895C8986
:1014B000DA011B968C911B9784FF8AC05A968D91F6
:1014C0009C915B97A0E0B0E029813A81F9012081ED
:1014D000233061F4FA014489558960E070E0BA0173
:1014E00055274427842B952BA62BB72B8F839887C2
:1014F000A987BA879701F7018081FFEFEF1AFF0AEA
:101500008F32C1F38C35B1F3AD89BE89FD01CD01B8
:101510000B96E817F90709F48ACF5192FACF6F3288
:1015200009F497CF6C3509F494CF6E3209F4DFC11A
:101530008417950708F04FC067FF08C0FC2DF360C3
:10154000CF2EE62FF0E0E957FF4F7081872E912CC8
:10155000E3E8F2E06191662309F4D4C1662E660FD8
:10156000770868147904B1F736C024E078CF4F8546
:10157000588969897A8989819A810E944B040097E8
:1015800009F08CCFEB89FC8980818823B1F08385B9
:1015900083FD0CC0AD89BE899F01255F3F4FE217D7
:1015A000F30771F091918D919817C9F360E070E0A5
:1015B000CE0101960E944F086ECF84E090E06ECF7E
:1015C00080E090E06BCF8C01049739F422FD05C0D8
:1015D00005E010E002C006E010E02B883C88011511
:1015E000110529F42114310411F406E010E0FD2D59
:1015F000FF71F9A78D2D8C7109F4EBC00115110550
:10160000D1F10430110571F5CE0101960E94E0057B
:101610008C01892B39F5CE0101960E948C098C0131
:10162000892B01F54F85588969897A8989819A8141
:101630000E944B048C01892BA9F4EB89FC89CF0112
:101640008096E817F90711F01192FBCF6D897E891A
:101650004BE050E08B899C890E94FB00E981FA8174
:1016600081E0848329A5286029A72B883C8801155F
:10167000110549F03AC1D1011B968C91817109F095
:1016800032C1D2FC0CC1B9A5B3FFB0C00E94530057
:10169000F10166877787808B918B1386D101148E39
:1016A000158E168E178EE981FA81FEA3EDA35A9648
:1016B0008D919C915B972C01612C712C80818330E2
:1016C00069F454968D919C915597A0E0B0E0DC01AF
:1016D00099278827482A592A6A2A7B2AD1015B96AA
:1016E0001C921E925A9755961C921E92549781E016
:1016F000EDA1FEA18483411451046104710409F435
:1017000075C086A597A5A0A9B1A98AA79BA7ACA7D4
:10171000BDA7B2E04B1651046104710408F4DAC0AD
:1017200086899789A08DB18D481659066A067B0671
:1017300008F0D0C073016201EDA1FEA186899789EE
:10174000A08DB18DC816D906EA06FB0608F0AAC01E
:10175000B701A6018DA19EA10E9414054B015C0159
:10176000611571058105910509F49CC06130710511
:101770008105910509F4AEC06F3F7F4F8F4F9F4F9A
:1017800009F4ABC000E010E09801B701A6018DA1FB
:101790009EA10E945D068C01892B09F0A6C0EDA1D7
:1017A000FEA186859785A089B1898F3FFFEF9F07AE
:1017B000AF07BF0759F00196A11DB11DEDA1FEA114
:1017C00086879787A08BB18B21E025837501640103
:1017D000B3CF0115110509F088C0D1011B968C917A
:1017E00084FD7EC0D1FE02C080FD7DC0B9A5B3FFDF
:1017F00002C0B062B9A709811A81F80146A557A5B0
:1018000060A971A9AFA1B8A55A964D935D936D9348
:101810007C935D975F963C922E925E97E9A5149615
:10182000EC93D1015A968D919C915B97A0E0B0E02A
:10183000F8012081233061F4F1014489558960E089
:1018400070E0BA0155274427842B952BA62BB72B84
:10185000EFA1F8A586879787A08BB18BF101848DC6
:10186000958DA68DB78DEFA1F8A582879387A48764
:10187000B5871682178210861186168A178A108EEF
:10188000118E11830083D80116968D919C91179724
:101890009383828380E001C089E090E049C008E042
:1018A00010E023C089819A81B301A20141505109FE
:1018B00061097109FC0142875387648775874AA5CE
:1018C0005BA56CA57DA50E944B048C01892B09F4B6
:1018D0008DCF0BC002E010E008C001E010E005C0B1
:1018E00004E010E002C007E010E0C80121C0483069
:1018F000510509F070CECC0CCC0C88E090E04BE0A8
:1019000050E09DCD6FEB670F6A3120F46C2D626063
:10191000C62E08C06FE9670F6A3120F4EC2DE16034
:10192000CE2E7052FD01E80FF91F7083019687CD0E
:10193000AD960FB6F894DEBF0FBECDBFDF91CF914D
:101940001F910F91FF90EF90DF90CF90BF90AF90DD
:101950009F908F907F906F905F904F903F902F90CF
:1019600008952F923F924F925F926F927F928F9243
:101970009F92AF92BF92CF92DF92EF92FF920F931E
:101980001F93CF93DF93EC015B016A011901F90109
:10199000118210820E941801009709F00EC18C81FB
:1019A00087FD07C180FF07C18A859B85AC85BD8502
:1019B0004E815F8168857985841B950BA60BB70BDB
:1019C000A60160E070E084179507A607B70708F046
:1019D00077C06C0175C04E815F8168857985DB01B8
:1019E000CA019170AA27BB27892B8A2B8B2B09F060
:1019F000B2C088819981FC01228121502A013B01DA
:101A0000E9E07694679457944794EA95D1F7122FBA
:101A1000142109F45AC0888099804A895B896C89AD
:101A20007D89C4010E94EC04611571058105910551
:101A300009F46BC02B013C01410E511C611C711C4F
:101A40007601EF2CFF24E694E114F10409F47FC041
:101A5000F4018281212F30E0A701420F531F90E053
:101A60008417950718F47C01E21AF30A0E2DA301DE
:101A70009201B501F40181810E945115892B09F071
:101A800080C0E881F9818481811143C0FE2CEE245D
:101A9000FF0CAE0CBF1C8E819F81A885B9858E0D71
:101AA0009F1DA11DB11D8E839F83A887B987F1015A
:101AB000808191818E0D9F1D91838083CE18DF08D8
:101AC000C114D10409F087CF72C0452B462B472B98
:101AD00029F46E857F858889998906C04A895B8942
:101AE0006C897D890E94140562307105810591051C
:101AF00060F06F3FFFEF7F078F079F0709F441C03A
:101B00006A8B7B8B8C8B9D8B86CF8C8180688C8342
:101B100050C086A597A5A0A9B1A984199509A609C1
:101B2000B709A70160E070E084179507A607B7071B
:101B300008F0ACCFBF016E5C7F4F982F8827990FBC
:101B400040E052E08A0D9B1D0E94FB009FCF4E8A11
:101B50005F8A688E798E8E819F81917020E032E05D
:101B6000281B390B76012C153D0508F479014E89A7
:101B70005F89688D798D888199810E944B04892BBA
:101B800029F08C8180688C8381E016C08E819F81D2
:101B9000A885B9859170AA27BB27C29668817981EB
:101BA000680F791FA701C5010E94FB0072CF80E07A
:101BB00003C082E001C087E090E0DF91CF911F91E8
:101BC0000F91FF90EF90DF90CF90BF90AF909F90DC
:101BD0008F907F906F905F904F903F902F900895DF
:101BE0002F923F924F925F926F927F928F929F922D
:101BF000AF92BF92CF92DF92EF92FF920F931F931B
:101C0000CF93DF93EC015B016A011901F9011182A5
:101C100010820E941801009709F067C18C8187FD2E
:101C20004EC181FF4EC18A859B85AC85BD85AC01C7
:101C3000BD014C0D5D1D611D711D481759076A07D7
:101C40007B0708F0A4C0C12CD12CA1C04E815F81BC
:101C500068857985DB01CA019170AA27BB27892B8A
:101C60008A2B8B2B09F0FBC0E881F981228121505E
:101C70002A013B01A9E07694679457944794AA956A
:101C8000D1F7122F142109F487C088819981FC01B2
:101C900046A457A460A871A84E895F89688D798D84
:101CA000441655066606770609F4BEC088809980FA
:101CB0004A895B896C897D89C4010E94EC046115A5
:101CC00071058105910509F4B5C02B013C01410E58
:101CD000511C611C711C7601EF2CFF24E694E11469
:101CE000F10409F4ABC0F4018281212F30E0A70197
:101CF000420F531F90E08417950718F47C01E21AF5
:101D0000F30A0E2DA3019201B501F40181810E9415
:101D10009D15892B09F0D7C088819981FC0146A5C2
:101D200057A560A971A944195509660977092701C2
:101D3000612C712C441555056605770570F4542FF8
:101D40004427550FB501640F751F40E052E0C2965D
:101D50000E94FB00E881F9811482FE2CEE24FF0C26
:101D6000AE0CBF1C8E819F81A885B9858E0D9F1DED
:101D7000A11DB11D8E839F83A887B987F101808142
:101D800091818E0D9F1D91838083CE18DF08C11431
:101D9000D10409F05BCF24C0452B462B472BA1F47F
:101DA0006E857F8588899989611571058105910501
:101DB00051F540E050E0BA01CF010E947D076E87E7
:101DC0007F87888B998B07C04A895B896C897D895D
:101DD000CF010E947D07611571058105910599F478
:101DE0008E819F81A885B9854A855B856C857D85B7
:101DF000481759076A077B0708F05CC08A879B87EA
:101E0000AC87BD8757C0613071058105910591F0A0
:101E10006F3FFFEF7F078F079F0709F454C06A8B5E
:101E20007B8B8C8B9D8B31CF0E94E903892B09F42E
:101E30003DCF49C08C8180688C8341C04E815F81D9
:101E4000688579858A859B85AC85BD854817590746
:101E50006A077B07F0F54E8A5F8A688E798E8E81DD
:101E60009F81917020E032E0281B390B76012C1500
:101E70003D0508F479014E895F89688D798D8881E7
:101E800099810E944B04892BF1F48E819F81A88552
:101E9000B9859170AA27BB27C29628813981A701ED
:101EA000B501820F931F0E94FB00E881F98131E0A8
:101EB000348356CF8C8180628C8380E008C082E0BE
:101EC00006C087E004C08C8180688C8381E090E04C
:101ED0000CC0C4010E94E903892BA9F7E881F981AC
:101EE00046A657A660AA71AAB6CFDF91CF911F91DF
:101EF0000F91FF90EF90DF90CF90BF90AF909F90A9
:101F00008F907F906F905F904F903F902F900895AB
:101F10000F931F93CF93DF93EC010E94180100975A
:101F2000D9F52C8125FF38C04A8D5B8D6C8D7D8D58
:101F3000888199810E944B04009771F50E8D1F8D49
:101F4000F8018385806283878A859B85AC85BD8502
:101F5000848F958FA68FB78F8E859F85A889B98925
:101F6000938F828FB58BA48B0E945300F801668BF0
:101F7000778B808F918F138A128A8C818F7D8C83CF
:101F8000E881F98181E0848388819981DF91CF9113
:101F90001F910F910C948704DF91CF911F910F91A6
:101FA0000895CF93DF93EC010E94880F009711F4FE
:101FB00019821882DF91CF9108952F923F924F920C
:101FC0005F926F927F928F929F92AF92BF92CF92C9
:101FD000DF92EF92FF920F931F93CF93DF9300D086
:101FE00000D0CDB7DEB71C016A017B010E94180149
:101FF000009709F06EC1D10114962C91149727FD1A
:1020000064C11A968D919D910D90BC91A02D8C1557
:102010009D05AE05BF0520F421FD02C06C017D01C8
:10202000F101468057806084718416821782108681
:102030001186C114D104E104F10421F4C12CD12C86
:10204000760116C1F10100811181D80112968C90A0
:10205000912CA12CB12C39E0880C991CAA1CBB1C1A
:102060003A95D1F7411451046104710409F43FC059
:10207000B1E04B1A510861087108C701B6016150FF
:10208000710981099109A50194010E94781729839A
:102090003A834B835C83C301B201A50194010E9482
:1020A000781789819A81AB81BC8182179307A40735
:1020B000B507E8F088279927DC0188199909AA094A
:1020C000BB09482259226A227B22D10116964D92E1
:1020D0005D926D927C921997C418D508E608F708AE
:1020E00052964D915D916D917C9155972BC0F10168
:1020F00046855785608971894115510561057105CE
:10210000E1F440E050E0BA01C8010E947D07AB0154
:10211000BC01413051056105710509F496C04F3F7E
:10212000BFEF5B076B077B0709F45DC0D1011E960B
:102130004D935D936D937C935197F101428B538B3B
:10214000648B758B411551056105710509F476CFD6
:102150002DC0423051056105710508F44FC0D10111
:10216000ED91FC9186899789A08DB18D481759070B
:102170006A077B0708F042C0D10152964D935D93E8
:102180006D937C93559716968D919D910D90BC9172
:10219000A02D880D991DAA1DBB1DF1018683978373
:1021A000A087B187C818D908EA08FB088C149D04D9
:1021B000AE04BF0450F5D10114962C9114978D9163
:1021C0009C9121FF16C00E947D07AB01BC01411507
:1021D000510561057105B9F04F3FBFEF5B076B0714
:1021E0007B0709F0B6CFF10184818068848381E0A8
:1021F0006FC00E941405AB01BC01EECFF1018481D8
:102200008068848362C075016401F10186819781D1
:10221000A085B1858C0D9D1DAE1DBF1D8683978346
:10222000A087B187D701C6019170AA27BB27892B48
:102230008A2B8B2B09F402CF808191810E94EC04C0
:10224000611571058105910541F4D10114968C91B8
:102250001497806814968C9338C029E0F694E7941C
:10226000D794C7942A95D1F7C60ED71EE81EF91E3B
:10227000F10186819781A085B185AC01BD015170C6
:1022800066277727452B462B472B69F046895789C8
:10229000608D718DC416D506E606F70621F0C68A54
:1022A000D78AE08EF18EF10142855385648575856C
:1022B000481759076A077B0750F482879387A487DA
:1022C000B58784818062848302C082E001C080E09F
:1022D00090E00F900F900F900F90DF91CF911F9192
:1022E0000F91FF90EF90DF90CF90BF90AF909F90B5
:1022F0008F907F906F905F904F903F902F900895B8
:10230000CF92DF92EF92FF920F931F93CF93DF93C1
:10231000CDB7DEB768970FB6F894DEBF0FBECDBF5E
:10232000988F8F8B7B016A0140E0BE016F5F7F4F0A
:10233000CE0147960E9474018C01892B09F050C090
:10234000E114F10439F11F82188619861A86CE012C
:1023500001960E94E005009709F041C0CE01019668
:102360000E945309009789F46B897C894BE050E007
:10237000C7010E94FB00F7013B961082EE15FF0596
:1023800049F082918032C9F305C08430910539F556
:10239000F7011082C114D10419F189819A81FC01DD
:1023A000468D578D60A171A10E944B048C01892B31
:1023B000B9F4E981FA818081833019F087E290E0F5
:1023C00002C083E490E0E80FF91F82A993A9A4A9B1
:1023D000B5A9F60180839183A283B38301C08C01E8
:1023E000C80168960FB6F894DEBF0FBECDBFDF916F
:1023F000CF911F910F91FF90EF90DF90CF900895B4
:10240000CF92DF92EF92FF920F931F93CF93DF93C0
:10241000CDB7DEB7A3970FB6F894DEBF0FBECDBF22
:102420009BA38AA341E0BE016F5F7F4FCE018296DE
:102430000E947401009709F0B1C01F8A8AA19BA174
:102440006C019C01B901681B790BD9014D919D016B
:102450004111F8CFFB01E80FF91FBF01681B790B91
:10246000E817F90761F41F82188619861A86CE01CB
:1024700001960E94E005009709F090C030C02291BB
:10248000203259F3FE0177968F0120E030E0D6012B
:102490008D916D0190E0AC01415651094A315105D1
:1024A00010F480970BC08038910528F089579F4F12
:1024B000DC018C9190E0009709F475C042E9E42EAC
:1024C00042E0F42ED7014D917D01442309F468C008
:1024D000042E000C550B48175907A1F764C0CE0114
:1024E00001960E9453090097F9F42F898B899C89E2
:1024F000222381F04BE050E0BE01695E7F4F0E94D5
:10250000FB000E945300EB89FC89668B778B808FE0
:10251000918F03C025EEFC01208389819A8121E0FF
:10252000DC0114962C9335C084309105B9F58F8960
:10253000882391F1CE0101960E94E005009771F584
:10254000CE0101960E948C09009741F5EB89FC8928
:10255000CF018096E817F90711F01192FBCF4BE0FD
:1025600050E0BE01695E7F4F8B899C890E94FB0011
:10257000EB89FC8988E083870E945300EB89FC8902
:10258000668B778B808F918F89819A8121E0FC0106
:1025900024830E94870402C020E006C0282F1BC0AD
:1025A0002B30310519F426E090E015C02F5F3F4F26
:1025B000D8018D938D012617370708F468CFDF0106
:1025C000A20FB31F20E2CD018E1B9F0B0B9708F0CB
:1025D0004ACF2D93F8CF822FA3960FB6F894DEBF83
:1025E0000FBECDBFDF91CF911F910F91FF90EF9064
:1025F000DF90CF90089523B123B123B123B1019788
:10260000D1F70895FC01680F791F919197FF02C0DF
:102610002B9A01C02B982D9A2D9896FF02C02B9AC9
:1026200001C02B982D9A2D9895FF02C02B9A01C0BE
:102630002B982D9A2D9894FF02C02B9A01C02B98AD
:102640002D9A2D9893FF02C02B9A01C02B982D9A9A
:102650002D9892FF02C02B9A01C02B982D9A2D988D
:1026600091FF02C02B9A01C02B982D9A2D9890FFB4
:1026700002C02B9A01C02B982D9A2D98E617F707C8
:1026800021F608952B9AFC01680F791F93B12D9ABA
:102690002D9892959170990F1C999F5F2D9A2D9866
:1026A000990F1C999F5F2D9A2D98990F1C999F5FE8
:1026B0002D9A2D98990F1C999F5F2D9A2D98990FFF
:1026C0001C999F5F2D9A2D98990F1C999F5F2D9AA9
:1026D0002D98990F1C999F5F2D9A2D989193E6172D
:1026E000F707A1F608950F931F93CF93DF931F92DF
:1026F000CDB7DEB708E813E161E070E0CE010196E6
:102700000E94421389818F3F51F084E690E00E943D
:10271000FB120150110981F780E090E002C081E0D6
:1027200090E00F90DF91CF911F910F910895CF937B
:10273000DF931F92CDB7DEB72A9A61E070E0CE0139
:1027400001960E9442130F90DF91CF910895CF938D
:10275000DF9300D01F92CDB7DEB72A9861E070E01A
:10276000CE0101960E9442130E947313009739F420
:102770008A839B830E9497138A819B8102C081E098
:1027800090E00F900F900F90DF91CF910895CF922E
:10279000DF92EF92FF920F931F93CF93DF9300D0BE
:1027A000CDB7DEB77C016B0108EE13E061E070E0AD
:1027B000CE0101960E94421389818F3F81F0898169
:1027C0008E3FA9F4B601C7010E94421362E070E097
:1027D000CE0101960E94421381E090E00AC084E697
:1027E00090E00E94FB120150110901F7E8CF80E050
:1027F00090E00F900F90DF91CF911F910F91FF907C
:10280000EF90DF90CF900895DF92EF92FF920F93B9
:102810001F93CF93DF93CDB7DEB727970FB6F8940A
:10282000DEBF0FBECDBF182F042FF52EE62ED72EFC
:1028300087FF09C040E050E0BA0187E30E9404141A
:102840008230A0F51F770E9497130E94A713892B4F
:1028500061F1812F80648983DA82EB82FC820D83AF
:10286000112321F0183021F081E003C085E901C077
:1028700087E88E8366E070E0CE0101960E94021325
:102880001C3031F461E070E0CE0107960E944213E3
:102890001AE061E070E0CE0107960E9442138F813A
:1028A00087FF04C01150A9F701C08FEF27960FB61C
:1028B000F894DEBF0FBECDBFDF91CF911F910F9176
:1028C000FF90EF90DF900895EF92FF921F93CF93C8
:1028D000DF9300D0CDB7DEB77C01162F0E947313B3
:1028E000009731F1198361E070E0CE0101960E94FA
:1028F00002131D3FD9F060E072E0C7010E9402138D
:1029000062E070E0CE0101960E94421361E070E047
:10291000CE0101960E94421389818F7131E020E03F
:10292000853009F030E0832F922F02C081E090E0E3
:102930000F900F90DF91CF911F91FF90EF9008952E
:10294000811103C080910001089581E00895EF9204
:10295000FF920F931F93CF93DF9300D000D0CDB79A
:10296000DEB7811167C080E197E20E94FB12229AD4
:102970002A9A259A2D98239A1AE061E070E0CE01F8
:1029800001960E9442131150C1F740E050E0BA0195
:1029900080E00E940414813009F076C04AEA51E0D8
:1029A00060E070E088E00E940414813009F564E082
:1029B00070E0CE0101960E9442138B81813009F0B4
:1029C00063C08C818A3A09F05FC008EE13E040E0F2
:1029D00050E060E070E489EA0E940414882361F109
:1029E00088EE93E00E94FB120150110981F74CC060
:1029F00040E050E0BA0189EA0E940414823018F0E5
:102A000001E011E002C009EA12E088EEE82E83E05E
:102A1000F82E40E050E0BA01802F0E940414882371
:102A200051F188EE93E00E94FB1281E0E81AF10870
:102A300081F72AC083E02AC040E050E0BA018AE36F
:102A40000E940414811120C064E070E0CE01019660
:102A50000E944213898186FD02C014E001C01CE07F
:102A60001093A60201E0111100E0009300010E9402
:102A70009713802F0BC040E052E060E070E080E1EF
:102A80000E940414882361F310E0EACF0F900F90A6
:102A90000F900F90DF91CF911F910F91FF90EF90CA
:102AA00008950F93CF93DF93EB01BA01A901811130
:102AB00003C08091000101C081E080FD38C0809199
:102AC000A60283FD07C089E0440F551F661F771FCC
:102AD0008A95D1F7013071F481E10E9404148111CB
:102AE0001EC060E072E0CE010E94C713892BB9F0CE
:102AF00000E015C082E10E940414811110C060E062
:102B000072E0CE010E94C713892B19F0DE5F0150DD
:102B1000B1F740E050E0BA018CE00E9404140E943A
:102B2000971381E090E0011104C080E002C083E0CF
:102B300090E0DF91CF910F910895CF92DF92EF92C5
:102B4000FF920F93CF93DF93EB0169017A0181111B
:102B500003C08091000101C081E080FD46C08091EA
:102B6000A60283FD07C099E0CC0CDD1CEE1CFF1C07
:102B70009A95D1F7013071F4B701A60188E10E945E
:102B80000414811127C06EEFCE010E946414892BBA
:102B900019F520C0867039F0402F50E060E070E0F9
:102BA00087E90E940414B701A60189E10E94041478
:102BB000811113C06CEFCE010E946414892B19F0AF
:102BC000DE5F0150B9F76DEF80E090E00E94641481
:102BD000892B19F401E001C000E00E94971381E005
:102BE00090E0011104C080E002C083E090E0DF913A
:102BF000CF910F91FF90EF90DF90CF9008950F93BA
:102C00001F93CF93DF93CDB7DEB760970FB6F894DD
:102C1000DEBF0FBECDBF811103C08091000101C096
:102C200081E080FD59C08A01613091F040F063304D
:102C300009F04CC080E890E0A0E0B0E040C00E9405
:102C4000A71301E010E0892B09F442C000E040C066
:102C500040E050E0BA0189E00E94041481113FC0B5
:102C600060E170E0CE0101960E94C713892BB9F193
:102C7000698170E086E0759567958A95E1F78885AA
:102C800029854A856130710561F58F7390E0A0E078
:102C9000B0E0DC01992788270196A11DB11D30E025
:102CA000322F2227240F311D820F931FA11DB11D2A
:102CB000FAE0880F991FAA1FBB1FFA95D1F7F801F8
:102CC00080839183A283B38300E001C004E010E01D
:102CD0000E949713C80131C083E090E02EC001E04C
:102CE000F6CFF4E08F9FC0011124019630E056E04A
:102CF000359527955A95E1F7820F931F2F81237001
:102D000030E0322F2227330F330F820F931FA0E0C2
:102D1000B0E02E81322F3F702B85221F2227221FE9
:102D2000230F4370440F420F475004C0880F991F70
:102D3000AA1FBB1F4A95D2F7C2CF60960FB6F89470
:102D4000DEBF0FBECDBFDF91CF911F910F910895D0
:102D5000CF93DF93CDB7DEB7C85CD1090FB6F89437
:102D6000DEBF0FBECDBF209A41E060E076E980E093
:102D700090E00E945800289A2FEF33ED80E3215015
:102D800030408040E1F700C00000289869EA72E016
:102D900080E00E94AA0983309105B1F038F40097D1
:102DA00081F0019719F584EB91E022C08C309105F8
:102DB00071F08D30910571F00B97C1F488E991E0C5
:102DC0000BC087E891E014C08BEC91E005C083EE66
:102DD00091E00EC08DEF91E00E94EF002FEF34E301
:102DE0008CE0215030408040E1F70BC089E192E057
:102DF0000E94EF009FEFE4E3FCE09150E040F040E0
:102E0000E1F700C0000080E290E00E94B4179093C8
:102E1000A8028093A702892B69F48CE292E00E94B9
:102E2000EF002FEF34E38CE0215030408040E1F799
:102E300000C0000042E163E572E08091A70290913A
:102E4000A8020E94C209009709F58091A7029091FB
:102E5000A802FC0142855385648575850E94DD0FBB
:102E6000892B69F49E012F5F3F4F4EE050E06EE5E5
:102E700072E08091A7029091A8020E94F00D8091CB
:102E8000A7029091A8020E94D10F1FC09F938F9319
:102E90008DE692E09F938F938E010F5F1F4F1F93DC
:102EA0000F930E94E118C8010E94EF00FFEF24E396
:102EB0003CE0F15020403040E1F700C000000F90AE
:102EC0000F900F900F900F900F9069EA72E080E0E2
:102ED0000E94AA0991E085B1892785B98FEFE4E3C3
:102EE000FCE08150E040F040E1F700C00000F3CF8B
:102EF000A1E21A2EAA1BBB1BFD010DC0AA1FBB1FFE
:102F0000EE1FFF1FA217B307E407F50720F0A21B6F
:102F1000B30BE40BF50B661F771F881F991F1A94DC
:102F200069F760957095809590959B01AC01BD0106
:102F3000CF0108950E94A517A59F900DB49F900DF5
:102F4000A49F800D911D11240895A29FB001B39FED
:102F5000C001A39F700D811D1124911DB29F700DA2
:102F6000811D1124911D0895CF93DF938230910527
:102F700010F482E090E0E091DD04F091DE0420E0C6
:102F800030E0C0E0D0E0309711F140815181481726
:102F90005907C0F04817590761F48281938120973F
:102FA00019F09B838A832BC09093DE048093DD0409
:102FB00026C02115310519F04217530718F49A015C
:102FC000BE01DF01EF010280F381E02DDCCF21158E
:102FD000310509F1281B390B2430310590F4129684
:102FE0008D919C9113976115710521F0FB019383DD
:102FF000828304C09093DE048093DD04FD01329649
:1030000044C0FD01E20FF31F8193919322503109D7
:103010002D933C933AC02091DB043091DC04232BA8
:1030200041F420910301309104013093DC0420939A
:10303000DB0420910101309102012115310541F499
:103040002DB73EB74091050150910601241B350B69
:10305000E091DB04F091DC04E217F307A0F42E1BEF
:103060003F0B2817390778F0AC014E5F5F4F2417EC
:10307000350748F04E0F5F1F5093DC044093DB048C
:103080008193919302C0E0E0F0E0CF01DF91CF9116
:1030900008950F931F93CF93DF93009709F48CC08B
:1030A000FC013297138212820091DD041091DE043C
:1030B0000115110581F420813181820F931F209128
:1030C000DB043091DC042817390779F5F093DC0430
:1030D000E093DB0471C0D80140E050E0AE17BF07B9
:1030E00050F412962D913C911397AD0121153105A5
:1030F00009F1D901F3CF9D01DA0133832283608185
:103100007181860F971F8217930769F4EC0128815C
:103110003981260F371F2E5F3F4F318320838A81ED
:103120009B8193838283452B29F4F093DE04E09303
:10313000DD0442C01396FC93EE931297ED01499182
:1031400059919E01240F351FE217F30771F4808116
:103150009181840F951F029611969C938E93828184
:10316000938113969C938E931297E0E0F0E0D80140
:1031700012968D919C911397009719F0F8018C018C
:10318000F6CF8D919C9198012E5F3F4F820F931F38
:103190002091DB043091DC042817390769F430975B
:1031A00029F41092DE041092DD0402C01382128210
:1031B0001093DC040093DB04DF91CF911F910F91FA
:1031C0000895AEE0B0E0E7EEF8E10C94901B0D89B5
:1031D0001E8986E08C831A8309838FEF9FE79E8385
:1031E0008D83AE01475E5F4F6F89788DCE0101966A
:1031F0000E9404192F813885F801E20FF31F108215
:103200002E96E4E00C94AC1BACE0B0E0EAE0F9E10F
:103210000C94821B7C016B018A01FC0117821682CF
:10322000838181FFBDC1CE0101964C01F7019381DD
:10323000F60193FD859193FF81916F01882309F435
:10324000ABC1853239F493FD859193FF81916F0174
:10325000853229F4B70190E00E94EC1AE7CF512C97
:10326000312C20E02032A0F48B3269F030F480322F
:1032700059F0833269F420612CC08D3239F08033EB
:1032800039F4216026C02260246023C0286021C058
:1032900027FD27C030ED380F3A3078F426FF06C0FE
:1032A000FAE05F9E300D1124532E13C08AE0389E41
:1032B000300D1124332E20620CC08E3221F426FDF5
:1032C0006BC1206406C08C3611F4206802C08836B9
:1032D00041F4F60193FD859193FF81916F01811176
:1032E000C1CF982F9F7D9554933028F40C5F1F4FCA
:1032F000FFE3F9830DC0833631F0833771F08335F6
:1033000009F05BC022C0F801808189830E5F1F4FE6
:1033100044244394512C540115C03801F2E06F0E3F
:10332000711CF801A080B18026FF03C0652D70E0FC
:1033300002C06FEF7FEFC5012C870E94E11A2C01BC
:1033400083012C852F77222E17C03801F2E06F0EF3
:10335000711CF801A080B18026FF03C0652D70E0CC
:1033600002C06FEF7FEFC5012C870E94D61A2C0197
:103370002C852068222E830123FC1BC0832D90E026
:1033800048165906B0F4B70180E290E00E94EC1AAA
:103390003A94F4CFF50127FC859127FE81915F01D6
:1033A000B70190E00E94EC1A31103A94F1E04F1A04
:1033B00051084114510471F7E5C0843611F0893683
:1033C00039F5F80127FF07C06081718182819381FF
:1033D0000C5F1F4F08C060817181072E000C880BA5
:1033E000990B0E5F1F4F2F76722E97FF09C0909595
:1033F0008095709561957F4F8F4F9F4F2068722EFB
:103400002AE030E0A4010E94241BA82EA81844C082
:10341000853729F42F7EB22E2AE030E025C0F22F26
:10342000F97FBF2E8F36C1F018F4883579F0B4C01B
:10343000803719F0883721F0AFC02F2F2061B22ECE
:10344000B4FE0DC08B2D8460B82E09C024FF0AC0C5
:103450009F2F9660B92E06C028E030E005C020E11D
:1034600030E002C020E132E0F801B7FE07C0608121
:103470007181828193810C5F1F4F06C060817181D1
:1034800080E090E00E5F1F4FA4010E94241BA82E35
:10349000A818FB2DFF777F2E76FE0BC0372D3E7FC1
:1034A000A51450F474FE0AC072FC08C0372D3E7E8D
:1034B00005C0BA2C372D03C0BA2C01C0B52C34FF7F
:1034C0000DC0FE01EA0DF11D8081803311F4397EBB
:1034D00009C032FF06C0B394B39404C0832F86782A
:1034E00009F0B39433FD13C030FF06C05A2CB31457
:1034F00018F4530C5B18B32CB31468F4B70180E2D2
:1035000090E03C870E94EC1AB3943C85F5CFB3144D
:1035100010F43B1801C0312C34FF12C0B70180E316
:1035200090E03C870E94EC1A3C8532FF17C031FDC9
:1035300003C088E790E002C088E590E0B7010CC0C6
:10354000832F867859F031FF02C08BE201C080E200
:1035500037FD8DE2B70190E00E94EC1AA51438F413
:10356000B70180E390E00E94EC1A5A94F7CFAA9436
:10357000F401EA0DF11D8081B70190E00E94EC1A80
:10358000A110F5CF332009F451CEB70180E290E0CD
:103590000E94EC1A3A94F6CFF7018681978102C017
:1035A0008FEF9FEF2C96E2E10C949E1BFC0105909F
:1035B000615070400110D8F7809590958E0F9F1F35
:1035C0000895FC016150704001900110D8F780957A
:1035D00090958E0F9F1F08950F931F93CF93DF93A6
:1035E000FB01238121FD03C08FEF9FEF28C022FF45
:1035F00016C046815781248135814217530744F410
:10360000A081B1819D012F5F3F4F318320838C9337
:10361000268137812F5F3F4F3783268310C0EB0110
:10362000092F182F0084F185E02D0995892BE1F6EB
:103630008E819F8101969F838E83812F902FDF91B2
:10364000CF911F910F910895FA01AA27283051F1C7
:10365000203181F1E8946F936E7F6E5F7F4F8F4FC3
:103660009F4FAF4FB1E03ED0B4E03CD0670F781F22
:10367000891F9A1FA11D680F791F8A1F911DA11D07
:103680006A0F711D811D911DA11D20D009F4689440
:103690003F912AE0269F11243019305D3193DEF6E8
:1036A000CF010895462F4770405D4193B3E00FD09E
:1036B000C9F7F6CF462F4F70405D4A3318F0495D89
:1036C00031FD4052419302D0A9F7EACFB4E0A6956C
:1036D0009795879577956795BA95C9F7009761058E
:1036E000710508959B01AC010A2E069457954795E4
:1036F00037952795BA95C9F7620F731F841F951FD9
:10370000A01D08952F923F924F925F926F927F92E9
:103710008F929F92AF92BF92CF92DF92EF92FF92E1
:103720000F931F93CF93DF93CDB7DEB7CA1BDB0B8D
:103730000FB6F894DEBF0FBECDBF09942A88398832
:1037400048885F846E847D848C849B84AA84B98439
:10375000C884DF80EE80FD800C811B81AA81B98145
:10376000CE0FD11D0FB6F894DEBF0FBECDBFED0159
:063770000895F894FFCF5C
:10377600010000DF042000809A90418E418F804531
:1037860045454949498E8F9092924F994F555559C3
:10379600999A9B9C9D9E9F41494F55A5A5A6A7A872
:1037A600A9AAABAC21AEAFB0B1B2B3B4B5B6B7B897
:1037B600B9BABBBCBDBEBFC0C1C2C3C4C5C6C7C8FB
:1037C600C9CACBCCCDCECFD0D1D2D3D4D5D6D7D8EB
:1037D600D9DADBDCDDDEDFE0E1E2E3E4E5E6E7E8DB
:1037E600E9EAEBECEDEEEFF0F1F2F3F4F5F6F7F8CB
:1037F600F9FAFBFCFDFEFF665F6D6F756E743A208D
:1038060046525F4F4B0D0A00665F6D6F756E743AD8
:103816002046525F494E56414C49445F44524956F0
:10382600450D0A00665F6D6F756E743A2046525FED
:103836004449534B5F4552520D0A00665F6D6F75E2
:103846006E743A2046525F4E4F545F52454144597A
:103856000D0A00665F6D6F756E743A2046525F4EB4
:103866004F545F454E41424C45440D0A00665F6D1C
:103876006F756E743A2046525F4E4F5F46494C450F
:1038860053595354454D0D0A00665F6D6F756E743E
:103896003A20554E4B4E4F574E0D0A004552524F49
:1038A600523A20756E61626C6520746F206D616C92
:1038B6006C6F632066696C6520706F696E746572E3
:1038C6000D0A00617070656E642E74787400486528
:1038D6006C6C6F20576F726C64210D0A00665F6F07
:1038E60070656E3A2045727220636F6465202564A8
:1038F6000D0A00222A2B2C3A3B3C3D3E3F5B5D7C69
:103906007F00222A2B2C2E3A3B3C3D3E3F5B5D7CC2
:023916007F0030
:00000001FF
