:100000000C9434000C943E000C9440000C943E0080
:100010000C943E000C943E000C94ED020C943E00B7
:100020000C943E000C943E000C943E000C943E0058
:100030000C943E000C943E000C943E000C943E0048
:100040000C943E000C943E000C943E000C943E0038
:100050000C943E000C943E000C943E000C943E0028
:100060000C943E000C943E0011241FBECFEFD8E04C
:10007000DEBFCDBF0E9404030C9436030C94000035
:100080001F920F920FB60F9211240F900FBE0F9078
:100090001F901895AF92BF92CF92DF92EF92FF928E
:1000A0000F931F93F9014115510511F52091B100EE
:1000B00021FF02C034E001C030E02091B10020FDFA
:1000C00032602091B1002091B1002B7F2093B100CC
:1000D0002091B1002D7F2093B1002091B1002E7F9F
:1000E0002093B1002091640020642093640001C03B
:1000F00030E06115710551F420917A002F7720933B
:100100007A0020916400216020936400309729F4E4
:10011000209164002860209364000115110529F4E2
:1001200020916400206220936400E114F10429F41A
:1001300020916400246020936400C114D10429F448
:1001400020916400226020936400A114B10429F47A
:10015000209164002068209364008A309105A9F002
:1001600083FD02C028E001C028E28770822B98E15D
:100170000FB6F894A895909360000FBE809360002E
:100180008091600080648093600083B7817F83BF2B
:10019000F89483B7816083BF7894889583B78E7F06
:1001A00083BF7894672B51F4809164008E7F809395
:1001B000640080917A00806880937A00452B61F416
:1001C00031FF05C08091B10084608093B1008091BF
:1001D00064008F7B80936400EF2B29F4809164008E
:1001E000877F80936400012B29F4809164008F7DC8
:1001F00080936400EF2829F4809164008B7F8093C2
:100200006400CD2829F4809164008D7F8093640080
:10021000AB2829F4809164008F77809364001F914C
:100220000F91FF90EF90DF90CF90BF90AF90089527
:1002300041155105C1F42091B10021FF02C024E015
:1002400001C020E03091B10030FD2260E1EBF0E030
:10025000308130813B7F308330813D7F30833081FE
:100260003E7F308301C020E06115710529F4EAE783
:10027000F0E030813F7730838A309105A9F083FD2B
:1002800002C038E001C038E28770832B98E10FB6D6
:10029000F894A895909360000FBE80936000E0E60C
:1002A000F0E080818064808383B7817F826083BF38
:1002B000F89483B7816083BF7894889583B78E7FE5
:1002C00083BF7894672B29F4EAE7F0E080818068A7
:1002D0008083452B39F421FF05C0E1EBF0E08081FC
:1002E0008460808308956115710529F4EAE7F0E0E0
:1002F00020812F7720838A309105A9F083FD02C0E9
:1003000028E001C028E28770822B98E10FB6F894AC
:10031000A895909360000FBE80936000E0E6F0E047
:10032000808180648083452BA1F483B7817F8460C2
:1003300083BFF89483B7816083BF85B7806685BF2C
:100340008F7D85BF7894889583B78E7F83BF78949F
:100350000EC083B7817F846083BFF89483B78160C8
:1003600083BF7894889583B78E7F83BF7894672BFB
:1003700029F4EAE7F0E08081806880830895DA015B
:1003800021153105C1F44091B10041FF02C054E094
:1003900001C050E04091B10040FD5260E1EBF0E05F
:1003A000408140814B7F408340814D7F408340812D
:1003B0004E7F408301C050E06115710529F4EAE7E2
:1003C000F0E040814F7740838A309105A9F083FDAA
:1003D00002C048E001C048E28770842B98E10FB664
:1003E000F894A895909360000FBE80936000E0E6BB
:1003F000F0E0808180648083AB2BA1F483B7817FA0
:10040000866083BFF89483B7816083BF85B78066B9
:1004100085BF8F7D85BF7894889583B78E7F83BF96
:1004200078940EC083B7817F866083BFF89483B7CA
:10043000816083BF7894889583B78E7F83BF7894DB
:10044000672B29F4EAE7F0E0808180688083232B22
:1004500039F451FF05C0E1EBF0E0808184608083D6
:1004600008956115710529F4EAE7F0E020812F77FE
:1004700020838A309105A9F083FD02C028E001C0E5
:1004800028E28770822B98E10FB6F894A895909394
:1004900060000FBE80936000E0E6F0E08081806441
:1004A0008083452BA1F483B7817F8C6083BFF89450
:1004B00083B7816083BF85B7806685BF8F7D85BF29
:1004C0007894889583B78E7F83BF78940EC083B766
:1004D000817F8C6083BFF89483B7816083BF7894F9
:1004E000889583B78E7F83BF7894672B29F4EAE7DA
:1004F000F0E08081806880830895DA01211531055C
:10050000C1F44091B10041FF02C054E001C050E08D
:100510004091B10040FD5260E1EBF0E0408140814C
:100520004B7F408340814D7F408340814E7F40839D
:1005300001C050E06115710529F4EAE7F0E040815F
:100540004F7740838A309105A9F083FD02C048E0CF
:1005500001C048E28770842B98E10FB6F894A89503
:10056000909360000FBE80936000E0E6F0E0808131
:1005700080648083AB2B99F483B78E6083BFF8943B
:1005800083B7816083BF85B7806685BF8F7D85BF58
:100590007894889583B78E7F83BF78940DC083B796
:1005A0008E6083BFF89483B7816083BF7894889509
:1005B00083B78E7F83BF7894672B29F4EAE7F0E056
:1005C000808180688083232B39F451FF05C0E1EBE3
:1005D000F0E080818460808308951F920F920FB6AF
:1005E0000F9211248F930FB6F894A8958091600014
:1005F000886180936000109260000FBE8F910F9011
:100600000FBE0F901F90189553985B9A3B9A80915C
:1006100069008B7F8093690080916900877F809358
:100620006900E99A4398789440E050E060E070E017
:100630008AE090E00E947301F89485E090E0439A8C
:100640002FEF31EE44E0215030404040E1F700C050
:10065000000043982FEF31EE44E0215030404040FD
:10066000E1F700C00000019751F7DDCFF894FFCF0C
:00000001FF
