:100000000C9434000C946C000C9492000C945100ED
:100010000C9451000C9451000C9454080C94510011
:100020000C9451000C9451000C9451000C9451000C
:100030000C9451000C9451000C9451000C945100FC
:100040000C9451000C9451000C9451000C945100EC
:100050000C9451000C9451000C9451000C945100DC
:100060000C948B040C94510011241FBECFEFD8E0E8
:10007000DEBFCDBF11E0A0E0B1E0E8E0F3E102C0F7
:1000800005900D92A830B107D9F721E0A8E0B1E0C2
:1000900001C01D92AF3BB207E1F70E94EB080C9440
:1000A00082090C94000085E090E0439A2FEF31EE36
:1000B00044E0215030404040E1F700C00000439848
:1000C0002FEF31EE44E0215030404040E1F700C0D6
:1000D0000000019751F708951F920F920FB60F92EB
:1000E00011242F933F934F935F936F937F938F933D
:1000F0009F93AF93BF93EF93FF930E9453000E948F
:100100005300FF91EF91BF91AF919F918F917F919C
:100110006F915F914F913F912F910F900FBE0F9074
:100120001F9018951F920F920FB60F9211242F93C4
:100130003F934F935F936F937F938F939F93AF936F
:10014000BF93EF93FF930E94530081E080930801D7
:10015000FF91EF91BF91AF919F918F917F916F919F
:100160005F914F913F912F910F900FBE0F901F9075
:1001700018956AE00E94540920E1829F900D112495
:10018000892F0895982F92959F708F702AE0929FE3
:10019000800D11240895CF93C82F88E60E94410353
:1001A0008C2F0E945B030E944B0361E088E60E9453
:1001B0003403CF910C94AE031F93CF93DF931F9220
:1001C000CDB7DEB7182F88E669830E9441036981A5
:1001D000862F0E945B03812F0E945B030F90DF91AB
:1001E000CF911F910C944B039F92AF92BF92CF92ED
:1001F000DF92EF92FF920F931F93CF93DF93CDB7D0
:10020000DEB729970FB6F894DEBF0FBECDBF7C01D5
:100210006B015A0188E60E94410380E00E945B0363
:100220000E944B0367E088E60E9434038E010F5F53
:100230001F4F87E0982E900E0E94AE03F801819325
:100240008F019E12F9CF0E944B03A114B10429F033
:1002500089810E94C200F5018083C114D10429F074
:100260008A810E94C200F6018083E114F10429F022
:100270008B810E94C200F701808329960FB6F89403
:10028000DEBF0FBECDBFDF91CF911F910F91FF90C9
:10029000EF90DF90CF90BF90AF909F9008951F9305
:1002A000CF93DF9300D0CDB7DEB7182F88E6498310
:1002B0006A830E94410380E00E945B034981842F8E
:1002C0000E94B9000E945B036A81862F0E94B900D8
:1002D0000E945B03812F0E94B9000E945B030F9074
:1002E0000F90DF91CF911F910C944B03FF920F93CE
:1002F0001F93CF93DF938C01EB01FC0110821882D6
:1003000088E60E94410381E10E945B030E944B0347
:1003100062E088E60E9434030E94A803882381F0EB
:100320000E94AE03F82E0E94AE03F801F08282957F
:1003300086958695837099E1899F802D1124888305
:10034000DF91CF911F910F91FF900895CF93DF938D
:10035000C82F88E60E9441038EE00E945B030E9442
:100360004B0361E088E60E9434030E94AE03D82F5D
:1003700088E60E9441038EE00E945B038D2F80621D
:100380000E945B030E944B03CC2381F088E60E940D
:1003900041038EE00E945B030E944B0361E088E60C
:1003A0000E9434030E94AE0385FDF0CFDF91CF9110
:1003B0000895CF93DF93D82F88E60E9441038EE003
:1003C0000E945B030E944B0361E088E60E943403B5
:1003D0000E94AE03C82FDD2319F0CB7FC06401C09B
:1003E000CF7B88E60E9441038EE00E945B038C2F46
:1003F0000E945B03DF91CF910C944B03CF93C82FE6
:1004000088E60E9441038EE00E945B030E944B033A
:1004100061E088E60E9434030E94AE03877EC295A5
:10042000C07FC82B88E60E9441038EE00E945B03D8
:100430008C2F0E945B03CF910C944B03CF93DF93DF
:10044000D82F88E60E9441038FE00E945B030E9440
:100450004B0361E088E60E9434030E94AE03C82F7C
:10046000DD2311F0C86001C0C77F88E60E94410308
:100470008FE00E945B038C2F0E945B03DF91CF9182
:100480000C944B0367E080E00E94DC0068E080E0B1
:100490000E94DC0069E080E00E94DC006AE080E00D
:1004A0000C94DC00CF93C82F8EE00E94CB006EE04E
:1004B000CC2311F0856001C08A7FCF910C94DC00C1
:1004C000DF92EF92FF920F931F93CF93DF93C82F8A
:1004D000683108F045C04C3308F042C02C3308F0B6
:1004E0003FC0822FD42ED62F0E94B90090E8C99F1A
:1004F0009001112467E0822B0E94DC008D2D0E9468
:10050000B900C1FBEE24E0F8F12CF694FE2CEE24A9
:10051000F794E79468E08E290E94DC008D2F0E94FA
:10052000B900C2FB002700F910E01695102F002734
:100530001795079569E0802B0E94DC006AE080E84F
:100540000E94DC008FE00E94CB006FE08E7FDF9185
:10055000CF911F910F91FF90EF90DF900C94DC00F2
:10056000DF91CF911F910F91FF90EF90DF90089551
:10057000EF92FF920F931F93CF93DF93EC018B01C8
:100580007A0187E00E94CB008F770E94C200F701BA
:10059000808388E00E94CB008F770E94C200F80120
:1005A000808389E00E94CB008F770E94C2008883FD
:1005B000DF91CF911F910F91FF90EF900895CF930E
:1005C0008FE00E94CB00C82FC17080FF04C06FE095
:1005D0008E7F0E94DC008C2FCF910895AC01E091BA
:1005E000BD01F091BE013097E1F090910E01809134
:1005F0000D019817B0F090E0292F30E0261737074B
:1006000054F4DA01A20FB31F8C91D901A358BE4F45
:100610008C939F5FF1CF10920E0160930D01CB017F
:1006200009940895E0917B01F0917C01309729F0C5
:1006300010920B0110920A010994089510920E0174
:1006400010920D0110920B0110920A010C94C90333
:100650000E94DC0382E193E00E946E048EEE92E041
:100660000E9469040C941E03462F613208F040E298
:100670006DE771E00E94E00310920E0180930D017E
:10068000089591E09093090180930C0110920B0161
:1006900010920A01089521E040910A016DE971E08C
:1006A00080910C010E94110410920B0110920A011A
:1006B000109209010895CF93DF931F92CDB7DEB753
:1006C000898380910901882391F080910A01803209
:1006D00098F480910B01E82FF0E0E356FE4F9981EA
:1006E00090838F5F80930B0180930A0105C061E0C6
:1006F000CE0101960E9450040F90DF91CF91089592
:100700000F931F93CF93DF9320910901222359F078
:10071000162F082FEC018C2F801B811750F4899124
:100720000E945B03F8CFDF91CF911F910F910C9442
:100730005004DF91CF911F910F910895FC0101901A
:100740000020E9F73197BF01681B790B0C948003F7
:1007500080910D0190910E01891B089590910E01D9
:1007600080910D01981748F4E92FF0E0E358FE4F0F
:1007700080819F5F90930E01089580E0089590938B
:10078000BE018093BD01089590937C0180937B010D
:10079000089510927A01449A459AE9EBF0E080813D
:1007A0008E7F808380818D7F808388E48093B800F2
:1007B00085E48093BC000895880F8093BA00089563
:1007C000413268F590917A019111FCCF91E09093BC
:1007D0007A019FEF90930F0110925401940F909320
:1007E0005301880F81608093790185EE8093BC006E
:1007F00080917A018130E1F380915401841710F4E3
:100800004091540125E531E0FB01D9018A2F821B7B
:10081000841718F48D918193F9CF842F089580E087
:1008200008954132B0F590917A019111FCCF32E0F8
:1008300030937A013FEF30930F01109254014093AF
:100840005301FB0165E571E0DB013A2F361B3417DC
:1008500018F431913D93F9CF482F50E0440F551FC4
:100860004093790185EE8093BC00222321F0809192
:100870007A018230D1F380910F018F3F79F080911E
:100880000F01803241F080910F01803331F094E00C
:1008900005C091E003C092E001C093E0892F089564
:1008A000613298F420917A01243089F46093310107
:1008B000FC0123E331E0D9018A2F821B861718F44B
:1008C00081918D93F9CF80E0089581E0089582E0D1
:1008D000089590937601809375010895909378011F
:1008E000809377010895882311F085EC01C085E895
:1008F0008093BC00089585ED8093BC008091BC007E
:1009000084FDFCCF10927A01089585EC8093BC00A1
:1009100010927A0108951F920F920FB60F92112430
:100920002F933F934F935F936F937F938F939F93F7
:10093000AF93BF93EF93FF938091B900887F803688
:1009400009F495C068F5883209F45BC090F48031F1
:1009500009F454C038F4882309F4EEC0883009F44F
:100960004DC0EEC0883109F44CC0803209F45EC03D
:10097000E7C0803409F469C048F4803309F456C0F4
:10098000883309F0DDC080930F01A1C0803509F4E0
:1009900050C0883509F45EC0883409F0D1C0CEC09B
:1009A000883909F4BFC0A8F4883709F460C038F466
:1009B000883609F45CC0803709F459C0C1C0883852
:1009C00009F4B0C0803909F458C0803809F0B8C0C3
:1009D00054C0803B09F47EC038F4803A09F45FC00B
:1009E000883A09F477C0ACC0803C09F49FC0883CC9
:1009F00009F49CC0883B09F482C0A2C080917901AF
:100A000011C09091540180915301981708F096C03D
:100A1000E091540181E08E0F80935401F0E0EB5A95
:100A2000FE4F80818093BB0085EC7DC080930F01D9
:100A300085C0E091540181E08E0F80935401809134
:100A4000BB00F0E0EB5AFE4F8083909154018091FF
:100A5000530165C0E091540181E08E0F80935401F1
:100A60008091BB00F0E0EB5AFE4F808367C083E0CB
:100A700080937A0110921001D7CF809110018032BB
:100A800008F050C0E091100181E08E0F80931001BA
:100A90008091BB00F0E0EF5EFE4F8083C5CF809178
:100AA0001001803230F4E0911001F0E0EF5EFE4F73
:100AB00010820E947B046091100170E0E09175014A
:100AC000F091760181E191E00995109210010E9468
:100AD000850436C084E080937A011092320110922E
:100AE0003101E0917701F091780109958091310110
:100AF000811105C081E08093310110923301E091B2
:100B0000320181E08E0F80933201F0E0ED5CFE4F08
:100B100080818093BB0090913201809131019817C0
:100B200008F482CF85E88093BC000AC085EC8093EE
:100B3000BC0010927A0104C010920F010E947B0445
:100B4000FF91EF91BF91AF919F918F917F916F91A5
:100B50005F914F913F912F910F900FBE0F901F907B
:100B60001895AF92BF92CF92DF92EF92FF920F93C0
:100B70001F93F9014115510511F52091B10021FF95
:100B800002C034E001C030E02091B10020FD3260AD
:100B90002091B1002091B1002B7F2093B1002091D2
:100BA000B1002D7F2093B1002091B1002E7F2093C2
:100BB000B1002091640020642093640001C030E003
:100BC0006115710551F420917A002F7720937A00F6
:100BD00020916400216020936400309729F42091D3
:100BE00064002860209364000115110529F4209108
:100BF0006400206220936400E114F10429F4209140
:100C00006400246020936400C114D10429F420916D
:100C10006400226020936400A114B10429F420919F
:100C200064002068209364008A309105A9F083FD58
:100C300002C028E001C028E28770822B98E10FB63D
:100C4000F894A895909360000FBE80936000809107
:100C5000600080648093600083B7817F83BFF894D5
:100C600083B7816083BF7894889583B78E7F83BF75
:100C70007894672B51F4809164008E7F8093640098
:100C800080917A00806880937A00452B61F431FF6F
:100C900005C08091B10084608093B10080916400B0
:100CA0008F7B80936400EF2B29F480916400877F11
:100CB00080936400012B29F4809164008F7D8093E0
:100CC0006400EF2829F4809164008B7F8093640096
:100CD000CD2829F4809164008D7F80936400AB2837
:100CE00029F4809164008F77809364001F910F91A5
:100CF000FF90EF90DF90CF90BF90AF900895411597
:100D00005105C1F42091B10021FF02C024E001C0CF
:100D100020E03091B10030FD2260E1EBF0E0308165
:100D200030813B7F308330813D7F308330813E7F17
:100D3000308301C020E06115710529F4EAE7F0E095
:100D400030813F7730838A309105A9F083FD02C05E
:100D500038E001C038E28770832B98E10FB6F89431
:100D6000A895909360000FBE80936000E0E6F0E0ED
:100D700080818064808383B7817F826083BFF894A1
:100D800083B7816083BF7894889583B78E7F83BF54
:100D90007894672B29F4EAE7F0E08081806880830B
:100DA000452B39F421FF05C0E1EBF0E08081846040
:100DB000808308956115710529F4EAE7F0E0208148
:100DC0002F7720838A309105A9F083FD02C028E0A7
:100DD00001C028E28770822B98E10FB6F894A8959D
:100DE000909360000FBE80936000E0E6F0E08081A9
:100DF00080648083452BA1F483B7817F846083BFA7
:100E0000F89483B7816083BF85B7806685BF8F7D87
:100E100085BF7894889583B78E7F83BF78940EC002
:100E200083B7817F846083BFF89483B7816083BF79
:100E30007894889583B78E7F83BF7894672B29F445
:100E4000EAE7F0E08081806880830895DA01211567
:100E50003105C1F44091B10041FF02C054E001C02E
:100E600050E04091B10040FD5260E1EBF0E0408184
:100E700040814B7F408340814D7F408340814E7F46
:100E8000408301C050E06115710529F4EAE7F0E004
:100E900040814F7740838A309105A9F083FD02C0DD
:100EA00048E001C048E28770842B98E10FB6F894BF
:100EB000A895909360000FBE80936000E0E6F0E09C
:100EC000808180648083AB2BA1F483B7817F8660AF
:100ED00083BFF89483B7816083BF85B7806685BF81
:100EE0008F7D85BF7894889583B78E7F83BF7894F4
:100EF0000EC083B7817F866083BFF89483B781601B
:100F000083BF7894889583B78E7F83BF7894672B4F
:100F100029F4EAE7F0E0808180688083232B39F4AC
:100F200051FF05C0E1EBF0E080818460808308958B
:100F30006115710529F4EAE7F0E020812F7720831D
:100F40008A309105A9F083FD02C028E001C028E2A3
:100F50008770822B98E10FB6F894A8959093600063
:100F60000FBE80936000E0E6F0E0808180648083C3
:100F7000452BA1F483B7817F8C6083BFF89483B73E
:100F8000816083BF85B7806685BF8F7D85BF78947C
:100F9000889583B78E7F83BF78940EC083B7817F97
:100FA0008C6083BFF89483B7816083BF7894889501
:100FB00083B78E7F83BF7894672B29F4EAE7F0E04C
:100FC0008081806880830895DA0121153105C1F49C
:100FD0004091B10041FF02C054E001C050E0409197
:100FE000B10040FD5260E1EBF0E0408140814B7F79
:100FF000408340814D7F408340814E7F408301C0CC
:1010000050E06115710529F4EAE7F0E040814F777F
:1010100040838A309105A9F083FD02C048E001C0F9
:1010200048E28770842B98E10FB6F894A8959093C6
:1010300060000FBE80936000E0E6F0E08081806495
:101040008083AB2B99F483B78E6083BFF89483B70A
:10105000816083BF85B7806685BF8F7D85BF7894AB
:10106000889583B78E7F83BF78940DC083B78E60D9
:1010700083BFF89483B7816083BF7894889583B7E2
:101080008E7F83BF7894672B29F4EAE7F0E08081B4
:1010900080688083232B39F451FF05C0E1EBF0E039
:1010A00080818460808308951F920F920FB60F9203
:1010B00011248F930FB6F894A895809160008861F1
:1010C00080936000109260000FBE8F910F900FBE52
:1010D0000F901F901895442369F022E02093C000E0
:1010E0009B01AC0193E0220F331F441F551F9A95BB
:1010F000D1F709C09B01AC0184E0220F331F441FCC
:10110000551F8A95D1F760E072E18AE790E00E946E
:101110006009215031093093C5002093C4008091AB
:10112000C2008F738093C2008091C2008F7C809335
:10113000C2008091C200877F8093C2008091C2006C
:101140008B7F8093C2008091C20086608093C20032
:1011500088E18093C10008958091C00087FFFCCF93
:101160008091C6000895CF92DF92EF92FF921F9375
:10117000CF93DF931F92CDB7DEB7182F6C018C2D64
:10118000811B861760F4760169830E94AC08F60122
:1011900081936F0169818D3091F7F70110820F9073
:1011A000DF91CF911F91FF90EF90DF90CF90089546
:1011B0009091C00095FFFCCF8093C6000895CF9317
:1011C000DF93EC018991882319F00E94D808FACFA7
:1011D000DF91CF910895529853985A9A5B9A3B9A0F
:1011E000809169008E7F80936900809169008260A0
:1011F00080936900809169008B7F80936900809162
:101200006900886080936900E89AE99A4398789425
:101210000E941E0347E063E180E00E944F0180E0EE
:101220000E94D90181E00E94520225E043E167E17A
:101230008EE00E94600278940E94DF0240E050E05D
:1012400060E070E08AE090E00E94DA06F894809115
:1012500008018823B1F0439A41E060E076E980E03C
:1012600090E00E946B080DC080E091E00E94DF08D2
:101270002FEF89E698E1215080409040E1F700C0CF
:101280000000809108018823B1F24B9BEDCF439879
:10129000109208012FEF8DE399E421508040904097
:1012A000E1F700C00000C7CF991B79E004C0991F87
:1012B000961708F0961B881F7A95C9F780950895B0
:1012C000A1E21A2EAA1BBB1BFD010DC0AA1FBB1F4A
:1012D000EE1FFF1FA217B307E407F50720F0A21BBC
:1012E000B30BE40BF50B661F771F881F991F1A9429
:1012F00069F760957095809590959B01AC01BD0153
:08130000CF010895F894FFCF1E
:0813080042656570210D0A0029
:00000001FF
