:100000000C9434000C9449000C9449000C94490061
:100010000C9449000C9449000C9449000C9449003C
:100020000C9449000C9449000C9449000C9449002C
:100030000C9449000C9449000C9449000C9449001C
:100040000C9449000C9449000C9449000C9449000C
:100050000C9449000C9449000C9449000C944900FC
:100060000C9449000C94490011241FBECFEFD8E036
:10007000DEBFCDBF11E0A0E0B1E0EEEBF8E002C0E2
:1000800005900D92A632B107D9F70E941D010C947C
:100090005D040C940000442369F022E02093C0002A
:1000A0009B01AC0193E0220F331F441F551F9A950B
:1000B000D1F709C09B01AC0184E0220F331F441F1C
:1000C000551F8A95D1F760E072E18AE790E00E94BF
:1000D0006301215031093093C5002093C400809101
:1000E000C2008F738093C2008091C2008F7C809386
:1000F000C2008091C200877F8093C2008091C200BD
:100100008B7F8093C2008091C20086608093C20082
:1001100088E18093C10008958091C00087FFFCCFE3
:100120008091C6000895CF92DF92EF92FF921F93C5
:10013000CF93DF931F92CDB7DEB7182F6C018C2DB4
:10014000811B861760F4760169830E948C00F6019A
:1001500081936F0169818D3091F7F70110820F90C3
:10016000DF91CF911F91FF90EF90DF90CF90089596
:100170009091C00095FFFCCF8093C6000895CF9367
:10018000DF93EC018991882319F00E94B800FACF1F
:10019000DF91CF910895229A259A2498239A2A9A3A
:1001A0000895FC012A982B9A45E34A95F1F700003F
:1001B0002D9A85E38A95F1F700002D982B9A95E307
:1001C0009A95F1F700002D9A45E34A95F1F7000062
:1001D0002D982B9885E38A95F1F700002D9A95E3E9
:1001E0009A95F1F700002D9828E030E080E02D9AF4
:1001F00045E34A95F1F700002D9895E39A95F1F7BC
:100200000000880F1C9981602150310981F728E096
:1002100030E090E096951C9990682D9A45E34A95B8
:10022000F1F700002D9845E34A95F1F700002150C1
:10023000310981F72A9A90830895CF93DF93CDB740
:10024000DEB7C556D1090FB6F894DEBF0FBECDBFDD
:1002500041E060E076E980E090E00E944B000E947F
:10026000CB008E010F5F1F4F84E1F80111928A9538
:10027000E9F780E0E82E81E0F82ECE018B599F4F00
:100280000E94D1001F928F93A6969FADA6971F92B2
:100290009F931F928F93FF92EF921F930F930E9451
:1002A0008501C8010E94BF00FFEF29E688E1F150F7
:1002B00020408040E1F700C000000FB6F894DEBF98
:1002C0000FBECDBFDACFA1E21A2EAA1BBB1BFD01C8
:1002D0000DC0AA1FBB1FEE1FFF1FA217B307E40725
:1002E000F50720F0A21BB30BE40BF50B661F771F7D
:1002F000881F991F1A9469F760957095809590955D
:100300009B01AC01BD01CF010895AEE0B0E0EBE888
:10031000F1E00C9434040D891E8986E08C831A83E5
:1003200009838FEF9FE79E838D83AE01475E5F4F0A
:100330006F89788DCE0101960E94A8012F813885A2
:10034000F801E20FF31F10822E96E4E00C945004A3
:10035000ACE0B0E0EEEAF1E00C9426047C016B0125
:100360008A01FC0117821682838181FFBDC1CE0103
:1003700001964C01F7019381F60193FD859193FF5E
:1003800081916F01882309F4ABC1853239F493FD63
:10039000859193FF81916F01853229F4B70190E037
:1003A0000E949003E7CF512C312C20E02032A0F4A2
:1003B0008B3269F030F4803259F0833269F4206175
:1003C0002CC08D3239F0803339F4216026C0226090
:1003D000246023C0286021C027FD27C030ED380FDE
:1003E0003A3078F426FF06C0FAE05F9E300D112403
:1003F000532E13C08AE0389E300D1124332E206214
:100400000CC08E3221F426FD6BC1206406C08C36F0
:1004100011F4206802C0883641F4F60193FD8591FD
:1004200093FF81916F018111C1CF982F9F7D9554CA
:10043000933028F40C5F1F4FFFE3F9830DC0833620
:1004400031F0833771F0833509F05BC022C0F801C9
:10045000808189830E5F1F4F44244394512C5401A3
:1004600015C03801F2E06F0E711CF801A080B18058
:1004700026FF03C0652D70E002C06FEF7FEFC5015E
:100480002C870E9485032C0183012C852F77222E37
:1004900017C03801F2E06F0E711CF801A080B18026
:1004A00026FF03C0652D70E002C06FEF7FEFC5012E
:1004B0002C870E947A032C012C852068222E830130
:1004C00023FC1BC0832D90E048165906B0F4B701F9
:1004D00080E290E00E9490033A94F4CFF50127FC6B
:1004E000859127FE81915F01B70190E00E94900302
:1004F00031103A94F1E04F1A51084114510471F748
:10050000E5C0843611F0893639F5F80127FF07C0B8
:1005100060817181828193810C5F1F4F08C060816F
:100520007181072E000C880B990B0E5F1F4F2F76E1
:10053000722E97FF09C090958095709561957F4FB9
:100540008F4F9F4F2068722E2AE030E0A4010E9456
:10055000C803A82EA81844C0853729F42F7EB22ED0
:100560002AE030E025C0F22FF97FBF2E8F36C1F090
:1005700018F4883579F0B4C0803719F0883721F045
:10058000AFC02F2F2061B22EB4FE0DC08B2D846022
:10059000B82E09C024FF0AC09F2F9660B92E06C04E
:1005A00028E030E005C020E130E002C020E132E088
:1005B000F801B7FE07C060817181828193810C5F71
:1005C0001F4F06C06081718180E090E00E5F1F4F79
:1005D000A4010E94C803A82EA818FB2DFF777F2E28
:1005E00076FE0BC0372D3E7FA51450F474FE0AC072
:1005F00072FC08C0372D3E7E05C0BA2C372D03C0D3
:10060000BA2C01C0B52C34FF0DC0FE01EA0DF11D5E
:100610008081803311F4397E09C032FF06C0B39463
:10062000B39404C0832F867809F0B39433FD13C0CC
:1006300030FF06C05A2CB31418F4530C5B18B32CBB
:10064000B31468F4B70180E290E03C870E94900305
:10065000B3943C85F5CFB31410F43B1801C0312C92
:1006600034FF12C0B70180E390E03C870E94900302
:100670003C8532FF17C031FD03C088E790E002C01F
:1006800088E590E0B7010CC0832F867859F031FFE0
:1006900002C08BE201C080E237FD8DE2B70190E03D
:1006A0000E949003A51438F4B70180E390E00E9403
:1006B00090035A94F7CFAA94F401EA0DF11D8081BA
:1006C000B70190E00E949003A110F5CF332009F408
:1006D00051CEB70180E290E00E9490033A94F6CFA9
:1006E000F7018681978102C08FEF9FEF2C96E2E1A0
:1006F0000C944204FC010590615070400110D8F741
:10070000809590958E0F9F1F0895FC016150704059
:1007100001900110D8F7809590958E0F9F1F089536
:100720000F931F93CF93DF93FB01238121FD03C020
:100730008FEF9FEF28C022FF16C04681578124818A
:1007400035814217530744F4A081B1819D012F5F89
:100750003F4F318320838C93268137812F5F3F4F1A
:100760003783268310C0EB01092F182F0084F185F1
:10077000E02D0995892BE1F68E819F8101969F835B
:100780008E83812F902FDF91CF911F910F9108952C
:10079000FA01AA27283051F1203181F1E8946F93B2
:1007A0006E7F6E5F7F4F8F4F9F4FAF4FB1E03ED058
:1007B000B4E03CD0670F781F891F9A1FA11D680FF6
:1007C000791F8A1F911DA11D6A0F711D811D911D29
:1007D000A11D20D009F468943F912AE0269F11249E
:1007E0003019305D3193DEF6CF010895462F477002
:1007F000405D4193B3E00FD0C9F7F6CF462F4F705D
:10080000405D4A3318F0495D31FD4052419302D0BA
:10081000A9F7EACFB4E0A695979587957795679560
:10082000BA95C9F700976105710508959B01AC0160
:100830000A2E06945795479537952795BA95C9F787
:10084000620F731F841F951FA01D08952F923F9262
:100850004F925F926F927F928F929F92AF92BF92D0
:10086000CF92DF92EF92FF920F931F93CF93DF937C
:10087000CDB7DEB7CA1BDB0B0FB6F894DEBF0FBED9
:10088000CDBF09942A88398848885F846E847D8426
:100890008C849B84AA84B984C884DF80EE80FD8028
:1008A0000C811B81AA81B981CE0FD11D0FB6F8949E
:0E08B000DEBF0FBECDBFED010895F894FFCF5F
:1008BE006D73623A203078253032780D0A6C73628F
:1008CE003A203078253032780D0A6465633A202557
:0608DE00640D0A0D0A0082
:00000001FF
